{
    "contractName": "CrazyFuryMaps",
    "abi": [
        {
            "inputs": [
                {
                    "internalType": "address",
                    "name": "cf_address",
                    "type": "address"
                }
            ],
            "stateMutability": "nonpayable",
            "type": "constructor"
        },
        {
            "inputs": [],
            "name": "disableNinjaMode",
            "outputs": [],
            "stateMutability": "nonpayable",
            "type": "function"
        },
        {
            "inputs": [],
            "name": "enableNinjaMode",
            "outputs": [],
            "stateMutability": "nonpayable",
            "type": "function"
        },
        {
            "inputs": [
                {
                    "internalType": "uint256",
                    "name": "index",
                    "type": "uint256"
                }
            ],
            "name": "get",
            "outputs": [
                {
                    "components": [
                        {
                            "internalType": "string",
                            "name": "crazyFuryDiscordName",
                            "type": "string"
                        },
                        {
                            "internalType": "string",
                            "name": "geohash",
                            "type": "string"
                        }
                    ],
                    "internalType": "struct CrazyFuryMaps.CrazyFuryPositionResponse",
                    "name": "",
                    "type": "tuple"
                }
            ],
            "stateMutability": "view",
            "type": "function"
        },
        {
            "inputs": [],
            "name": "getCrazyFuryAddress",
            "outputs": [
                {
                    "internalType": "address",
                    "name": "",
                    "type": "address"
                }
            ],
            "stateMutability": "view",
            "type": "function"
        },
        {
            "inputs": [],
            "name": "getSize",
            "outputs": [
                {
                    "internalType": "uint256",
                    "name": "",
                    "type": "uint256"
                }
            ],
            "stateMutability": "view",
            "type": "function"
        },
        {
            "inputs": [
                {
                    "internalType": "string",
                    "name": "crazyFuryDiscordName",
                    "type": "string"
                },
                {
                    "internalType": "string",
                    "name": "geoHash",
                    "type": "string"
                }
            ],
            "name": "setLocation",
            "outputs": [],
            "stateMutability": "nonpayable",
            "type": "function"
        }
    ],
    "bytecode": "6080604052610de9600055600180546001600160a01b0319167304047358179df7fe24e578219336212346df1c0717905534801561003c57600080fd5b50604051610efc380380610efc83398101604081905261005b91610116565b6100866040518060600160405280602a8152602001610ed2602a91396100ab60201b6109731760201c565b600180546001600160a01b0319166001600160a01b0392909216919091179055610197565b6100f2816040516024016100bf9190610144565b60408051601f198184030181529190526020810180516001600160e01b0390811663104c13eb60e21b179091526100f516565b50565b80516a636f6e736f6c652e6c6f67602083016000808483855afa5050505050565b600060208284031215610127578081fd5b81516001600160a01b038116811461013d578182fd5b9392505050565b6000602080835283518082850152825b8181101561017057858101830151858201604001528201610154565b818111156101815783604083870101525b50601f01601f1916929092016040019392505050565b610d2c806101a66000396000f3fe608060405234801561001057600080fd5b50600436106100625760003560e01c806307553e211461006757806393645707146100715780639507d39a14610091578063c92bd3a8146100b1578063de8fa431146100b9578063fe586c9a146100cf575b600080fd5b61006f6100e2565b005b6001546040516001600160a01b0390911681526020015b60405180910390f35b6100a461009f366004610b5b565b6102cc565b6040516100889190610c63565b61006f61057d565b6100c1610729565b604051908152602001610088565b61006f6100dd366004610afa565b61075f565b3360009081526003602052604090205460ff1661011a5760405162461bcd60e51b815260040161011190610bf0565b60405180910390fd5b3360009081526002602052604080822081516060810190925280548290829061014290610ca5565b80601f016020809104026020016040519081016040528092919081815260200182805461016e90610ca5565b80156101bb5780601f10610190576101008083540402835291602001916101bb565b820191906000526020600020905b81548152906001019060200180831161019e57829003601f168201915b505050505081526020016001820180546101d490610ca5565b80601f016020809104026020016040519081016040528092919081815260200182805461020090610ca5565b801561024d5780601f106102225761010080835404028352916020019161024d565b820191906000526020600020905b81548152906001019060200180831161023057829003601f168201915b505050918352505060029182015460ff16151560209182015260006040808501829052338252928252919091208251805193945084939192610294928492909101906109da565b5060208281015180516102ad92600185019201906109da565b50604091909101516002909101805460ff191691151591909117905550565b60408051808201909152606080825260208201523360009081526003602052604090205460ff1661030f5760405162461bcd60e51b815260040161011190610bf0565b336000908152600260208190526040909120015460ff16156103a45760405162461bcd60e51b815260206004820152604260248201527f4f6e6c79204372617a792046757279204d617073206d656d626572206e696e6a60448201527f61206d6f6465206f66662063616e20706572666f726d2074686973206163746960648201526137b760f11b608482015260a401610111565b600060026000600485815481106103cb57634e487b7160e01b600052603260045260246000fd5b60009182526020808320909101546001600160a01b03168352820192909252604090810190912081516060810190925280548290829061040a90610ca5565b80601f016020809104026020016040519081016040528092919081815260200182805461043690610ca5565b80156104835780601f1061045857610100808354040283529160200191610483565b820191906000526020600020905b81548152906001019060200180831161046657829003601f168201915b5050505050815260200160018201805461049c90610ca5565b80601f01602080910402602001604051908101604052809291908181526020018280546104c890610ca5565b80156105155780601f106104ea57610100808354040283529160200191610515565b820191906000526020600020905b8154815290600101906020018083116104f857829003601f168201915b50505091835250506002919091015460ff16151560209182015260408051808201825260608082529281019290925282015191925090156105595791506105789050565b5060408051808201909152815181526020918201519181019190915290505b919050565b3360009081526003602052604090205460ff166105ac5760405162461bcd60e51b815260040161011190610bf0565b336000908152600260205260408082208151606081019092528054829082906105d490610ca5565b80601f016020809104026020016040519081016040528092919081815260200182805461060090610ca5565b801561064d5780601f106106225761010080835404028352916020019161064d565b820191906000526020600020905b81548152906001019060200180831161063057829003601f168201915b5050505050815260200160018201805461066690610ca5565b80601f016020809104026020016040519081016040528092919081815260200182805461069290610ca5565b80156106df5780601f106106b4576101008083540402835291602001916106df565b820191906000526020600020905b8154815290600101906020018083116106c257829003601f168201915b505050918352505060029182015460ff16151560209182015260016040808501919091523360009081529282529091208251805193945084939192610294928492909101906109da565b3360009081526003602052604081205460ff166107585760405162461bcd60e51b815260040161011190610bf0565b5060045490565b6001546040516370a0823160e01b81523360048201526000916001600160a01b0316906370a082319060240160206040518083038186803b1580156107a357600080fd5b505afa1580156107b7573d6000803e3d6000fd5b505050506040513d601f19601f820116820180604052508101906107db9190610b73565b116108395760405162461bcd60e51b815260206004820152602860248201527f4865792042726f2c20596f7520646f6e277420686176652061206372617a7920604482015267199d5c9e4813919560c21b6064820152608401610111565b6000546004541061088c5760405162461bcd60e51b815260206004820181905260248201527f4372617a7946757279206d656d62657273206c696d69742072656163686564216044820152606401610111565b6040805160608101825283815260208082018490526000828401819052338152600282529290922081518051929391926108c992849201906109da565b5060208281015180516108e292600185019201906109da565b50604091820151600291909101805460ff19169115159190911790553360009081526003602052205460ff1661096f57336000818152600360205260408120805460ff191660019081179091556004805491820181559091527f8a35acfbc15ff81a39ae7d344fd709f28e8600b4aa8c65c6b64bfe7fe36bd19b0180546001600160a01b03191690911790555b5050565b6109b6816040516024016109879190610bd6565b60408051601f198184030181529190526020810180516001600160e01b031663104c13eb60e21b1790526109b9565b50565b80516a636f6e736f6c652e6c6f67602083016000808483855afa5050505050565b8280546109e690610ca5565b90600052602060002090601f016020900481019282610a085760008555610a4e565b82601f10610a2157805160ff1916838001178555610a4e565b82800160010185558215610a4e579182015b82811115610a4e578251825591602001919060010190610a33565b50610a5a929150610a5e565b5090565b5b80821115610a5a5760008155600101610a5f565b600082601f830112610a83578081fd5b813567ffffffffffffffff80821115610a9e57610a9e610ce0565b604051601f8301601f19908116603f01168101908282118183101715610ac657610ac6610ce0565b81604052838152866020858801011115610ade578485fd5b8360208701602083013792830160200193909352509392505050565b60008060408385031215610b0c578182fd5b823567ffffffffffffffff80821115610b23578384fd5b610b2f86838701610a73565b93506020850135915080821115610b44578283fd5b50610b5185828601610a73565b9150509250929050565b600060208284031215610b6c578081fd5b5035919050565b600060208284031215610b84578081fd5b5051919050565b60008151808452815b81811015610bb057602081850181015186830182015201610b94565b81811115610bc15782602083870101525b50601f01601f19169290920160200192915050565b602081526000610be96020830184610b8b565b9392505050565b6020808252604d908201527f4f6e6c79204372617a792046757279204d617073206d656d6265722063616e2060408201527f706572666f726d207468697320616374696f6e212041646420796f757220706f60608201526c736974696f6e2066697273742160981b608082015260a00190565b602081526000825160406020840152610c7f6060840182610b8b565b90506020840151601f19848303016040850152610c9c8282610b8b565b95945050505050565b600181811c90821680610cb957607f821691505b60208210811415610cda57634e487b7160e01b600052602260045260246000fd5b50919050565b634e487b7160e01b600052604160045260246000fdfea26469706673582212205594511ef92b7c68dfc0feb167bdf955996e446e4d8d2277bf56111b96f165a664736f6c634300080400336c6f6164696e67206372617a796675727920706f736974696f6e7320736d61727420636f6e7472616374",
    "sourcePath": "c:/Devocracy/crazyfurymaps/contracts/CrazyFuryMaps.sol",
    "compiler": {
        "name": "solc",
        "version": "0.8.4+commit.c7e474f2"
    },
    "functionHashes": {
        "disableNinjaMode()": "07553e21",
        "enableNinjaMode()": "c92bd3a8",
        "get(uint256)": "9507d39a",
        "getCrazyFuryAddress()": "93645707",
        "getSize()": "de8fa431",
        "setLocation(string,string)": "fe586c9a"
    },
    "gasEstimates": {
        "creation": {
            "codeDepositCost": "674400",
            "executionCost": "infinite",
            "totalCost": "infinite"
        },
        "external": {
            "disableNinjaMode()": "infinite",
            "enableNinjaMode()": "infinite",
            "get(uint256)": "infinite",
            "getCrazyFuryAddress()": "990",
            "getSize()": "1966",
            "setLocation(string,string)": "infinite"
        }
    }
}