{
    "contractName": "CrazyFuryMaps",
    "abi": [
        {
            "inputs": [
                {
                    "internalType": "address",
                    "name": "_cfContractAdr",
                    "type": "address"
                }
            ],
            "stateMutability": "nonpayable",
            "type": "constructor"
        },
        {
            "anonymous": false,
            "inputs": [
                {
                    "indexed": true,
                    "internalType": "address",
                    "name": "previousOwner",
                    "type": "address"
                },
                {
                    "indexed": true,
                    "internalType": "address",
                    "name": "newOwner",
                    "type": "address"
                }
            ],
            "name": "OwnershipTransferred",
            "type": "event"
        },
        {
            "inputs": [],
            "name": "disableNinjaMode",
            "outputs": [],
            "stateMutability": "nonpayable",
            "type": "function"
        },
        {
            "inputs": [],
            "name": "enableNinjaMode",
            "outputs": [],
            "stateMutability": "nonpayable",
            "type": "function"
        },
        {
            "inputs": [
                {
                    "internalType": "uint256",
                    "name": "index",
                    "type": "uint256"
                }
            ],
            "name": "get",
            "outputs": [
                {
                    "components": [
                        {
                            "internalType": "string",
                            "name": "discordName",
                            "type": "string"
                        },
                        {
                            "internalType": "string",
                            "name": "geohash",
                            "type": "string"
                        }
                    ],
                    "internalType": "struct CrazyFuryMaps.CFLocationResult",
                    "name": "",
                    "type": "tuple"
                }
            ],
            "stateMutability": "view",
            "type": "function"
        },
        {
            "inputs": [],
            "name": "getCrazyFuryContractAddress",
            "outputs": [
                {
                    "internalType": "address",
                    "name": "",
                    "type": "address"
                }
            ],
            "stateMutability": "view",
            "type": "function"
        },
        {
            "inputs": [],
            "name": "getSize",
            "outputs": [
                {
                    "internalType": "uint256",
                    "name": "",
                    "type": "uint256"
                }
            ],
            "stateMutability": "view",
            "type": "function"
        },
        {
            "inputs": [
                {
                    "internalType": "uint256",
                    "name": "index",
                    "type": "uint256"
                }
            ],
            "name": "getWithAddress",
            "outputs": [
                {
                    "components": [
                        {
                            "internalType": "string",
                            "name": "discordName",
                            "type": "string"
                        },
                        {
                            "internalType": "string",
                            "name": "geohash",
                            "type": "string"
                        },
                        {
                            "internalType": "address",
                            "name": "cfMemberAdr",
                            "type": "address"
                        }
                    ],
                    "internalType": "struct CrazyFuryMaps.CFLocationResultWithAddrResult",
                    "name": "",
                    "type": "tuple"
                }
            ],
            "stateMutability": "view",
            "type": "function"
        },
        {
            "inputs": [],
            "name": "owner",
            "outputs": [
                {
                    "internalType": "address",
                    "name": "",
                    "type": "address"
                }
            ],
            "stateMutability": "view",
            "type": "function"
        },
        {
            "inputs": [],
            "name": "renounceOwnership",
            "outputs": [],
            "stateMutability": "nonpayable",
            "type": "function"
        },
        {
            "inputs": [
                {
                    "internalType": "string",
                    "name": "discordName",
                    "type": "string"
                },
                {
                    "internalType": "string",
                    "name": "geoHash",
                    "type": "string"
                }
            ],
            "name": "setLocation",
            "outputs": [],
            "stateMutability": "nonpayable",
            "type": "function"
        },
        {
            "inputs": [
                {
                    "internalType": "string",
                    "name": "discordName",
                    "type": "string"
                },
                {
                    "internalType": "string",
                    "name": "geoHash",
                    "type": "string"
                }
            ],
            "name": "setLocationWithACoffee",
            "outputs": [],
            "stateMutability": "payable",
            "type": "function"
        },
        {
            "inputs": [
                {
                    "internalType": "address",
                    "name": "newOwner",
                    "type": "address"
                }
            ],
            "name": "transferOwnership",
            "outputs": [],
            "stateMutability": "nonpayable",
            "type": "function"
        }
    ],
    "bytecode": "60806040523480156200001157600080fd5b5060405162001bb938038062001bb9833981016040819052620000349162000157565b6200003f3362000095565b6200006f60405180608001604052806046815260200162001b736046913982620000e560201b6200126e1760201c565b600180546001600160a01b0319166001600160a01b0392909216919091179055620001ee565b600080546001600160a01b038381166001600160a01b0319831681178455604051919092169283917f8be0079c531659141344cd1fd0a4f28419497f9722a3daafe3b4186f6b6457e09190a35050565b620001328282604051602401620000fe92919062000187565b60408051601f198184030181529190526020810180516001600160e01b0390811663319af33360e01b179091526200013616565b5050565b80516a636f6e736f6c652e6c6f67602083016000808483855afa5050505050565b60006020828403121562000169578081fd5b81516001600160a01b038116811462000180578182fd5b9392505050565b6040815260008351806040840152815b81811015620001b6576020818701810151606086840101520162000197565b81811115620001c85782606083860101525b506001600160a01b0393909316602083015250601f91909101601f191601606001919050565b61197580620001fe6000396000f3fe60806040526004361061009c5760003560e01c806396063e8a1161006457806396063e8a1461014f578063a2d334791461017c578063c92bd3a81461018f578063de8fa431146101a4578063f2fde38b146101c7578063fe586c9a146101e757600080fd5b806307553e21146100a15780631a16a926146100b8578063715018a6146100ef5780638da5cb5b146101045780639507d39a14610122575b600080fd5b3480156100ad57600080fd5b506100b6610207565b005b3480156100c457600080fd5b506001546001600160a01b03165b6040516001600160a01b0390911681526020015b60405180910390f35b3480156100fb57600080fd5b506100b661048a565b34801561011057600080fd5b506000546001600160a01b03166100d2565b34801561012e57600080fd5b5061014261013d366004611655565b6104f0565b6040516100e691906118ac565b34801561015b57600080fd5b5061016f61016a366004611655565b61089c565b6040516100e69190611851565b6100b661018a3660046115f4565b610c92565b34801561019b57600080fd5b506100b6610de4565b3480156101b057600080fd5b506101b9611029565b6040519081526020016100e6565b3480156101d357600080fd5b506100b66101e23660046115c6565b6110fc565b3480156101f357600080fd5b506100b66102023660046115f4565b6111c7565b6001546040516370a0823160e01b81523360048201526000916001600160a01b0316906370a082319060240160206040518083038186803b15801561024b57600080fd5b505afa15801561025f573d6000803e3d6000fd5b505050506040513d601f19601f82011682018060405250810190610283919061166d565b116102a95760405162461bcd60e51b81526004016102a0906117d5565b60405180910390fd5b3360009081526003602052604090205460ff166102d85760405162461bcd60e51b81526004016102a0906116fa565b33600090815260026020526040808220815160608101909252805482908290610300906118ee565b80601f016020809104026020016040519081016040528092919081815260200182805461032c906118ee565b80156103795780601f1061034e57610100808354040283529160200191610379565b820191906000526020600020905b81548152906001019060200180831161035c57829003601f168201915b50505050508152602001600182018054610392906118ee565b80601f01602080910402602001604051908101604052809291908181526020018280546103be906118ee565b801561040b5780601f106103e05761010080835404028352916020019161040b565b820191906000526020600020905b8154815290600101906020018083116103ee57829003601f168201915b505050918352505060029182015460ff16151560209182015260006040808501829052338252928252919091208251805193945084939192610452928492909101906114a6565b50602082810151805161046b92600185019201906114a6565b50604091909101516002909101805460ff191691151591909117905550565b6000546001600160a01b031633146104e45760405162461bcd60e51b815260206004820181905260248201527f4f776e61626c653a2063616c6c6572206973206e6f7420746865206f776e657260448201526064016102a0565b6104ee60006112b3565b565b60408051808201909152606080825260208201526001546040516370a0823160e01b81523360048201526000916001600160a01b0316906370a082319060240160206040518083038186803b15801561054857600080fd5b505afa15801561055c573d6000803e3d6000fd5b505050506040513d601f19601f82011682018060405250810190610580919061166d565b1161059d5760405162461bcd60e51b81526004016102a0906117d5565b3360009081526003602052604090205460ff166105cc5760405162461bcd60e51b81526004016102a0906116fa565b336000908152600260208190526040909120015460ff16156106005760405162461bcd60e51b81526004016102a09061176d565b6000600260006004858154811061062757634e487b7160e01b600052603260045260246000fd5b60009182526020808320909101546001600160a01b031683528201929092526040908101909120815160608101909252805482908290610666906118ee565b80601f0160208091040260200160405190810160405280929190818152602001828054610692906118ee565b80156106df5780601f106106b4576101008083540402835291602001916106df565b820191906000526020600020905b8154815290600101906020018083116106c257829003601f168201915b505050505081526020016001820180546106f8906118ee565b80601f0160208091040260200160405190810160405280929190818152602001828054610724906118ee565b80156107715780601f1061074657610100808354040283529160200191610771565b820191906000526020600020905b81548152906001019060200180831161075457829003601f168201915b50505091835250506002919091015460ff161515602091820152604080518082018252606080825292810192909252820151919250908061086a5750600154600480546001600160a01b03909216916370a082319190879081106107e557634e487b7160e01b600052603260045260246000fd5b60009182526020909120015460405160e083901b6001600160e01b03191681526001600160a01b03909116600482015260240160206040518083038186803b15801561083057600080fd5b505afa158015610844573d6000803e3d6000fd5b505050506040513d601f19601f82011682018060405250810190610868919061166d565b155b156108785791506108979050565b5060408051808201909152815181526020918201519181019190915290505b919050565b604080516060808201835280825260208201526000918101919091526001546040516370a0823160e01b81523360048201526000916001600160a01b0316906370a082319060240160206040518083038186803b1580156108fc57600080fd5b505afa158015610910573d6000803e3d6000fd5b505050506040513d601f19601f82011682018060405250810190610934919061166d565b116109515760405162461bcd60e51b81526004016102a0906117d5565b3360009081526003602052604090205460ff166109805760405162461bcd60e51b81526004016102a0906116fa565b336000908152600260208190526040909120015460ff16156109b45760405162461bcd60e51b81526004016102a09061176d565b600060026000600485815481106109db57634e487b7160e01b600052603260045260246000fd5b60009182526020808320909101546001600160a01b031683528201929092526040908101909120815160608101909252805482908290610a1a906118ee565b80601f0160208091040260200160405190810160405280929190818152602001828054610a46906118ee565b8015610a935780601f10610a6857610100808354040283529160200191610a93565b820191906000526020600020905b815481529060010190602001808311610a7657829003601f168201915b50505050508152602001600182018054610aac906118ee565b80601f0160208091040260200160405190810160405280929190818152602001828054610ad8906118ee565b8015610b255780601f10610afa57610100808354040283529160200191610b25565b820191906000526020600020905b815481529060010190602001808311610b0857829003601f168201915b50505091835250506002919091015460ff161515602091820152604080516060808201835280825292810192909252600090820152909150816040015180610c255750600154600480546001600160a01b03909216916370a08231919087908110610ba057634e487b7160e01b600052603260045260246000fd5b60009182526020909120015460405160e083901b6001600160e01b03191681526001600160a01b03909116600482015260240160206040518083038186803b158015610beb57600080fd5b505afa158015610bff573d6000803e3d6000fd5b505050506040513d601f19601f82011682018060405250810190610c23919061166d565b155b15610c335791506108979050565b6040518060600160405280836000015181526020018360200151815260200160048681548110610c7357634e487b7160e01b600052603260045260246000fd5b6000918252602090912001546001600160a01b03169052949350505050565b6001546040516370a0823160e01b81523360048201526000916001600160a01b0316906370a082319060240160206040518083038186803b158015610cd657600080fd5b505afa158015610cea573d6000803e3d6000fd5b505050506040513d601f19601f82011682018060405250810190610d0e919061166d565b11610d2b5760405162461bcd60e51b81526004016102a0906117d5565b610d358282611303565b600080546040516001600160a01b0390911690660206697785a000908381818185875af1925050503d8060008114610d89576040519150601f19603f3d011682016040523d82523d6000602084013e610d8e565b606091505b5050905080610ddf5760405162461bcd60e51b815260206004820152601f60248201527f4661696c656420746f2073656e6420457468657220746f20616464726573730060448201526064016102a0565b505050565b6001546040516370a0823160e01b81523360048201526000916001600160a01b0316906370a082319060240160206040518083038186803b158015610e2857600080fd5b505afa158015610e3c573d6000803e3d6000fd5b505050506040513d601f19601f82011682018060405250810190610e60919061166d565b11610e7d5760405162461bcd60e51b81526004016102a0906117d5565b3360009081526003602052604090205460ff16610eac5760405162461bcd60e51b81526004016102a0906116fa565b33600090815260026020526040808220815160608101909252805482908290610ed4906118ee565b80601f0160208091040260200160405190810160405280929190818152602001828054610f00906118ee565b8015610f4d5780601f10610f2257610100808354040283529160200191610f4d565b820191906000526020600020905b815481529060010190602001808311610f3057829003601f168201915b50505050508152602001600182018054610f66906118ee565b80601f0160208091040260200160405190810160405280929190818152602001828054610f92906118ee565b8015610fdf5780601f10610fb457610100808354040283529160200191610fdf565b820191906000526020600020905b815481529060010190602001808311610fc257829003601f168201915b505050918352505060029182015460ff16151560209182015260016040808501919091523360009081529282529091208251805193945084939192610452928492909101906114a6565b6001546040516370a0823160e01b815233600482015260009182916001600160a01b03909116906370a082319060240160206040518083038186803b15801561107157600080fd5b505afa158015611085573d6000803e3d6000fd5b505050506040513d601f19601f820116820180604052508101906110a9919061166d565b116110c65760405162461bcd60e51b81526004016102a0906117d5565b3360009081526003602052604090205460ff166110f55760405162461bcd60e51b81526004016102a0906116fa565b5060045490565b6000546001600160a01b031633146111565760405162461bcd60e51b815260206004820181905260248201527f4f776e61626c653a2063616c6c6572206973206e6f7420746865206f776e657260448201526064016102a0565b6001600160a01b0381166111bb5760405162461bcd60e51b815260206004820152602660248201527f4f776e61626c653a206e6577206f776e657220697320746865207a65726f206160448201526564647265737360d01b60648201526084016102a0565b6111c4816112b3565b50565b6001546040516370a0823160e01b81523360048201526000916001600160a01b0316906370a082319060240160206040518083038186803b15801561120b57600080fd5b505afa15801561121f573d6000803e3d6000fd5b505050506040513d601f19601f82011682018060405250810190611243919061166d565b116112605760405162461bcd60e51b81526004016102a0906117d5565b61126a8282611303565b5050565b61126a82826040516024016112849291906116d0565b60408051601f198184030181529190526020810180516001600160e01b031663319af33360e01b179052611485565b600080546001600160a01b038381166001600160a01b0319831681178455604051919092169283917f8be0079c531659141344cd1fd0a4f28419497f9722a3daafe3b4186f6b6457e09190a35050565b81516113515760405162461bcd60e51b815260206004820152601c60248201527f446973636f72644e616d652063616e206e6f7420626520656d7074790000000060448201526064016102a0565b805161139f5760405162461bcd60e51b815260206004820152601960248201527f4c6f636174696f6e2063616e206e6f7420626520656d7074790000000000000060448201526064016102a0565b6040805160608101825283815260208082018490526000828401819052338152600282529290922081518051929391926113dc92849201906114a6565b5060208281015180516113f592600185019201906114a6565b50604091820151600291909101805460ff19169115159190911790553360009081526003602052205460ff1661126a57336000818152600360205260408120805460ff191660019081179091556004805491820181559091527f8a35acfbc15ff81a39ae7d344fd709f28e8600b4aa8c65c6b64bfe7fe36bd19b0180546001600160a01b03191690911790555050565b80516a636f6e736f6c652e6c6f67602083016000808483855afa5050505050565b8280546114b2906118ee565b90600052602060002090601f0160209004810192826114d4576000855561151a565b82601f106114ed57805160ff191683800117855561151a565b8280016001018555821561151a579182015b8281111561151a5782518255916020019190600101906114ff565b5061152692915061152a565b5090565b5b80821115611526576000815560010161152b565b600082601f83011261154f578081fd5b813567ffffffffffffffff8082111561156a5761156a611929565b604051601f8301601f19908116603f0116810190828211818310171561159257611592611929565b816040528381528660208588010111156115aa578485fd5b8360208701602083013792830160200193909352509392505050565b6000602082840312156115d7578081fd5b81356001600160a01b03811681146115ed578182fd5b9392505050565b60008060408385031215611606578081fd5b823567ffffffffffffffff8082111561161d578283fd5b6116298683870161153f565b9350602085013591508082111561163e578283fd5b5061164b8582860161153f565b9150509250929050565b600060208284031215611666578081fd5b5035919050565b60006020828403121561167e578081fd5b5051919050565b60008151808452815b818110156116aa5760208185018101518683018201520161168e565b818111156116bb5782602083870101525b50601f01601f19169290920160200192915050565b6040815260006116e36040830185611685565b905060018060a01b03831660208301529392505050565b6020808252604d908201527f4f6e6c79204372617a792046757279204d617073206d656d6265722063616e2060408201527f706572666f726d207468697320616374696f6e212041646420796f757220706f60608201526c736974696f6e2066697273742160981b608082015260a00190565b60208082526042908201527f4f6e6c79204372617a792046757279204d617073206d656d626572206e696e6a60408201527f61206d6f6465206f66662063616e20706572666f726d2074686973206163746960608201526137b760f11b608082015260a00190565b60208082526056908201527f4865792042726f2c206f6e6c79204372617a7946757279206d656d626572732060408201527f63616e20757365207468697320736572766963652e20427579204372617a79466060820152753ab93c9027232a103a379033b2ba1030b1b1b2b9b99760511b608082015260a00190565b60208152600082516060602084015261186d6080840182611685565b90506020840151601f1984830301604085015261188a8282611685565b604095909501516001600160a01b031660609490940193909352509192915050565b6020815260008251604060208401526118c86060840182611685565b90506020840151601f198483030160408501526118e58282611685565b95945050505050565b600181811c9082168061190257607f821691505b6020821081141561192357634e487b7160e01b600052602260045260246000fd5b50919050565b634e487b7160e01b600052604160045260246000fdfea26469706673582212208b8120bc88c7bbff31a8a323a96e3d8c367ead821f9bba3d442e706c7256b21064736f6c634300080400336c6f6164696e67204372617a79667572794d61707320736d61727420636f6e74726163742077697468204372617a794675727920636f6e74726163742061646472657373203a",
    "sourcePath": "c:/Devocracy/crazyfurymaps/contracts/CrazyFuryMaps.sol",
    "compiler": {
        "name": "solc",
        "version": "0.8.4+commit.c7e474f2"
    },
    "functionHashes": {
        "disableNinjaMode()": "07553e21",
        "enableNinjaMode()": "c92bd3a8",
        "get(uint256)": "9507d39a",
        "getCrazyFuryContractAddress()": "1a16a926",
        "getSize()": "de8fa431",
        "getWithAddress(uint256)": "96063e8a",
        "owner()": "8da5cb5b",
        "renounceOwnership()": "715018a6",
        "setLocation(string,string)": "fe586c9a",
        "setLocationWithACoffee(string,string)": "a2d33479",
        "transferOwnership(address)": "f2fde38b"
    },
    "gasEstimates": {
        "creation": {
            "codeDepositCost": "1303400",
            "executionCost": "infinite",
            "totalCost": "infinite"
        },
        "external": {
            "disableNinjaMode()": "infinite",
            "enableNinjaMode()": "infinite",
            "get(uint256)": "infinite",
            "getCrazyFuryContractAddress()": "1032",
            "getSize()": "infinite",
            "getWithAddress(uint256)": "infinite",
            "owner()": "1087",
            "renounceOwnership()": "23459",
            "setLocation(string,string)": "infinite",
            "setLocationWithACoffee(string,string)": "infinite",
            "transferOwnership(address)": "23662"
        },
        "internal": {
            "setLocationInternal(string memory,string memory)": "infinite"
        }
    }
}