{
    "contractName": "CrazyFuryMaps",
    "abi": [
        {
            "inputs": [
                {
                    "internalType": "address",
                    "name": "_cfContractAdr",
                    "type": "address"
                }
            ],
            "stateMutability": "nonpayable",
            "type": "constructor"
        },
        {
            "anonymous": false,
            "inputs": [
                {
                    "indexed": true,
                    "internalType": "address",
                    "name": "previousOwner",
                    "type": "address"
                },
                {
                    "indexed": true,
                    "internalType": "address",
                    "name": "newOwner",
                    "type": "address"
                }
            ],
            "name": "OwnershipTransferred",
            "type": "event"
        },
        {
            "inputs": [],
            "name": "disableNinjaMode",
            "outputs": [],
            "stateMutability": "nonpayable",
            "type": "function"
        },
        {
            "inputs": [],
            "name": "enableNinjaMode",
            "outputs": [],
            "stateMutability": "nonpayable",
            "type": "function"
        },
        {
            "inputs": [
                {
                    "internalType": "uint256",
                    "name": "index",
                    "type": "uint256"
                }
            ],
            "name": "get",
            "outputs": [
                {
                    "components": [
                        {
                            "internalType": "string",
                            "name": "crazyFuryDiscordName",
                            "type": "string"
                        },
                        {
                            "internalType": "string",
                            "name": "geohash",
                            "type": "string"
                        }
                    ],
                    "internalType": "struct CrazyFuryMaps.CrazyFuryPositionResponse",
                    "name": "",
                    "type": "tuple"
                }
            ],
            "stateMutability": "view",
            "type": "function"
        },
        {
            "inputs": [],
            "name": "getCrazyFuryContractAddress",
            "outputs": [
                {
                    "internalType": "address",
                    "name": "",
                    "type": "address"
                }
            ],
            "stateMutability": "view",
            "type": "function"
        },
        {
            "inputs": [],
            "name": "getSize",
            "outputs": [
                {
                    "internalType": "uint256",
                    "name": "",
                    "type": "uint256"
                }
            ],
            "stateMutability": "view",
            "type": "function"
        },
        {
            "inputs": [],
            "name": "owner",
            "outputs": [
                {
                    "internalType": "address",
                    "name": "",
                    "type": "address"
                }
            ],
            "stateMutability": "view",
            "type": "function"
        },
        {
            "inputs": [],
            "name": "renounceOwnership",
            "outputs": [],
            "stateMutability": "nonpayable",
            "type": "function"
        },
        {
            "inputs": [
                {
                    "internalType": "string",
                    "name": "crazyFuryDiscordName",
                    "type": "string"
                },
                {
                    "internalType": "string",
                    "name": "geoHash",
                    "type": "string"
                }
            ],
            "name": "setLocation",
            "outputs": [],
            "stateMutability": "nonpayable",
            "type": "function"
        },
        {
            "inputs": [
                {
                    "internalType": "string",
                    "name": "crazyFuryDiscordName",
                    "type": "string"
                },
                {
                    "internalType": "string",
                    "name": "geoHash",
                    "type": "string"
                }
            ],
            "name": "setLocationWithACoffee",
            "outputs": [],
            "stateMutability": "payable",
            "type": "function"
        },
        {
            "inputs": [
                {
                    "internalType": "address",
                    "name": "newOwner",
                    "type": "address"
                }
            ],
            "name": "transferOwnership",
            "outputs": [],
            "stateMutability": "nonpayable",
            "type": "function"
        }
    ],
    "bytecode": "60806040523480156200001157600080fd5b506040516200173f3803806200173f833981016040819052620000349162000157565b6200003f3362000095565b6200006f604051806080016040528060468152602001620016f96046913982620000e560201b62000eb71760201c565b600180546001600160a01b0319166001600160a01b0392909216919091179055620001ee565b600080546001600160a01b038381166001600160a01b0319831681178455604051919092169283917f8be0079c531659141344cd1fd0a4f28419497f9722a3daafe3b4186f6b6457e09190a35050565b620001328282604051602401620000fe92919062000187565b60408051601f198184030181529190526020810180516001600160e01b0390811663319af33360e01b179091526200013616565b5050565b80516a636f6e736f6c652e6c6f67602083016000808483855afa5050505050565b60006020828403121562000169578081fd5b81516001600160a01b038116811462000180578182fd5b9392505050565b6040815260008351806040840152815b81811015620001b6576020818701810151606086840101520162000197565b81811115620001c85782606083860101525b506001600160a01b0393909316602083015250601f91909101601f191601606001919050565b6114fb80620001fe6000396000f3fe6080604052600436106100915760003560e01c8063a2d3347911610059578063a2d3347914610144578063c92bd3a814610157578063de8fa4311461016c578063f2fde38b1461018f578063fe586c9a146101af57600080fd5b806307553e21146100965780631a16a926146100ad578063715018a6146100e45780638da5cb5b146100f95780639507d39a14610117575b600080fd5b3480156100a257600080fd5b506100ab6101cf565b005b3480156100b957600080fd5b506001546001600160a01b03165b6040516001600160a01b0390911681526020015b60405180910390f35b3480156100f057600080fd5b506100ab610452565b34801561010557600080fd5b506000546001600160a01b03166100c7565b34801561012357600080fd5b5061013761013236600461129e565b6104b8565b6040516100db9190611432565b6100ab61015236600461123d565b6108db565b34801561016357600080fd5b506100ab610a2d565b34801561017857600080fd5b50610181610c72565b6040519081526020016100db565b34801561019b57600080fd5b506100ab6101aa36600461120f565b610d45565b3480156101bb57600080fd5b506100ab6101ca36600461123d565b610e10565b6001546040516370a0823160e01b81523360048201526000916001600160a01b0316906370a082319060240160206040518083038186803b15801561021357600080fd5b505afa158015610227573d6000803e3d6000fd5b505050506040513d601f19601f8201168201806040525081019061024b91906112b6565b116102715760405162461bcd60e51b8152600401610268906113b6565b60405180910390fd5b3360009081526003602052604090205460ff166102a05760405162461bcd60e51b815260040161026890611343565b336000908152600260205260408082208151606081019092528054829082906102c890611474565b80601f01602080910402602001604051908101604052809291908181526020018280546102f490611474565b80156103415780601f1061031657610100808354040283529160200191610341565b820191906000526020600020905b81548152906001019060200180831161032457829003601f168201915b5050505050815260200160018201805461035a90611474565b80601f016020809104026020016040519081016040528092919081815260200182805461038690611474565b80156103d35780601f106103a8576101008083540402835291602001916103d3565b820191906000526020600020905b8154815290600101906020018083116103b657829003601f168201915b505050918352505060029182015460ff1615156020918201526000604080850182905233825292825291909120825180519394508493919261041a928492909101906110ef565b50602082810151805161043392600185019201906110ef565b50604091909101516002909101805460ff191691151591909117905550565b6000546001600160a01b031633146104ac5760405162461bcd60e51b815260206004820181905260248201527f4f776e61626c653a2063616c6c6572206973206e6f7420746865206f776e65726044820152606401610268565b6104b66000610efc565b565b60408051808201909152606080825260208201526001546040516370a0823160e01b81523360048201526000916001600160a01b0316906370a082319060240160206040518083038186803b15801561051057600080fd5b505afa158015610524573d6000803e3d6000fd5b505050506040513d601f19601f8201168201806040525081019061054891906112b6565b116105655760405162461bcd60e51b8152600401610268906113b6565b3360009081526003602052604090205460ff166105945760405162461bcd60e51b815260040161026890611343565b336000908152600260208190526040909120015460ff16156106295760405162461bcd60e51b815260206004820152604260248201527f4f6e6c79204372617a792046757279204d617073206d656d626572206e696e6a60448201527f61206d6f6465206f66662063616e20706572666f726d2074686973206163746960648201526137b760f11b608482015260a401610268565b6000600260006004858154811061065057634e487b7160e01b600052603260045260246000fd5b60009182526020808320909101546001600160a01b03168352820192909252604090810190912081516060810190925280548290829061068f90611474565b80601f01602080910402602001604051908101604052809291908181526020018280546106bb90611474565b80156107085780601f106106dd57610100808354040283529160200191610708565b820191906000526020600020905b8154815290600101906020018083116106eb57829003601f168201915b5050505050815260200160018201805461072190611474565b80601f016020809104026020016040519081016040528092919081815260200182805461074d90611474565b801561079a5780601f1061076f5761010080835404028352916020019161079a565b820191906000526020600020905b81548152906001019060200180831161077d57829003601f168201915b50505091835250506002919091015460ff161515602090910152600154600480549293506000926001600160a01b03909216916370a082319190879081106107f257634e487b7160e01b600052603260045260246000fd5b60009182526020909120015460405160e083901b6001600160e01b03191681526001600160a01b03909116600482015260240160206040518083038186803b15801561083d57600080fd5b505afa158015610851573d6000803e3d6000fd5b505050506040513d601f19601f8201168201806040525081019061087591906112b6565b116108925760405162461bcd60e51b8152600401610268906113b6565b6040805180820182526060808252602082015290820151156108b75791506108d69050565b5060408051808201909152815181526020918201519181019190915290505b919050565b6001546040516370a0823160e01b81523360048201526000916001600160a01b0316906370a082319060240160206040518083038186803b15801561091f57600080fd5b505afa158015610933573d6000803e3d6000fd5b505050506040513d601f19601f8201168201806040525081019061095791906112b6565b116109745760405162461bcd60e51b8152600401610268906113b6565b61097e8282610f4c565b600080546040516001600160a01b0390911690660206697785a000908381818185875af1925050503d80600081146109d2576040519150601f19603f3d011682016040523d82523d6000602084013e6109d7565b606091505b5050905080610a285760405162461bcd60e51b815260206004820152601f60248201527f4661696c656420746f2073656e6420457468657220746f2061646472657373006044820152606401610268565b505050565b6001546040516370a0823160e01b81523360048201526000916001600160a01b0316906370a082319060240160206040518083038186803b158015610a7157600080fd5b505afa158015610a85573d6000803e3d6000fd5b505050506040513d601f19601f82011682018060405250810190610aa991906112b6565b11610ac65760405162461bcd60e51b8152600401610268906113b6565b3360009081526003602052604090205460ff16610af55760405162461bcd60e51b815260040161026890611343565b33600090815260026020526040808220815160608101909252805482908290610b1d90611474565b80601f0160208091040260200160405190810160405280929190818152602001828054610b4990611474565b8015610b965780601f10610b6b57610100808354040283529160200191610b96565b820191906000526020600020905b815481529060010190602001808311610b7957829003601f168201915b50505050508152602001600182018054610baf90611474565b80601f0160208091040260200160405190810160405280929190818152602001828054610bdb90611474565b8015610c285780601f10610bfd57610100808354040283529160200191610c28565b820191906000526020600020905b815481529060010190602001808311610c0b57829003601f168201915b505050918352505060029182015460ff1615156020918201526001604080850191909152336000908152928252909120825180519394508493919261041a928492909101906110ef565b6001546040516370a0823160e01b815233600482015260009182916001600160a01b03909116906370a082319060240160206040518083038186803b158015610cba57600080fd5b505afa158015610cce573d6000803e3d6000fd5b505050506040513d601f19601f82011682018060405250810190610cf291906112b6565b11610d0f5760405162461bcd60e51b8152600401610268906113b6565b3360009081526003602052604090205460ff16610d3e5760405162461bcd60e51b815260040161026890611343565b5060045490565b6000546001600160a01b03163314610d9f5760405162461bcd60e51b815260206004820181905260248201527f4f776e61626c653a2063616c6c6572206973206e6f7420746865206f776e65726044820152606401610268565b6001600160a01b038116610e045760405162461bcd60e51b815260206004820152602660248201527f4f776e61626c653a206e6577206f776e657220697320746865207a65726f206160448201526564647265737360d01b6064820152608401610268565b610e0d81610efc565b50565b6001546040516370a0823160e01b81523360048201526000916001600160a01b0316906370a082319060240160206040518083038186803b158015610e5457600080fd5b505afa158015610e68573d6000803e3d6000fd5b505050506040513d601f19601f82011682018060405250810190610e8c91906112b6565b11610ea95760405162461bcd60e51b8152600401610268906113b6565b610eb38282610f4c565b5050565b610eb38282604051602401610ecd929190611319565b60408051601f198184030181529190526020810180516001600160e01b031663319af33360e01b1790526110ce565b600080546001600160a01b038381166001600160a01b0319831681178455604051919092169283917f8be0079c531659141344cd1fd0a4f28419497f9722a3daafe3b4186f6b6457e09190a35050565b8151610f9a5760405162461bcd60e51b815260206004820152601c60248201527f446973636f72644e616d652063616e206e6f7420626520656d707479000000006044820152606401610268565b8051610fe85760405162461bcd60e51b815260206004820152601960248201527f4c6f636174696f6e2063616e206e6f7420626520656d707479000000000000006044820152606401610268565b60408051606081018252838152602080820184905260008284018190523381526002825292909220815180519293919261102592849201906110ef565b50602082810151805161103e92600185019201906110ef565b50604091820151600291909101805460ff19169115159190911790553360009081526003602052205460ff16610eb357336000818152600360205260408120805460ff191660019081179091556004805491820181559091527f8a35acfbc15ff81a39ae7d344fd709f28e8600b4aa8c65c6b64bfe7fe36bd19b0180546001600160a01b03191690911790555050565b80516a636f6e736f6c652e6c6f67602083016000808483855afa5050505050565b8280546110fb90611474565b90600052602060002090601f01602090048101928261111d5760008555611163565b82601f1061113657805160ff1916838001178555611163565b82800160010185558215611163579182015b82811115611163578251825591602001919060010190611148565b5061116f929150611173565b5090565b5b8082111561116f5760008155600101611174565b600082601f830112611198578081fd5b813567ffffffffffffffff808211156111b3576111b36114af565b604051601f8301601f19908116603f011681019082821181831017156111db576111db6114af565b816040528381528660208588010111156111f3578485fd5b8360208701602083013792830160200193909352509392505050565b600060208284031215611220578081fd5b81356001600160a01b0381168114611236578182fd5b9392505050565b6000806040838503121561124f578081fd5b823567ffffffffffffffff80821115611266578283fd5b61127286838701611188565b93506020850135915080821115611287578283fd5b5061129485828601611188565b9150509250929050565b6000602082840312156112af578081fd5b5035919050565b6000602082840312156112c7578081fd5b5051919050565b60008151808452815b818110156112f3576020818501810151868301820152016112d7565b818111156113045782602083870101525b50601f01601f19169290920160200192915050565b60408152600061132c60408301856112ce565b905060018060a01b03831660208301529392505050565b6020808252604d908201527f4f6e6c79204372617a792046757279204d617073206d656d6265722063616e2060408201527f706572666f726d207468697320616374696f6e212041646420796f757220706f60608201526c736974696f6e2066697273742160981b608082015260a00190565b60208082526056908201527f4865792042726f2c206f6e6c79204372617a7946757279206d656d626572732060408201527f63616e20757365207468697320736572766963652e20427579204372617a79466060820152753ab93c9027232a103a379033b2ba1030b1b1b2b9b99760511b608082015260a00190565b60208152600082516040602084015261144e60608401826112ce565b90506020840151601f1984830301604085015261146b82826112ce565b95945050505050565b600181811c9082168061148857607f821691505b602082108114156114a957634e487b7160e01b600052602260045260246000fd5b50919050565b634e487b7160e01b600052604160045260246000fdfea2646970667358221220cb7507c63e0cb7fb6c61f8436478920ba8b4c46f2c3b94da5471ab1fb7f5145564736f6c634300080400336c6f6164696e67204372617a79667572794d61707320736d61727420636f6e74726163742077697468204372617a794675727920636f6e74726163742061646472657373203a",
    "sourcePath": "c:/Devocracy/crazyfurymaps/contracts/CrazyFuryMaps.sol",
    "compiler": {
        "name": "solc",
        "version": "0.8.4+commit.c7e474f2"
    },
    "functionHashes": {
        "disableNinjaMode()": "07553e21",
        "enableNinjaMode()": "c92bd3a8",
        "get(uint256)": "9507d39a",
        "getCrazyFuryContractAddress()": "1a16a926",
        "getSize()": "de8fa431",
        "owner()": "8da5cb5b",
        "renounceOwnership()": "715018a6",
        "setLocation(string,string)": "fe586c9a",
        "setLocationWithACoffee(string,string)": "a2d33479",
        "transferOwnership(address)": "f2fde38b"
    },
    "gasEstimates": {
        "creation": {
            "codeDepositCost": "1074200",
            "executionCost": "infinite",
            "totalCost": "infinite"
        },
        "external": {
            "disableNinjaMode()": "infinite",
            "enableNinjaMode()": "infinite",
            "get(uint256)": "infinite",
            "getCrazyFuryContractAddress()": "1032",
            "getSize()": "infinite",
            "owner()": "1087",
            "renounceOwnership()": "23459",
            "setLocation(string,string)": "infinite",
            "setLocationWithACoffee(string,string)": "infinite",
            "transferOwnership(address)": "23640"
        },
        "internal": {
            "setLocationInternal(string memory,string memory)": "infinite"
        }
    }
}