{
    "contractName": "MyFakeCrazyFury",
    "abi": [
        {
            "inputs": [],
            "stateMutability": "nonpayable",
            "type": "constructor"
        },
        {
            "anonymous": false,
            "inputs": [
                {
                    "indexed": true,
                    "internalType": "address",
                    "name": "owner",
                    "type": "address"
                },
                {
                    "indexed": true,
                    "internalType": "address",
                    "name": "approved",
                    "type": "address"
                },
                {
                    "indexed": true,
                    "internalType": "uint256",
                    "name": "tokenId",
                    "type": "uint256"
                }
            ],
            "name": "Approval",
            "type": "event"
        },
        {
            "anonymous": false,
            "inputs": [
                {
                    "indexed": true,
                    "internalType": "address",
                    "name": "owner",
                    "type": "address"
                },
                {
                    "indexed": true,
                    "internalType": "address",
                    "name": "operator",
                    "type": "address"
                },
                {
                    "indexed": false,
                    "internalType": "bool",
                    "name": "approved",
                    "type": "bool"
                }
            ],
            "name": "ApprovalForAll",
            "type": "event"
        },
        {
            "anonymous": false,
            "inputs": [
                {
                    "indexed": true,
                    "internalType": "address",
                    "name": "from",
                    "type": "address"
                },
                {
                    "indexed": true,
                    "internalType": "address",
                    "name": "to",
                    "type": "address"
                },
                {
                    "indexed": true,
                    "internalType": "uint256",
                    "name": "tokenId",
                    "type": "uint256"
                }
            ],
            "name": "Transfer",
            "type": "event"
        },
        {
            "inputs": [
                {
                    "internalType": "address",
                    "name": "to",
                    "type": "address"
                },
                {
                    "internalType": "uint256",
                    "name": "tokenId",
                    "type": "uint256"
                }
            ],
            "name": "approve",
            "outputs": [],
            "stateMutability": "nonpayable",
            "type": "function"
        },
        {
            "inputs": [
                {
                    "internalType": "address",
                    "name": "_owner",
                    "type": "address"
                }
            ],
            "name": "balanceOf",
            "outputs": [
                {
                    "internalType": "uint256",
                    "name": "",
                    "type": "uint256"
                }
            ],
            "stateMutability": "pure",
            "type": "function"
        },
        {
            "inputs": [
                {
                    "internalType": "uint256",
                    "name": "tokenId",
                    "type": "uint256"
                }
            ],
            "name": "getApproved",
            "outputs": [
                {
                    "internalType": "address",
                    "name": "",
                    "type": "address"
                }
            ],
            "stateMutability": "view",
            "type": "function"
        },
        {
            "inputs": [
                {
                    "internalType": "address",
                    "name": "owner",
                    "type": "address"
                },
                {
                    "internalType": "address",
                    "name": "operator",
                    "type": "address"
                }
            ],
            "name": "isApprovedForAll",
            "outputs": [
                {
                    "internalType": "bool",
                    "name": "",
                    "type": "bool"
                }
            ],
            "stateMutability": "view",
            "type": "function"
        },
        {
            "inputs": [],
            "name": "name",
            "outputs": [
                {
                    "internalType": "string",
                    "name": "",
                    "type": "string"
                }
            ],
            "stateMutability": "view",
            "type": "function"
        },
        {
            "inputs": [
                {
                    "internalType": "uint256",
                    "name": "tokenId",
                    "type": "uint256"
                }
            ],
            "name": "ownerOf",
            "outputs": [
                {
                    "internalType": "address",
                    "name": "",
                    "type": "address"
                }
            ],
            "stateMutability": "view",
            "type": "function"
        },
        {
            "inputs": [
                {
                    "internalType": "address",
                    "name": "from",
                    "type": "address"
                },
                {
                    "internalType": "address",
                    "name": "to",
                    "type": "address"
                },
                {
                    "internalType": "uint256",
                    "name": "tokenId",
                    "type": "uint256"
                }
            ],
            "name": "safeTransferFrom",
            "outputs": [],
            "stateMutability": "nonpayable",
            "type": "function"
        },
        {
            "inputs": [
                {
                    "internalType": "address",
                    "name": "from",
                    "type": "address"
                },
                {
                    "internalType": "address",
                    "name": "to",
                    "type": "address"
                },
                {
                    "internalType": "uint256",
                    "name": "tokenId",
                    "type": "uint256"
                },
                {
                    "internalType": "bytes",
                    "name": "_data",
                    "type": "bytes"
                }
            ],
            "name": "safeTransferFrom",
            "outputs": [],
            "stateMutability": "nonpayable",
            "type": "function"
        },
        {
            "inputs": [
                {
                    "internalType": "address",
                    "name": "operator",
                    "type": "address"
                },
                {
                    "internalType": "bool",
                    "name": "approved",
                    "type": "bool"
                }
            ],
            "name": "setApprovalForAll",
            "outputs": [],
            "stateMutability": "nonpayable",
            "type": "function"
        },
        {
            "inputs": [
                {
                    "internalType": "address",
                    "name": "_userAddr",
                    "type": "address"
                }
            ],
            "name": "setUserAddr",
            "outputs": [],
            "stateMutability": "nonpayable",
            "type": "function"
        },
        {
            "inputs": [
                {
                    "internalType": "bytes4",
                    "name": "interfaceId",
                    "type": "bytes4"
                }
            ],
            "name": "supportsInterface",
            "outputs": [
                {
                    "internalType": "bool",
                    "name": "",
                    "type": "bool"
                }
            ],
            "stateMutability": "view",
            "type": "function"
        },
        {
            "inputs": [],
            "name": "symbol",
            "outputs": [
                {
                    "internalType": "string",
                    "name": "",
                    "type": "string"
                }
            ],
            "stateMutability": "view",
            "type": "function"
        },
        {
            "inputs": [
                {
                    "internalType": "uint256",
                    "name": "tokenId",
                    "type": "uint256"
                }
            ],
            "name": "tokenURI",
            "outputs": [
                {
                    "internalType": "string",
                    "name": "",
                    "type": "string"
                }
            ],
            "stateMutability": "view",
            "type": "function"
        },
        {
            "inputs": [
                {
                    "internalType": "address",
                    "name": "from",
                    "type": "address"
                },
                {
                    "internalType": "address",
                    "name": "to",
                    "type": "address"
                },
                {
                    "internalType": "uint256",
                    "name": "tokenId",
                    "type": "uint256"
                }
            ],
            "name": "transferFrom",
            "outputs": [],
            "stateMutability": "nonpayable",
            "type": "function"
        }
    ],
    "bytecode": "6080604052600680546001600160a01b0319167304047358179df7fe24e578219336212346df1c071790553480156200003757600080fd5b50604080518082018252600f81526e4d7946616b654372617a794675727960881b6020808301918252835180850190945260048452632325a1a360e11b9084015281519192916200008b91600091620000aa565b508051620000a1906001906020840190620000aa565b5050506200018d565b828054620000b89062000150565b90600052602060002090601f016020900481019282620000dc576000855562000127565b82601f10620000f757805160ff191683800117855562000127565b8280016001018555821562000127579182015b82811115620001275782518255916020019190600101906200010a565b506200013592915062000139565b5090565b5b808211156200013557600081556001016200013a565b600181811c908216806200016557607f821691505b602082108114156200018757634e487b7160e01b600052602260045260246000fd5b50919050565b61124c806200019d6000396000f3fe608060405234801561001057600080fd5b50600436106100ea5760003560e01c806370a082311161008c578063b88d4fde11610066578063b88d4fde146101e1578063b92c892f146101f4578063c87b56dd14610224578063e985e9c51461023757600080fd5b806370a08231146101a557806395d89b41146101c6578063a22cb465146101ce57600080fd5b8063095ea7b3116100c8578063095ea7b31461015757806323b872dd1461016c57806342842e0e1461017f5780636352211e1461019257600080fd5b806301ffc9a7146100ef57806306fdde0314610117578063081812fc1461012c575b600080fd5b6101026100fd366004610f44565b610273565b60405190151581526020015b60405180910390f35b61011f6102c5565b60405161010e919061102c565b61013f61013a366004610f7c565b610357565b6040516001600160a01b03909116815260200161010e565b61016a610165366004610f1b565b6103f1565b005b61016a61017a366004610dd1565b610507565b61016a61018d366004610dd1565b610538565b61013f6101a0366004610f7c565b610553565b6101b86101b3366004610d85565b6105ca565b60405190815260200161010e565b61011f610606565b61016a6101dc366004610ee1565b610615565b61016a6101ef366004610e0c565b610624565b61016a610202366004610d85565b600680546001600160a01b0319166001600160a01b0392909216919091179055565b61011f610232366004610f7c565b61065c565b610102610245366004610d9f565b6001600160a01b03918216600090815260056020908152604080832093909416825291909152205460ff1690565b60006001600160e01b031982166380ac58cd60e01b14806102a457506001600160e01b03198216635b5e139f60e01b145b806102bf57506301ffc9a760e01b6001600160e01b03198316145b92915050565b6060600080546102d490611151565b80601f016020809104026020016040519081016040528092919081815260200182805461030090611151565b801561034d5780601f106103225761010080835404028352916020019161034d565b820191906000526020600020905b81548152906001019060200180831161033057829003601f168201915b5050505050905090565b6000818152600260205260408120546001600160a01b03166103d55760405162461bcd60e51b815260206004820152602c60248201527f4552433732313a20617070726f76656420717565727920666f72206e6f6e657860448201526b34b9ba32b73a103a37b5b2b760a11b60648201526084015b60405180910390fd5b506000908152600460205260409020546001600160a01b031690565b60006103fc82610553565b9050806001600160a01b0316836001600160a01b0316141561046a5760405162461bcd60e51b815260206004820152602160248201527f4552433732313a20617070726f76616c20746f2063757272656e74206f776e656044820152603960f91b60648201526084016103cc565b336001600160a01b038216148061048657506104868133610245565b6104f85760405162461bcd60e51b815260206004820152603860248201527f4552433732313a20617070726f76652063616c6c6572206973206e6f74206f7760448201527f6e6572206e6f7220617070726f76656420666f7220616c6c000000000000000060648201526084016103cc565b6105028383610744565b505050565b61051133826107b2565b61052d5760405162461bcd60e51b81526004016103cc90611091565b6105028383836108a9565b61050283838360405180602001604052806000815250610624565b6000818152600260205260408120546001600160a01b0316806102bf5760405162461bcd60e51b815260206004820152602960248201527f4552433732313a206f776e657220717565727920666f72206e6f6e657869737460448201526832b73a103a37b5b2b760b91b60648201526084016103cc565b60006001600160a01b0382167304047358179df7fe24e578219336212346df1c0714156105f957506001919050565b506000919050565b919050565b6060600180546102d490611151565b610620338383610a45565b5050565b61062e33836107b2565b61064a5760405162461bcd60e51b81526004016103cc90611091565b61065684848484610b14565b50505050565b6000818152600260205260409020546060906001600160a01b03166106db5760405162461bcd60e51b815260206004820152602f60248201527f4552433732314d657461646174613a2055524920717565727920666f72206e6f60448201526e3732bc34b9ba32b73a103a37b5b2b760891b60648201526084016103cc565b60006106f260408051602081019091526000815290565b90506000815111610712576040518060200160405280600081525061073d565b8061071c84610b47565b60405160200161072d929190610fc0565b6040516020818303038152906040525b9392505050565b600081815260046020526040902080546001600160a01b0319166001600160a01b038416908117909155819061077982610553565b6001600160a01b03167f8c5be1e5ebec7d5bd14f71427d1e84f3dd0314c0f7b2291e5b200ac8c7c3b92560405160405180910390a45050565b6000818152600260205260408120546001600160a01b031661082b5760405162461bcd60e51b815260206004820152602c60248201527f4552433732313a206f70657261746f7220717565727920666f72206e6f6e657860448201526b34b9ba32b73a103a37b5b2b760a11b60648201526084016103cc565b600061083683610553565b9050806001600160a01b0316846001600160a01b0316148061087d57506001600160a01b0380821660009081526005602090815260408083209388168352929052205460ff165b806108a15750836001600160a01b031661089684610357565b6001600160a01b0316145b949350505050565b826001600160a01b03166108bc82610553565b6001600160a01b0316146109205760405162461bcd60e51b815260206004820152602560248201527f4552433732313a207472616e736665722066726f6d20696e636f72726563742060448201526437bbb732b960d91b60648201526084016103cc565b6001600160a01b0382166109825760405162461bcd60e51b8152602060048201526024808201527f4552433732313a207472616e7366657220746f20746865207a65726f206164646044820152637265737360e01b60648201526084016103cc565b61098d600082610744565b6001600160a01b03831660009081526003602052604081208054600192906109b690849061110e565b90915550506001600160a01b03821660009081526003602052604081208054600192906109e49084906110e2565b909155505060008181526002602052604080822080546001600160a01b0319166001600160a01b0386811691821790925591518493918716917fddf252ad1be2c89b69c2b068fc378daa952ba7f163c4a11628f55a4df523b3ef91a4505050565b816001600160a01b0316836001600160a01b03161415610aa75760405162461bcd60e51b815260206004820152601960248201527f4552433732313a20617070726f766520746f2063616c6c65720000000000000060448201526064016103cc565b6001600160a01b03838116600081815260056020908152604080832094871680845294825291829020805460ff191686151590811790915591519182527f17307eab39ab6107e8899845ad3d59bd9653f200f220920489ca2b5937696c31910160405180910390a3505050565b610b1f8484846108a9565b610b2b84848484610c61565b6106565760405162461bcd60e51b81526004016103cc9061103f565b606081610b6b5750506040805180820190915260018152600360fc1b602082015290565b8160005b8115610b955780610b7f8161118c565b9150610b8e9050600a836110fa565b9150610b6f565b60008167ffffffffffffffff811115610bbe57634e487b7160e01b600052604160045260246000fd5b6040519080825280601f01601f191660200182016040528015610be8576020820181803683370190505b5090505b84156108a157610bfd60018361110e565b9150610c0a600a866111a7565b610c159060306110e2565b60f81b818381518110610c3857634e487b7160e01b600052603260045260246000fd5b60200101906001600160f81b031916908160001a905350610c5a600a866110fa565b9450610bec565b60006001600160a01b0384163b15610d6357604051630a85bd0160e11b81526001600160a01b0385169063150b7a0290610ca5903390899088908890600401610fef565b602060405180830381600087803b158015610cbf57600080fd5b505af1925050508015610cef575060408051601f3d908101601f19168201909252610cec91810190610f60565b60015b610d49573d808015610d1d576040519150601f19603f3d011682016040523d82523d6000602084013e610d22565b606091505b508051610d415760405162461bcd60e51b81526004016103cc9061103f565b805181602001fd5b6001600160e01b031916630a85bd0160e11b1490506108a1565b506001949350505050565b80356001600160a01b038116811461060157600080fd5b600060208284031215610d96578081fd5b61073d82610d6e565b60008060408385031215610db1578081fd5b610dba83610d6e565b9150610dc860208401610d6e565b90509250929050565b600080600060608486031215610de5578081fd5b610dee84610d6e565b9250610dfc60208501610d6e565b9150604084013590509250925092565b60008060008060808587031215610e21578081fd5b610e2a85610d6e565b9350610e3860208601610d6e565b925060408501359150606085013567ffffffffffffffff80821115610e5b578283fd5b818701915087601f830112610e6e578283fd5b813581811115610e8057610e806111e7565b604051601f8201601f19908116603f01168101908382118183101715610ea857610ea86111e7565b816040528281528a6020848701011115610ec0578586fd5b82602086016020830137918201602001949094529598949750929550505050565b60008060408385031215610ef3578182fd5b610efc83610d6e565b915060208301358015158114610f10578182fd5b809150509250929050565b60008060408385031215610f2d578182fd5b610f3683610d6e565b946020939093013593505050565b600060208284031215610f55578081fd5b813561073d816111fd565b600060208284031215610f71578081fd5b815161073d816111fd565b600060208284031215610f8d578081fd5b5035919050565b60008151808452610fac816020860160208601611125565b601f01601f19169290920160200192915050565b60008351610fd2818460208801611125565b835190830190610fe6818360208801611125565b01949350505050565b6001600160a01b038581168252841660208201526040810183905260806060820181905260009061102290830184610f94565b9695505050505050565b60208152600061073d6020830184610f94565b60208082526032908201527f4552433732313a207472616e7366657220746f206e6f6e20455243373231526560408201527131b2b4bb32b91034b6b83632b6b2b73a32b960711b606082015260800190565b60208082526031908201527f4552433732313a207472616e736665722063616c6c6572206973206e6f74206f6040820152701ddb995c881b9bdc88185c1c1c9bdd9959607a1b606082015260800190565b600082198211156110f5576110f56111bb565b500190565b600082611109576111096111d1565b500490565b600082821015611120576111206111bb565b500390565b60005b83811015611140578181015183820152602001611128565b838111156106565750506000910152565b600181811c9082168061116557607f821691505b6020821081141561118657634e487b7160e01b600052602260045260246000fd5b50919050565b60006000198214156111a0576111a06111bb565b5060010190565b6000826111b6576111b66111d1565b500690565b634e487b7160e01b600052601160045260246000fd5b634e487b7160e01b600052601260045260246000fd5b634e487b7160e01b600052604160045260246000fd5b6001600160e01b03198116811461121357600080fd5b5056fea26469706673582212200a439274253607f8f0c6863170cdb2adb538cd650cdd379fdc018978c62b137664736f6c63430008040033",
    "sourcePath": "c:/Devocracy/crazyfurymaps/contracts/MyFakeCrazyFury.sol",
    "compiler": {
        "name": "solc",
        "version": "0.8.4+commit.c7e474f2"
    },
    "functionHashes": {
        "approve(address,uint256)": "095ea7b3",
        "balanceOf(address)": "70a08231",
        "getApproved(uint256)": "081812fc",
        "isApprovedForAll(address,address)": "e985e9c5",
        "name()": "06fdde03",
        "ownerOf(uint256)": "6352211e",
        "safeTransferFrom(address,address,uint256)": "42842e0e",
        "safeTransferFrom(address,address,uint256,bytes)": "b88d4fde",
        "setApprovalForAll(address,bool)": "a22cb465",
        "setUserAddr(address)": "b92c892f",
        "supportsInterface(bytes4)": "01ffc9a7",
        "symbol()": "95d89b41",
        "tokenURI(uint256)": "c87b56dd",
        "transferFrom(address,address,uint256)": "23b872dd"
    },
    "gasEstimates": {
        "creation": {
            "codeDepositCost": "936800",
            "executionCost": "infinite",
            "totalCost": "infinite"
        },
        "external": {
            "approve(address,uint256)": "infinite",
            "balanceOf(address)": "442",
            "getApproved(uint256)": "2160",
            "isApprovedForAll(address,address)": "infinite",
            "name()": "infinite",
            "ownerOf(uint256)": "1345",
            "safeTransferFrom(address,address,uint256)": "infinite",
            "safeTransferFrom(address,address,uint256,bytes)": "infinite",
            "setApprovalForAll(address,bool)": "23353",
            "setUserAddr(address)": "21203",
            "supportsInterface(bytes4)": "534",
            "symbol()": "infinite",
            "tokenURI(uint256)": "infinite",
            "transferFrom(address,address,uint256)": "infinite"
        }
    }
}