{
  "_format": "hh-sol-artifact-1",
  "contractName": "CrazyMap",
  "sourceName": "contracts/CrazyMap.sol",
  "abi": [
    {
      "anonymous": false,
      "inputs": [
        {
          "indexed": false,
          "internalType": "uint8",
          "name": "version",
          "type": "uint8"
        }
      ],
      "name": "Initialized",
      "type": "event"
    },
    {
      "anonymous": false,
      "inputs": [
        {
          "indexed": false,
          "internalType": "string",
          "name": "discordName",
          "type": "string"
        },
        {
          "indexed": false,
          "internalType": "string",
          "name": "geoHash",
          "type": "string"
        },
        {
          "indexed": false,
          "internalType": "address",
          "name": "cfMemberAdr",
          "type": "address"
        }
      ],
      "name": "LocationAdded",
      "type": "event"
    },
    {
      "anonymous": false,
      "inputs": [
        {
          "indexed": true,
          "internalType": "address",
          "name": "previousOwner",
          "type": "address"
        },
        {
          "indexed": true,
          "internalType": "address",
          "name": "newOwner",
          "type": "address"
        }
      ],
      "name": "OwnershipTransferred",
      "type": "event"
    },
    {
      "anonymous": false,
      "inputs": [
        {
          "indexed": false,
          "internalType": "address",
          "name": "account",
          "type": "address"
        }
      ],
      "name": "Paused",
      "type": "event"
    },
    {
      "anonymous": false,
      "inputs": [
        {
          "indexed": false,
          "internalType": "address",
          "name": "account",
          "type": "address"
        }
      ],
      "name": "Unpaused",
      "type": "event"
    },
    {
      "inputs": [],
      "name": "Pause",
      "outputs": [],
      "stateMutability": "nonpayable",
      "type": "function"
    },
    {
      "inputs": [],
      "name": "UnPause",
      "outputs": [],
      "stateMutability": "nonpayable",
      "type": "function"
    },
    {
      "inputs": [
        {
          "internalType": "string",
          "name": "discordName",
          "type": "string"
        },
        {
          "internalType": "string",
          "name": "geoHash",
          "type": "string"
        }
      ],
      "name": "editLocation",
      "outputs": [],
      "stateMutability": "nonpayable",
      "type": "function"
    },
    {
      "inputs": [
        {
          "internalType": "uint256",
          "name": "index",
          "type": "uint256"
        }
      ],
      "name": "get",
      "outputs": [
        {
          "components": [
            {
              "internalType": "string",
              "name": "discordName",
              "type": "string"
            },
            {
              "internalType": "string",
              "name": "geohash",
              "type": "string"
            },
            {
              "internalType": "address",
              "name": "cfMemberAdr",
              "type": "address"
            }
          ],
          "internalType": "struct CrazyMap.CFLocation",
          "name": "",
          "type": "tuple"
        }
      ],
      "stateMutability": "view",
      "type": "function"
    },
    {
      "inputs": [
        {
          "internalType": "address",
          "name": "cfAddress",
          "type": "address"
        }
      ],
      "name": "getByAddress",
      "outputs": [
        {
          "components": [
            {
              "internalType": "string",
              "name": "discordName",
              "type": "string"
            },
            {
              "internalType": "string",
              "name": "geohash",
              "type": "string"
            },
            {
              "internalType": "address",
              "name": "cfMemberAdr",
              "type": "address"
            }
          ],
          "internalType": "struct CrazyMap.CFLocation",
          "name": "",
          "type": "tuple"
        }
      ],
      "stateMutability": "view",
      "type": "function"
    },
    {
      "inputs": [],
      "name": "getCrazyFuryContractAddress",
      "outputs": [
        {
          "internalType": "address",
          "name": "",
          "type": "address"
        }
      ],
      "stateMutability": "view",
      "type": "function"
    },
    {
      "inputs": [],
      "name": "getSize",
      "outputs": [
        {
          "internalType": "uint256",
          "name": "",
          "type": "uint256"
        }
      ],
      "stateMutability": "view",
      "type": "function"
    },
    {
      "inputs": [
        {
          "internalType": "address",
          "name": "_cfContractAdr",
          "type": "address"
        }
      ],
      "name": "initialize",
      "outputs": [],
      "stateMutability": "nonpayable",
      "type": "function"
    },
    {
      "inputs": [],
      "name": "owner",
      "outputs": [
        {
          "internalType": "address",
          "name": "",
          "type": "address"
        }
      ],
      "stateMutability": "view",
      "type": "function"
    },
    {
      "inputs": [],
      "name": "paused",
      "outputs": [
        {
          "internalType": "bool",
          "name": "",
          "type": "bool"
        }
      ],
      "stateMutability": "view",
      "type": "function"
    },
    {
      "inputs": [
        {
          "internalType": "uint256",
          "name": "index",
          "type": "uint256"
        }
      ],
      "name": "removeMyLocation",
      "outputs": [],
      "stateMutability": "nonpayable",
      "type": "function"
    },
    {
      "inputs": [],
      "name": "renounceOwnership",
      "outputs": [],
      "stateMutability": "nonpayable",
      "type": "function"
    },
    {
      "inputs": [
        {
          "internalType": "address",
          "name": "_cfAddress",
          "type": "address"
        }
      ],
      "name": "setCrazyFuryContractAddress",
      "outputs": [],
      "stateMutability": "nonpayable",
      "type": "function"
    },
    {
      "inputs": [
        {
          "internalType": "string",
          "name": "discordName",
          "type": "string"
        },
        {
          "internalType": "string",
          "name": "geoHash",
          "type": "string"
        }
      ],
      "name": "setLocation",
      "outputs": [],
      "stateMutability": "payable",
      "type": "function"
    },
    {
      "inputs": [
        {
          "internalType": "address",
          "name": "newOwner",
          "type": "address"
        }
      ],
      "name": "transferOwnership",
      "outputs": [],
      "stateMutability": "nonpayable",
      "type": "function"
    }
  ],
  "bytecode": "0x608060405234801561001057600080fd5b50612fa8806100206000396000f3fe6080604052600436106100e85760003560e01c80639507d39a1161008a578063ee44246a11610059578063ee44246a146102aa578063f1add2d7146102d3578063f2fde38b146102fc578063fe586c9a14610325576100e8565b80639507d39a146101f0578063a1a691b01461022d578063c4d66de814610256578063de8fa4311461027f576100e8565b80635c975abb116100c65780635c975abb1461016c5780636985a02214610197578063715018a6146101ae5780638da5cb5b146101c5576100e8565b80631a16a926146100ed57806330257bf714610118578063438cd2d314610155575b600080fd5b3480156100f957600080fd5b50610102610341565b60405161010f9190611de7565b60405180910390f35b34801561012457600080fd5b5061013f600480360381019061013a9190611e42565b61036b565b60405161014c9190611f65565b60405180910390f35b34801561016157600080fd5b5061016a6104ff565b005b34801561017857600080fd5b50610181610511565b60405161018e9190611fa2565b60405180910390f35b3480156101a357600080fd5b506101ac610528565b005b3480156101ba57600080fd5b506101c361053a565b005b3480156101d157600080fd5b506101da61054e565b6040516101e79190611de7565b60405180910390f35b3480156101fc57600080fd5b5061021760048036038101906102129190611ff3565b610578565b6040516102249190611f65565b60405180910390f35b34801561023957600080fd5b50610254600480360381019061024f9190611e42565b6107a4565b005b34801561026257600080fd5b5061027d60048036038101906102789190611e42565b61085f565b005b34801561028b57600080fd5b506102946109f5565b6040516102a1919061202f565b60405180910390f35b3480156102b657600080fd5b506102d160048036038101906102cc9190611ff3565b610b6b565b005b3480156102df57600080fd5b506102fa60048036038101906102f5919061217f565b610f07565b005b34801561030857600080fd5b50610323600480360381019061031e9190611e42565b611087565b005b61033f600480360381019061033a919061217f565b61110a565b005b6000609760009054906101000a900473ffffffffffffffffffffffffffffffffffffffff16905090565b610373611d12565b6000609760009054906101000a900473ffffffffffffffffffffffffffffffffffffffff1673ffffffffffffffffffffffffffffffffffffffff166370a08231336040518263ffffffff1660e01b81526004016103d09190611de7565b602060405180830381865afa1580156103ed573d6000803e3d6000fd5b505050506040513d601f19601f82011682018060405250810190610411919061220c565b11610451576040517f08c379a0000000000000000000000000000000000000000000000000000000008152600401610448906122e2565b60405180910390fd5b609a60003373ffffffffffffffffffffffffffffffffffffffff1673ffffffffffffffffffffffffffffffffffffffff16815260200190815260200160002060009054906101000a900460ff166104dd576040517f08c379a00000000000000000000000000000000000000000000000000000000081526004016104d49061239a565b60405180910390fd5b6104e6826112c0565b6104ef826113a1565b6104f882611430565b9050919050565b610507611609565b61050f611687565b565b6000606560009054906101000a900460ff16905090565b610530611609565b6105386116ea565b565b610542611609565b61054c600061174d565b565b6000603360009054906101000a900473ffffffffffffffffffffffffffffffffffffffff16905090565b610580611d12565b6000609760009054906101000a900473ffffffffffffffffffffffffffffffffffffffff1673ffffffffffffffffffffffffffffffffffffffff166370a08231336040518263ffffffff1660e01b81526004016105dd9190611de7565b602060405180830381865afa1580156105fa573d6000803e3d6000fd5b505050506040513d601f19601f8201168201806040525081019061061e919061220c565b1161065e576040517f08c379a0000000000000000000000000000000000000000000000000000000008152600401610655906122e2565b60405180910390fd5b609a60003373ffffffffffffffffffffffffffffffffffffffff1673ffffffffffffffffffffffffffffffffffffffff16815260200190815260200160002060009054906101000a900460ff166106ea576040517f08c379a00000000000000000000000000000000000000000000000000000000081526004016106e19061239a565b60405180910390fd5b609b80549050821080156106ff575060008210155b61073e576040517f08c379a000000000000000000000000000000000000000000000000000000000815260040161073590612406565b60405180910390fd5b6000609b838154811061075457610753612426565b5b9060005260206000200160009054906101000a900473ffffffffffffffffffffffffffffffffffffffff16905061078a816112c0565b610793816113a1565b61079c81611430565b915050919050565b6107ac611609565b600073ffffffffffffffffffffffffffffffffffffffff168173ffffffffffffffffffffffffffffffffffffffff160361081b576040517f08c379a0000000000000000000000000000000000000000000000000000000008152600401610812906124a1565b60405180910390fd5b80609760006101000a81548173ffffffffffffffffffffffffffffffffffffffff021916908373ffffffffffffffffffffffffffffffffffffffff16021790555050565b60008060019054906101000a900460ff161590508080156108905750600160008054906101000a900460ff1660ff16105b806108bd575061089f30611813565b1580156108bc5750600160008054906101000a900460ff1660ff16145b5b6108fc576040517f08c379a00000000000000000000000000000000000000000000000000000000081526004016108f390612533565b60405180910390fd5b60016000806101000a81548160ff021916908360ff1602179055508015610939576001600060016101000a81548160ff0219169083151502179055505b610941611836565b61094961188f565b81609760006101000a81548173ffffffffffffffffffffffffffffffffffffffff021916908373ffffffffffffffffffffffffffffffffffffffff16021790555066038d7ea4c6800060988190555080156109f15760008060016101000a81548160ff0219169083151502179055507f7f26b83ff96e1f2b6a682f133852f6798a09c465da95921460cefb384740249860016040516109e891906125a5565b60405180910390a15b5050565b600080609760009054906101000a900473ffffffffffffffffffffffffffffffffffffffff1673ffffffffffffffffffffffffffffffffffffffff166370a08231336040518263ffffffff1660e01b8152600401610a539190611de7565b602060405180830381865afa158015610a70573d6000803e3d6000fd5b505050506040513d601f19601f82011682018060405250810190610a94919061220c565b11610ad4576040517f08c379a0000000000000000000000000000000000000000000000000000000008152600401610acb906122e2565b60405180910390fd5b609a60003373ffffffffffffffffffffffffffffffffffffffff1673ffffffffffffffffffffffffffffffffffffffff16815260200190815260200160002060009054906101000a900460ff16610b60576040517f08c379a0000000000000000000000000000000000000000000000000000000008152600401610b579061239a565b60405180910390fd5b609b80549050905090565b610b736118e8565b609a60003373ffffffffffffffffffffffffffffffffffffffff1673ffffffffffffffffffffffffffffffffffffffff16815260200190815260200160002060009054906101000a900460ff16610bff576040517f08c379a0000000000000000000000000000000000000000000000000000000008152600401610bf69061239a565b60405180910390fd5b609b805490508110610c46576040517f08c379a0000000000000000000000000000000000000000000000000000000008152600401610c3d90612406565b60405180910390fd5b6000609b8281548110610c5c57610c5b612426565b5b9060005260206000200160009054906101000a900473ffffffffffffffffffffffffffffffffffffffff1690503373ffffffffffffffffffffffffffffffffffffffff168173ffffffffffffffffffffffffffffffffffffffff1614610cf7576040517f08c379a0000000000000000000000000000000000000000000000000000000008152600401610cee90612632565b60405180910390fd5b609960003373ffffffffffffffffffffffffffffffffffffffff1673ffffffffffffffffffffffffffffffffffffffff16815260200190815260200160002060008082016000610d479190611d49565b600182016000610d579190611d49565b6002820160006101000a81549073ffffffffffffffffffffffffffffffffffffffff02191690555050609a60003373ffffffffffffffffffffffffffffffffffffffff1673ffffffffffffffffffffffffffffffffffffffff16815260200190815260200160002060006101000a81549060ff0219169055609b8281548110610de357610de2612426565b5b9060005260206000200160006101000a81549073ffffffffffffffffffffffffffffffffffffffff0219169055609b6001609b80549050610e249190612681565b81548110610e3557610e34612426565b5b9060005260206000200160009054906101000a900473ffffffffffffffffffffffffffffffffffffffff16609b8381548110610e7457610e73612426565b5b9060005260206000200160006101000a81548173ffffffffffffffffffffffffffffffffffffffff021916908373ffffffffffffffffffffffffffffffffffffffff160217905550609b805480610ece57610ecd6126b5565b5b6001900381819060005260206000200160006101000a81549073ffffffffffffffffffffffffffffffffffffffff021916905590555050565b610f0f6118e8565b6000609760009054906101000a900473ffffffffffffffffffffffffffffffffffffffff1673ffffffffffffffffffffffffffffffffffffffff166370a08231336040518263ffffffff1660e01b8152600401610f6c9190611de7565b602060405180830381865afa158015610f89573d6000803e3d6000fd5b505050506040513d601f19601f82011682018060405250810190610fad919061220c565b11610fed576040517f08c379a0000000000000000000000000000000000000000000000000000000008152600401610fe4906122e2565b60405180910390fd5b609a60003373ffffffffffffffffffffffffffffffffffffffff1673ffffffffffffffffffffffffffffffffffffffff16815260200190815260200160002060009054906101000a900460ff16611079576040517f08c379a00000000000000000000000000000000000000000000000000000000081526004016110709061239a565b60405180910390fd5b6110838282611932565b5050565b61108f611609565b600073ffffffffffffffffffffffffffffffffffffffff168173ffffffffffffffffffffffffffffffffffffffff16036110fe576040517f08c379a00000000000000000000000000000000000000000000000000000000081526004016110f590612756565b60405180910390fd5b6111078161174d565b50565b6111126118e8565b6000609760009054906101000a900473ffffffffffffffffffffffffffffffffffffffff1673ffffffffffffffffffffffffffffffffffffffff166370a08231336040518263ffffffff1660e01b815260040161116f9190611de7565b602060405180830381865afa15801561118c573d6000803e3d6000fd5b505050506040513d601f19601f820116820180604052508101906111b0919061220c565b116111f0576040517f08c379a00000000000000000000000000000000000000000000000000000000081526004016111e7906122e2565b60405180910390fd5b6098543411611234576040517f08c379a000000000000000000000000000000000000000000000000000000000815260040161122b906127e8565b60405180910390fd5b61123e8282611932565b600061124861054e565b73ffffffffffffffffffffffffffffffffffffffff163460405161126b90612839565b60006040518083038185875af1925050503d80600081146112a8576040519150601f19603f3d011682016040523d82523d6000602084013e6112ad565b606091505b50509050806112bb57600080fd5b505050565b6000609760009054906101000a900473ffffffffffffffffffffffffffffffffffffffff1673ffffffffffffffffffffffffffffffffffffffff166370a08231836040518263ffffffff1660e01b815260040161131d9190611de7565b602060405180830381865afa15801561133a573d6000803e3d6000fd5b505050506040513d601f19601f8201168201806040525081019061135e919061220c565b1161139e576040517f08c379a0000000000000000000000000000000000000000000000000000000008152600401611395906128c0565b60405180910390fd5b50565b609a60008273ffffffffffffffffffffffffffffffffffffffff1673ffffffffffffffffffffffffffffffffffffffff16815260200190815260200160002060009054906101000a900460ff1661142d576040517f08c379a000000000000000000000000000000000000000000000000000000000815260040161142490612952565b60405180910390fd5b50565b611438611d12565b6000609960008473ffffffffffffffffffffffffffffffffffffffff1673ffffffffffffffffffffffffffffffffffffffff168152602001908152602001600020604051806060016040529081600082018054611494906129a1565b80601f01602080910402602001604051908101604052809291908181526020018280546114c0906129a1565b801561150d5780601f106114e25761010080835404028352916020019161150d565b820191906000526020600020905b8154815290600101906020018083116114f057829003601f168201915b50505050508152602001600182018054611526906129a1565b80601f0160208091040260200160405190810160405280929190818152602001828054611552906129a1565b801561159f5780601f106115745761010080835404028352916020019161159f565b820191906000526020600020905b81548152906001019060200180831161158257829003601f168201915b505050505081526020016002820160009054906101000a900473ffffffffffffffffffffffffffffffffffffffff1673ffffffffffffffffffffffffffffffffffffffff1673ffffffffffffffffffffffffffffffffffffffff1681525050905080915050919050565b611611611bf4565b73ffffffffffffffffffffffffffffffffffffffff1661162f61054e565b73ffffffffffffffffffffffffffffffffffffffff1614611685576040517f08c379a000000000000000000000000000000000000000000000000000000000815260040161167c90612a1e565b60405180910390fd5b565b61168f611bfc565b6000606560006101000a81548160ff0219169083151502179055507f5db9ee0a495bf2e6ff9c91a7834c1ba4fdd244a5e8aa4e537bd38aeae4b073aa6116d3611bf4565b6040516116e09190611de7565b60405180910390a1565b6116f26118e8565b6001606560006101000a81548160ff0219169083151502179055507f62e78cea01bee320cd4e420270b5ea74000d11b0c9f74754ebdbfc544b05a258611736611bf4565b6040516117439190611de7565b60405180910390a1565b6000603360009054906101000a900473ffffffffffffffffffffffffffffffffffffffff16905081603360006101000a81548173ffffffffffffffffffffffffffffffffffffffff021916908373ffffffffffffffffffffffffffffffffffffffff1602179055508173ffffffffffffffffffffffffffffffffffffffff168173ffffffffffffffffffffffffffffffffffffffff167f8be0079c531659141344cd1fd0a4f28419497f9722a3daafe3b4186f6b6457e060405160405180910390a35050565b6000808273ffffffffffffffffffffffffffffffffffffffff163b119050919050565b600060019054906101000a900460ff16611885576040517f08c379a000000000000000000000000000000000000000000000000000000000815260040161187c90612ab0565b60405180910390fd5b61188d611c45565b565b600060019054906101000a900460ff166118de576040517f08c379a00000000000000000000000000000000000000000000000000000000081526004016118d590612ab0565b60405180910390fd5b6118e6611ca6565b565b6118f0610511565b15611930576040517f08c379a000000000000000000000000000000000000000000000000000000000815260040161192790612b1c565b60405180910390fd5b565b61193a6118e8565b600082510361197e576040517f08c379a000000000000000000000000000000000000000000000000000000000815260040161197590612b88565b60405180910390fd5b60008151036119c2576040517f08c379a00000000000000000000000000000000000000000000000000000000081526004016119b990612bf4565b60405180910390fd5b60405180606001604052808381526020018281526020013373ffffffffffffffffffffffffffffffffffffffff16815250609960003373ffffffffffffffffffffffffffffffffffffffff1673ffffffffffffffffffffffffffffffffffffffff1681526020019081526020016000206000820151816000019081611a479190612db6565b506020820151816001019081611a5d9190612db6565b5060408201518160020160006101000a81548173ffffffffffffffffffffffffffffffffffffffff021916908373ffffffffffffffffffffffffffffffffffffffff160217905550905050609a60003373ffffffffffffffffffffffffffffffffffffffff1673ffffffffffffffffffffffffffffffffffffffff16815260200190815260200160002060009054906101000a900460ff16611bb5576001609a60003373ffffffffffffffffffffffffffffffffffffffff1673ffffffffffffffffffffffffffffffffffffffff16815260200190815260200160002060006101000a81548160ff021916908315150217905550609b339080600181540180825580915050600190039060005260206000200160009091909190916101000a81548173ffffffffffffffffffffffffffffffffffffffff021916908373ffffffffffffffffffffffffffffffffffffffff1602179055505b7f8a931f452ff55f84be4a80c10aabdfd2be8f4a2db550a3b4eb473bfced28687b828233604051611be893929190612ec1565b60405180910390a15050565b600033905090565b611c04610511565b611c43576040517f08c379a0000000000000000000000000000000000000000000000000000000008152600401611c3a90612f52565b60405180910390fd5b565b600060019054906101000a900460ff16611c94576040517f08c379a0000000000000000000000000000000000000000000000000000000008152600401611c8b90612ab0565b60405180910390fd5b611ca4611c9f611bf4565b61174d565b565b600060019054906101000a900460ff16611cf5576040517f08c379a0000000000000000000000000000000000000000000000000000000008152600401611cec90612ab0565b60405180910390fd5b6000606560006101000a81548160ff021916908315150217905550565b60405180606001604052806060815260200160608152602001600073ffffffffffffffffffffffffffffffffffffffff1681525090565b508054611d55906129a1565b6000825580601f10611d675750611d86565b601f016020900490600052602060002090810190611d859190611d89565b5b50565b5b80821115611da2576000816000905550600101611d8a565b5090565b600073ffffffffffffffffffffffffffffffffffffffff82169050919050565b6000611dd182611da6565b9050919050565b611de181611dc6565b82525050565b6000602082019050611dfc6000830184611dd8565b92915050565b6000604051905090565b600080fd5b600080fd5b611e1f81611dc6565b8114611e2a57600080fd5b50565b600081359050611e3c81611e16565b92915050565b600060208284031215611e5857611e57611e0c565b5b6000611e6684828501611e2d565b91505092915050565b600081519050919050565b600082825260208201905092915050565b60005b83811015611ea9578082015181840152602081019050611e8e565b60008484015250505050565b6000601f19601f8301169050919050565b6000611ed182611e6f565b611edb8185611e7a565b9350611eeb818560208601611e8b565b611ef481611eb5565b840191505092915050565b611f0881611dc6565b82525050565b60006060830160008301518482036000860152611f2b8282611ec6565b91505060208301518482036020860152611f458282611ec6565b9150506040830151611f5a6040860182611eff565b508091505092915050565b60006020820190508181036000830152611f7f8184611f0e565b905092915050565b60008115159050919050565b611f9c81611f87565b82525050565b6000602082019050611fb76000830184611f93565b92915050565b6000819050919050565b611fd081611fbd565b8114611fdb57600080fd5b50565b600081359050611fed81611fc7565b92915050565b60006020828403121561200957612008611e0c565b5b600061201784828501611fde565b91505092915050565b61202981611fbd565b82525050565b60006020820190506120446000830184612020565b92915050565b600080fd5b600080fd5b7f4e487b7100000000000000000000000000000000000000000000000000000000600052604160045260246000fd5b61208c82611eb5565b810181811067ffffffffffffffff821117156120ab576120aa612054565b5b80604052505050565b60006120be611e02565b90506120ca8282612083565b919050565b600067ffffffffffffffff8211156120ea576120e9612054565b5b6120f382611eb5565b9050602081019050919050565b82818337600083830152505050565b600061212261211d846120cf565b6120b4565b90508281526020810184848401111561213e5761213d61204f565b5b612149848285612100565b509392505050565b600082601f8301126121665761216561204a565b5b813561217684826020860161210f565b91505092915050565b6000806040838503121561219657612195611e0c565b5b600083013567ffffffffffffffff8111156121b4576121b3611e11565b5b6121c085828601612151565b925050602083013567ffffffffffffffff8111156121e1576121e0611e11565b5b6121ed85828601612151565b9150509250929050565b60008151905061220681611fc7565b92915050565b60006020828403121561222257612221611e0c565b5b6000612230848285016121f7565b91505092915050565b600082825260208201905092915050565b7f4865792042726f2c206f6e6c79204372617a7946757279206d656d626572732060008201527f63616e20757365207468697320736572766963652e20427579204372617a794660208201527f757279204e465420746f20676574206163636573732e00000000000000000000604082015250565b60006122cc605683612239565b91506122d78261224a565b606082019050919050565b600060208201905081810360008301526122fb816122bf565b9050919050565b7f4f6e6c79204372617a792046757279204d617073206d656d6265722063616e2060008201527f706572666f726d207468697320616374696f6e212041646420796f757220706f60208201527f736974696f6e2066697273742100000000000000000000000000000000000000604082015250565b6000612384604d83612239565b915061238f82612302565b606082019050919050565b600060208201905081810360008301526123b381612377565b9050919050565b7f496e646578206f7574206f6620626f756e647300000000000000000000000000600082015250565b60006123f0601383612239565b91506123fb826123ba565b602082019050919050565b6000602082019050818103600083015261241f816123e3565b9050919050565b7f4e487b7100000000000000000000000000000000000000000000000000000000600052603260045260246000fd5b7f416464726573732063616e6e6f7420626520656d707479000000000000000000600082015250565b600061248b601783612239565b915061249682612455565b602082019050919050565b600060208201905081810360008301526124ba8161247e565b9050919050565b7f496e697469616c697a61626c653a20636f6e747261637420697320616c72656160008201527f647920696e697469616c697a6564000000000000000000000000000000000000602082015250565b600061251d602e83612239565b9150612528826124c1565b604082019050919050565b6000602082019050818103600083015261254c81612510565b9050919050565b6000819050919050565b600060ff82169050919050565b6000819050919050565b600061258f61258a61258584612553565b61256a565b61255d565b9050919050565b61259f81612574565b82525050565b60006020820190506125ba6000830184612596565b92915050565b7f596f7520617265206e6f7420746865206f776e6572206f662074686973206c6f60008201527f636174696f6e0000000000000000000000000000000000000000000000000000602082015250565b600061261c602683612239565b9150612627826125c0565b604082019050919050565b6000602082019050818103600083015261264b8161260f565b9050919050565b7f4e487b7100000000000000000000000000000000000000000000000000000000600052601160045260246000fd5b600061268c82611fbd565b915061269783611fbd565b92508282039050818111156126af576126ae612652565b5b92915050565b7f4e487b7100000000000000000000000000000000000000000000000000000000600052603160045260246000fd5b7f4f776e61626c653a206e6577206f776e657220697320746865207a65726f206160008201527f6464726573730000000000000000000000000000000000000000000000000000602082015250565b6000612740602683612239565b915061274b826126e4565b604082019050919050565b6000602082019050818103600083015261276f81612733565b9050919050565b7f4865792062726f2c206174206c65617374206f6e6520636f666665652069732060008201527f617070726563696174656421203a292000000000000000000000000000000000602082015250565b60006127d2603083612239565b91506127dd82612776565b604082019050919050565b60006020820190508181036000830152612801816127c5565b9050919050565b600081905092915050565b50565b6000612823600083612808565b915061282e82612813565b600082019050919050565b600061284482612816565b9150819050919050565b7f546865206d656d626572206973206e6f206c6f6e6765722061206372617a792060008201527f66757279206f776e657200000000000000000000000000000000000000000000602082015250565b60006128aa602a83612239565b91506128b58261284e565b604082019050919050565b600060208201905081810360008301526128d98161289d565b9050919050565b7f4372617a792046757279204d617073206d656d62657220646f65736e2774206560008201527f7869737400000000000000000000000000000000000000000000000000000000602082015250565b600061293c602483612239565b9150612947826128e0565b604082019050919050565b6000602082019050818103600083015261296b8161292f565b9050919050565b7f4e487b7100000000000000000000000000000000000000000000000000000000600052602260045260246000fd5b600060028204905060018216806129b957607f821691505b6020821081036129cc576129cb612972565b5b50919050565b7f4f776e61626c653a2063616c6c6572206973206e6f7420746865206f776e6572600082015250565b6000612a08602083612239565b9150612a13826129d2565b602082019050919050565b60006020820190508181036000830152612a37816129fb565b9050919050565b7f496e697469616c697a61626c653a20636f6e7472616374206973206e6f74206960008201527f6e697469616c697a696e67000000000000000000000000000000000000000000602082015250565b6000612a9a602b83612239565b9150612aa582612a3e565b604082019050919050565b60006020820190508181036000830152612ac981612a8d565b9050919050565b7f5061757361626c653a2070617573656400000000000000000000000000000000600082015250565b6000612b06601083612239565b9150612b1182612ad0565b602082019050919050565b60006020820190508181036000830152612b3581612af9565b9050919050565b7f446973636f72644e616d652063616e206e6f7420626520656d70747900000000600082015250565b6000612b72601c83612239565b9150612b7d82612b3c565b602082019050919050565b60006020820190508181036000830152612ba181612b65565b9050919050565b7f4c6f636174696f6e2063616e206e6f7420626520656d70747900000000000000600082015250565b6000612bde601983612239565b9150612be982612ba8565b602082019050919050565b60006020820190508181036000830152612c0d81612bd1565b9050919050565b60008190508160005260206000209050919050565b60006020601f8301049050919050565b600082821b905092915050565b600060088302612c767fffffffffffffffffffffffffffffffffffffffffffffffffffffffffffffffff82612c39565b612c808683612c39565b95508019841693508086168417925050509392505050565b6000612cb3612cae612ca984611fbd565b61256a565b611fbd565b9050919050565b6000819050919050565b612ccd83612c98565b612ce1612cd982612cba565b848454612c46565b825550505050565b600090565b612cf6612ce9565b612d01818484612cc4565b505050565b5b81811015612d2557612d1a600082612cee565b600181019050612d07565b5050565b601f821115612d6a57612d3b81612c14565b612d4484612c29565b81016020851015612d53578190505b612d67612d5f85612c29565b830182612d06565b50505b505050565b600082821c905092915050565b6000612d8d60001984600802612d6f565b1980831691505092915050565b6000612da68383612d7c565b9150826002028217905092915050565b612dbf82611e6f565b67ffffffffffffffff811115612dd857612dd7612054565b5b612de282546129a1565b612ded828285612d29565b600060209050601f831160018114612e205760008415612e0e578287015190505b612e188582612d9a565b865550612e80565b601f198416612e2e86612c14565b60005b82811015612e5657848901518255600182019150602085019450602081019050612e31565b86831015612e735784890151612e6f601f891682612d7c565b8355505b6001600288020188555050505b505050505050565b6000612e9382611e6f565b612e9d8185612239565b9350612ead818560208601611e8b565b612eb681611eb5565b840191505092915050565b60006060820190508181036000830152612edb8186612e88565b90508181036020830152612eef8185612e88565b9050612efe6040830184611dd8565b949350505050565b7f5061757361626c653a206e6f7420706175736564000000000000000000000000600082015250565b6000612f3c601483612239565b9150612f4782612f06565b602082019050919050565b60006020820190508181036000830152612f6b81612f2f565b905091905056fea26469706673582212208d1389c26e6bb6d17e58a42eabba80cb0b26b41e69611b755d16ef8c3b359f0e64736f6c63430008110033",
  "linkReferences": {},
  "deployedLinkReferences": {}
}