{
  "_format": "hh-sol-artifact-1",
  "contractName": "CrazyMap",
  "sourceName": "contracts/CrazyMap.sol",
  "abi": [
    {
      "anonymous": false,
      "inputs": [
        {
          "indexed": false,
          "internalType": "uint8",
          "name": "version",
          "type": "uint8"
        }
      ],
      "name": "Initialized",
      "type": "event"
    },
    {
      "anonymous": false,
      "inputs": [
        {
          "indexed": false,
          "internalType": "string",
          "name": "discordName",
          "type": "string"
        },
        {
          "indexed": false,
          "internalType": "string",
          "name": "geoHash",
          "type": "string"
        },
        {
          "indexed": false,
          "internalType": "address",
          "name": "cfMemberAdr",
          "type": "address"
        }
      ],
      "name": "LocationAdded",
      "type": "event"
    },
    {
      "anonymous": false,
      "inputs": [
        {
          "indexed": true,
          "internalType": "address",
          "name": "previousOwner",
          "type": "address"
        },
        {
          "indexed": true,
          "internalType": "address",
          "name": "newOwner",
          "type": "address"
        }
      ],
      "name": "OwnershipTransferred",
      "type": "event"
    },
    {
      "anonymous": false,
      "inputs": [
        {
          "indexed": false,
          "internalType": "address",
          "name": "account",
          "type": "address"
        }
      ],
      "name": "Paused",
      "type": "event"
    },
    {
      "anonymous": false,
      "inputs": [
        {
          "indexed": false,
          "internalType": "address",
          "name": "account",
          "type": "address"
        }
      ],
      "name": "Unpaused",
      "type": "event"
    },
    {
      "inputs": [],
      "name": "Pause",
      "outputs": [],
      "stateMutability": "nonpayable",
      "type": "function"
    },
    {
      "inputs": [],
      "name": "UnPause",
      "outputs": [],
      "stateMutability": "nonpayable",
      "type": "function"
    },
    {
      "inputs": [
        {
          "internalType": "string",
          "name": "discordName",
          "type": "string"
        },
        {
          "internalType": "string",
          "name": "geoHash",
          "type": "string"
        }
      ],
      "name": "editLocation",
      "outputs": [],
      "stateMutability": "nonpayable",
      "type": "function"
    },
    {
      "inputs": [
        {
          "internalType": "uint256",
          "name": "index",
          "type": "uint256"
        }
      ],
      "name": "get",
      "outputs": [
        {
          "components": [
            {
              "internalType": "string",
              "name": "discordName",
              "type": "string"
            },
            {
              "internalType": "string",
              "name": "geohash",
              "type": "string"
            },
            {
              "internalType": "address",
              "name": "cfMemberAdr",
              "type": "address"
            }
          ],
          "internalType": "struct CrazyMap.CFLocation",
          "name": "",
          "type": "tuple"
        }
      ],
      "stateMutability": "view",
      "type": "function"
    },
    {
      "inputs": [
        {
          "internalType": "address",
          "name": "cfAddress",
          "type": "address"
        }
      ],
      "name": "getByAddress",
      "outputs": [
        {
          "components": [
            {
              "internalType": "string",
              "name": "discordName",
              "type": "string"
            },
            {
              "internalType": "string",
              "name": "geohash",
              "type": "string"
            },
            {
              "internalType": "address",
              "name": "cfMemberAdr",
              "type": "address"
            }
          ],
          "internalType": "struct CrazyMap.CFLocation",
          "name": "",
          "type": "tuple"
        }
      ],
      "stateMutability": "view",
      "type": "function"
    },
    {
      "inputs": [],
      "name": "getCrazyFuryContractAddress",
      "outputs": [
        {
          "internalType": "address",
          "name": "",
          "type": "address"
        }
      ],
      "stateMutability": "view",
      "type": "function"
    },
    {
      "inputs": [],
      "name": "getSize",
      "outputs": [
        {
          "internalType": "uint256",
          "name": "",
          "type": "uint256"
        }
      ],
      "stateMutability": "view",
      "type": "function"
    },
    {
      "inputs": [
        {
          "internalType": "address",
          "name": "_cfContractAdr",
          "type": "address"
        }
      ],
      "name": "initialize",
      "outputs": [],
      "stateMutability": "nonpayable",
      "type": "function"
    },
    {
      "inputs": [],
      "name": "minCrazyMapFee",
      "outputs": [
        {
          "internalType": "uint256",
          "name": "",
          "type": "uint256"
        }
      ],
      "stateMutability": "view",
      "type": "function"
    },
    {
      "inputs": [],
      "name": "owner",
      "outputs": [
        {
          "internalType": "address",
          "name": "",
          "type": "address"
        }
      ],
      "stateMutability": "view",
      "type": "function"
    },
    {
      "inputs": [],
      "name": "paused",
      "outputs": [
        {
          "internalType": "bool",
          "name": "",
          "type": "bool"
        }
      ],
      "stateMutability": "view",
      "type": "function"
    },
    {
      "inputs": [
        {
          "internalType": "uint256",
          "name": "index",
          "type": "uint256"
        }
      ],
      "name": "removeMyLocation",
      "outputs": [],
      "stateMutability": "nonpayable",
      "type": "function"
    },
    {
      "inputs": [],
      "name": "renounceOwnership",
      "outputs": [],
      "stateMutability": "nonpayable",
      "type": "function"
    },
    {
      "inputs": [
        {
          "internalType": "address",
          "name": "_cfAddress",
          "type": "address"
        }
      ],
      "name": "setCrazyFuryContractAddress",
      "outputs": [],
      "stateMutability": "nonpayable",
      "type": "function"
    },
    {
      "inputs": [
        {
          "internalType": "string",
          "name": "discordName",
          "type": "string"
        },
        {
          "internalType": "string",
          "name": "geoHash",
          "type": "string"
        }
      ],
      "name": "setLocation",
      "outputs": [],
      "stateMutability": "payable",
      "type": "function"
    },
    {
      "inputs": [
        {
          "internalType": "address",
          "name": "newOwner",
          "type": "address"
        }
      ],
      "name": "transferOwnership",
      "outputs": [],
      "stateMutability": "nonpayable",
      "type": "function"
    }
  ],
  "bytecode": "0x608060405234801561001057600080fd5b50612fe0806100206000396000f3fe6080604052600436106100f35760003560e01c8063a1a691b01161008a578063f04c081a11610059578063f04c081a146102de578063f1add2d714610309578063f2fde38b14610332578063fe586c9a1461035b576100f3565b8063a1a691b014610238578063c4d66de814610261578063de8fa4311461028a578063ee44246a146102b5576100f3565b80636985a022116100c65780636985a022146101a2578063715018a6146101b95780638da5cb5b146101d05780639507d39a146101fb576100f3565b80631a16a926146100f857806330257bf714610123578063438cd2d3146101605780635c975abb14610177575b600080fd5b34801561010457600080fd5b5061010d610377565b60405161011a9190611eba565b60405180910390f35b34801561012f57600080fd5b5061014a60048036038101906101459190611f0b565b6103a1565b604051610157919061202e565b60405180910390f35b34801561016c57600080fd5b50610175610535565b005b34801561018357600080fd5b5061018c610547565b604051610199919061206b565b60405180910390f35b3480156101ae57600080fd5b506101b761055e565b005b3480156101c557600080fd5b506101ce610570565b005b3480156101dc57600080fd5b506101e5610584565b6040516101f29190611eba565b60405180910390f35b34801561020757600080fd5b50610222600480360381019061021d91906120bc565b6105ae565b60405161022f919061202e565b60405180910390f35b34801561024457600080fd5b5061025f600480360381019061025a9190611f0b565b6107da565b005b34801561026d57600080fd5b5061028860048036038101906102839190611f0b565b610895565b005b34801561029657600080fd5b5061029f610a1d565b6040516102ac91906120f8565b60405180910390f35b3480156102c157600080fd5b506102dc60048036038101906102d791906120bc565b610b93565b005b3480156102ea57600080fd5b506102f3610f2f565b60405161030091906120f8565b60405180910390f35b34801561031557600080fd5b50610330600480360381019061032b9190612178565b610f3a565b005b34801561033e57600080fd5b5061035960048036038101906103549190611f0b565b6110be565b005b61037560048036038101906103709190612178565b611141565b005b6000609760009054906101000a900473ffffffffffffffffffffffffffffffffffffffff16905090565b6103a9611de5565b6000609760009054906101000a900473ffffffffffffffffffffffffffffffffffffffff1673ffffffffffffffffffffffffffffffffffffffff166370a08231336040518263ffffffff1660e01b81526004016104069190611eba565b602060405180830381865afa158015610423573d6000803e3d6000fd5b505050506040513d601f19601f82011682018060405250810190610447919061220e565b11610487576040517f08c379a000000000000000000000000000000000000000000000000000000000815260040161047e906122e4565b60405180910390fd5b609960003373ffffffffffffffffffffffffffffffffffffffff1673ffffffffffffffffffffffffffffffffffffffff16815260200190815260200160002060009054906101000a900460ff16610513576040517f08c379a000000000000000000000000000000000000000000000000000000000815260040161050a9061239c565b60405180910390fd5b61051c82611301565b610525826113e2565b61052e82611471565b9050919050565b61053d61164a565b6105456116c8565b565b6000606560009054906101000a900460ff16905090565b61056661164a565b61056e61172b565b565b61057861164a565b610582600061178e565b565b6000603360009054906101000a900473ffffffffffffffffffffffffffffffffffffffff16905090565b6105b6611de5565b6000609760009054906101000a900473ffffffffffffffffffffffffffffffffffffffff1673ffffffffffffffffffffffffffffffffffffffff166370a08231336040518263ffffffff1660e01b81526004016106139190611eba565b602060405180830381865afa158015610630573d6000803e3d6000fd5b505050506040513d601f19601f82011682018060405250810190610654919061220e565b11610694576040517f08c379a000000000000000000000000000000000000000000000000000000000815260040161068b906122e4565b60405180910390fd5b609960003373ffffffffffffffffffffffffffffffffffffffff1673ffffffffffffffffffffffffffffffffffffffff16815260200190815260200160002060009054906101000a900460ff16610720576040517f08c379a00000000000000000000000000000000000000000000000000000000081526004016107179061239c565b60405180910390fd5b609a8054905082108015610735575060008210155b610774576040517f08c379a000000000000000000000000000000000000000000000000000000000815260040161076b90612408565b60405180910390fd5b6000609a838154811061078a57610789612428565b5b9060005260206000200160009054906101000a900473ffffffffffffffffffffffffffffffffffffffff1690506107c081611301565b6107c9816113e2565b6107d281611471565b915050919050565b6107e261164a565b600073ffffffffffffffffffffffffffffffffffffffff168173ffffffffffffffffffffffffffffffffffffffff1603610851576040517f08c379a0000000000000000000000000000000000000000000000000000000008152600401610848906124a3565b60405180910390fd5b80609760006101000a81548173ffffffffffffffffffffffffffffffffffffffff021916908373ffffffffffffffffffffffffffffffffffffffff16021790555050565b60008060019054906101000a900460ff161590508080156108c65750600160008054906101000a900460ff1660ff16105b806108f357506108d530611854565b1580156108f25750600160008054906101000a900460ff1660ff16145b5b610932576040517f08c379a000000000000000000000000000000000000000000000000000000000815260040161092990612535565b60405180910390fd5b60016000806101000a81548160ff021916908360ff160217905550801561096f576001600060016101000a81548160ff0219169083151502179055505b610977611877565b61097f6118d0565b81609760006101000a81548173ffffffffffffffffffffffffffffffffffffffff021916908373ffffffffffffffffffffffffffffffffffffffff1602179055508015610a195760008060016101000a81548160ff0219169083151502179055507f7f26b83ff96e1f2b6a682f133852f6798a09c465da95921460cefb38474024986001604051610a1091906125a7565b60405180910390a15b5050565b600080609760009054906101000a900473ffffffffffffffffffffffffffffffffffffffff1673ffffffffffffffffffffffffffffffffffffffff166370a08231336040518263ffffffff1660e01b8152600401610a7b9190611eba565b602060405180830381865afa158015610a98573d6000803e3d6000fd5b505050506040513d601f19601f82011682018060405250810190610abc919061220e565b11610afc576040517f08c379a0000000000000000000000000000000000000000000000000000000008152600401610af3906122e4565b60405180910390fd5b609960003373ffffffffffffffffffffffffffffffffffffffff1673ffffffffffffffffffffffffffffffffffffffff16815260200190815260200160002060009054906101000a900460ff16610b88576040517f08c379a0000000000000000000000000000000000000000000000000000000008152600401610b7f9061239c565b60405180910390fd5b609a80549050905090565b610b9b611929565b609960003373ffffffffffffffffffffffffffffffffffffffff1673ffffffffffffffffffffffffffffffffffffffff16815260200190815260200160002060009054906101000a900460ff16610c27576040517f08c379a0000000000000000000000000000000000000000000000000000000008152600401610c1e9061239c565b60405180910390fd5b609a805490508110610c6e576040517f08c379a0000000000000000000000000000000000000000000000000000000008152600401610c6590612408565b60405180910390fd5b6000609a8281548110610c8457610c83612428565b5b9060005260206000200160009054906101000a900473ffffffffffffffffffffffffffffffffffffffff1690503373ffffffffffffffffffffffffffffffffffffffff168173ffffffffffffffffffffffffffffffffffffffff1614610d1f576040517f08c379a0000000000000000000000000000000000000000000000000000000008152600401610d1690612634565b60405180910390fd5b609860003373ffffffffffffffffffffffffffffffffffffffff1673ffffffffffffffffffffffffffffffffffffffff16815260200190815260200160002060008082016000610d6f9190611e1c565b600182016000610d7f9190611e1c565b6002820160006101000a81549073ffffffffffffffffffffffffffffffffffffffff02191690555050609960003373ffffffffffffffffffffffffffffffffffffffff1673ffffffffffffffffffffffffffffffffffffffff16815260200190815260200160002060006101000a81549060ff0219169055609a8281548110610e0b57610e0a612428565b5b9060005260206000200160006101000a81549073ffffffffffffffffffffffffffffffffffffffff0219169055609a6001609a80549050610e4c9190612683565b81548110610e5d57610e5c612428565b5b9060005260206000200160009054906101000a900473ffffffffffffffffffffffffffffffffffffffff16609a8381548110610e9c57610e9b612428565b5b9060005260206000200160006101000a81548173ffffffffffffffffffffffffffffffffffffffff021916908373ffffffffffffffffffffffffffffffffffffffff160217905550609a805480610ef657610ef56126b7565b5b6001900381819060005260206000200160006101000a81549073ffffffffffffffffffffffffffffffffffffffff021916905590555050565b66044364c5bb000081565b610f42611929565b6000609760009054906101000a900473ffffffffffffffffffffffffffffffffffffffff1673ffffffffffffffffffffffffffffffffffffffff166370a08231336040518263ffffffff1660e01b8152600401610f9f9190611eba565b602060405180830381865afa158015610fbc573d6000803e3d6000fd5b505050506040513d601f19601f82011682018060405250810190610fe0919061220e565b11611020576040517f08c379a0000000000000000000000000000000000000000000000000000000008152600401611017906122e4565b60405180910390fd5b609960003373ffffffffffffffffffffffffffffffffffffffff1673ffffffffffffffffffffffffffffffffffffffff16815260200190815260200160002060009054906101000a900460ff166110ac576040517f08c379a00000000000000000000000000000000000000000000000000000000081526004016110a39061239c565b60405180910390fd5b6110b884848484611973565b50505050565b6110c661164a565b600073ffffffffffffffffffffffffffffffffffffffff168173ffffffffffffffffffffffffffffffffffffffff1603611135576040517f08c379a000000000000000000000000000000000000000000000000000000000815260040161112c90612758565b60405180910390fd5b61113e8161178e565b50565b611149611929565b6000609760009054906101000a900473ffffffffffffffffffffffffffffffffffffffff1673ffffffffffffffffffffffffffffffffffffffff166370a08231336040518263ffffffff1660e01b81526004016111a69190611eba565b602060405180830381865afa1580156111c3573d6000803e3d6000fd5b505050506040513d601f19601f820116820180604052508101906111e7919061220e565b11611227576040517f08c379a000000000000000000000000000000000000000000000000000000000815260040161121e906122e4565b60405180910390fd5b66044364c5bb0000341015611271576040517f08c379a0000000000000000000000000000000000000000000000000000000008152600401611268906127ea565b60405180910390fd5b61127d84848484611973565b6000611287610584565b73ffffffffffffffffffffffffffffffffffffffff16346040516112aa9061283b565b60006040518083038185875af1925050503d80600081146112e7576040519150601f19603f3d011682016040523d82523d6000602084013e6112ec565b606091505b50509050806112fa57600080fd5b5050505050565b6000609760009054906101000a900473ffffffffffffffffffffffffffffffffffffffff1673ffffffffffffffffffffffffffffffffffffffff166370a08231836040518263ffffffff1660e01b815260040161135e9190611eba565b602060405180830381865afa15801561137b573d6000803e3d6000fd5b505050506040513d601f19601f8201168201806040525081019061139f919061220e565b116113df576040517f08c379a00000000000000000000000000000000000000000000000000000000081526004016113d6906128c2565b60405180910390fd5b50565b609960008273ffffffffffffffffffffffffffffffffffffffff1673ffffffffffffffffffffffffffffffffffffffff16815260200190815260200160002060009054906101000a900460ff1661146e576040517f08c379a000000000000000000000000000000000000000000000000000000000815260040161146590612954565b60405180910390fd5b50565b611479611de5565b6000609860008473ffffffffffffffffffffffffffffffffffffffff1673ffffffffffffffffffffffffffffffffffffffff1681526020019081526020016000206040518060600160405290816000820180546114d5906129a3565b80601f0160208091040260200160405190810160405280929190818152602001828054611501906129a3565b801561154e5780601f106115235761010080835404028352916020019161154e565b820191906000526020600020905b81548152906001019060200180831161153157829003601f168201915b50505050508152602001600182018054611567906129a3565b80601f0160208091040260200160405190810160405280929190818152602001828054611593906129a3565b80156115e05780601f106115b5576101008083540402835291602001916115e0565b820191906000526020600020905b8154815290600101906020018083116115c357829003601f168201915b505050505081526020016002820160009054906101000a900473ffffffffffffffffffffffffffffffffffffffff1673ffffffffffffffffffffffffffffffffffffffff1673ffffffffffffffffffffffffffffffffffffffff1681525050905080915050919050565b611652611cc7565b73ffffffffffffffffffffffffffffffffffffffff16611670610584565b73ffffffffffffffffffffffffffffffffffffffff16146116c6576040517f08c379a00000000000000000000000000000000000000000000000000000000081526004016116bd90612a20565b60405180910390fd5b565b6116d0611ccf565b6000606560006101000a81548160ff0219169083151502179055507f5db9ee0a495bf2e6ff9c91a7834c1ba4fdd244a5e8aa4e537bd38aeae4b073aa611714611cc7565b6040516117219190611eba565b60405180910390a1565b611733611929565b6001606560006101000a81548160ff0219169083151502179055507f62e78cea01bee320cd4e420270b5ea74000d11b0c9f74754ebdbfc544b05a258611777611cc7565b6040516117849190611eba565b60405180910390a1565b6000603360009054906101000a900473ffffffffffffffffffffffffffffffffffffffff16905081603360006101000a81548173ffffffffffffffffffffffffffffffffffffffff021916908373ffffffffffffffffffffffffffffffffffffffff1602179055508173ffffffffffffffffffffffffffffffffffffffff168173ffffffffffffffffffffffffffffffffffffffff167f8be0079c531659141344cd1fd0a4f28419497f9722a3daafe3b4186f6b6457e060405160405180910390a35050565b6000808273ffffffffffffffffffffffffffffffffffffffff163b119050919050565b600060019054906101000a900460ff166118c6576040517f08c379a00000000000000000000000000000000000000000000000000000000081526004016118bd90612ab2565b60405180910390fd5b6118ce611d18565b565b600060019054906101000a900460ff1661191f576040517f08c379a000000000000000000000000000000000000000000000000000000000815260040161191690612ab2565b60405180910390fd5b611927611d79565b565b611931610547565b15611971576040517f08c379a000000000000000000000000000000000000000000000000000000000815260040161196890612b1e565b60405180910390fd5b565b61197b611929565b600084849050036119c1576040517f08c379a00000000000000000000000000000000000000000000000000000000081526004016119b890612b8a565b60405180910390fd5b60008282905003611a07576040517f08c379a00000000000000000000000000000000000000000000000000000000081526004016119fe90612bf6565b60405180910390fd5b604051806060016040528085858080601f016020809104026020016040519081016040528093929190818152602001838380828437600081840152601f19601f82011690508083019250505050505050815260200183838080601f016020809104026020016040519081016040528093929190818152602001838380828437600081840152601f19601f8201169050808301925050505050505081526020013373ffffffffffffffffffffffffffffffffffffffff16815250609860003373ffffffffffffffffffffffffffffffffffffffff1673ffffffffffffffffffffffffffffffffffffffff1681526020019081526020016000206000820151816000019081611b149190612de7565b506020820151816001019081611b2a9190612de7565b5060408201518160020160006101000a81548173ffffffffffffffffffffffffffffffffffffffff021916908373ffffffffffffffffffffffffffffffffffffffff160217905550905050609960003373ffffffffffffffffffffffffffffffffffffffff1673ffffffffffffffffffffffffffffffffffffffff16815260200190815260200160002060009054906101000a900460ff16611c82576001609960003373ffffffffffffffffffffffffffffffffffffffff1673ffffffffffffffffffffffffffffffffffffffff16815260200190815260200160002060006101000a81548160ff021916908315150217905550609a339080600181540180825580915050600190039060005260206000200160009091909190916101000a81548173ffffffffffffffffffffffffffffffffffffffff021916908373ffffffffffffffffffffffffffffffffffffffff1602179055505b7f8a931f452ff55f84be4a80c10aabdfd2be8f4a2db550a3b4eb473bfced28687b8484848433604051611cb9959493929190612ef5565b60405180910390a150505050565b600033905090565b611cd7610547565b611d16576040517f08c379a0000000000000000000000000000000000000000000000000000000008152600401611d0d90612f8a565b60405180910390fd5b565b600060019054906101000a900460ff16611d67576040517f08c379a0000000000000000000000000000000000000000000000000000000008152600401611d5e90612ab2565b60405180910390fd5b611d77611d72611cc7565b61178e565b565b600060019054906101000a900460ff16611dc8576040517f08c379a0000000000000000000000000000000000000000000000000000000008152600401611dbf90612ab2565b60405180910390fd5b6000606560006101000a81548160ff021916908315150217905550565b60405180606001604052806060815260200160608152602001600073ffffffffffffffffffffffffffffffffffffffff1681525090565b508054611e28906129a3565b6000825580601f10611e3a5750611e59565b601f016020900490600052602060002090810190611e589190611e5c565b5b50565b5b80821115611e75576000816000905550600101611e5d565b5090565b600073ffffffffffffffffffffffffffffffffffffffff82169050919050565b6000611ea482611e79565b9050919050565b611eb481611e99565b82525050565b6000602082019050611ecf6000830184611eab565b92915050565b600080fd5b600080fd5b611ee881611e99565b8114611ef357600080fd5b50565b600081359050611f0581611edf565b92915050565b600060208284031215611f2157611f20611ed5565b5b6000611f2f84828501611ef6565b91505092915050565b600081519050919050565b600082825260208201905092915050565b60005b83811015611f72578082015181840152602081019050611f57565b60008484015250505050565b6000601f19601f8301169050919050565b6000611f9a82611f38565b611fa48185611f43565b9350611fb4818560208601611f54565b611fbd81611f7e565b840191505092915050565b611fd181611e99565b82525050565b60006060830160008301518482036000860152611ff48282611f8f565b9150506020830151848203602086015261200e8282611f8f565b91505060408301516120236040860182611fc8565b508091505092915050565b600060208201905081810360008301526120488184611fd7565b905092915050565b60008115159050919050565b61206581612050565b82525050565b6000602082019050612080600083018461205c565b92915050565b6000819050919050565b61209981612086565b81146120a457600080fd5b50565b6000813590506120b681612090565b92915050565b6000602082840312156120d2576120d1611ed5565b5b60006120e0848285016120a7565b91505092915050565b6120f281612086565b82525050565b600060208201905061210d60008301846120e9565b92915050565b600080fd5b600080fd5b600080fd5b60008083601f84011261213857612137612113565b5b8235905067ffffffffffffffff81111561215557612154612118565b5b6020830191508360018202830111156121715761217061211d565b5b9250929050565b6000806000806040858703121561219257612191611ed5565b5b600085013567ffffffffffffffff8111156121b0576121af611eda565b5b6121bc87828801612122565b9450945050602085013567ffffffffffffffff8111156121df576121de611eda565b5b6121eb87828801612122565b925092505092959194509250565b60008151905061220881612090565b92915050565b60006020828403121561222457612223611ed5565b5b6000612232848285016121f9565b91505092915050565b600082825260208201905092915050565b7f4865792042726f2c206f6e6c79204372617a7946757279206d656d626572732060008201527f63616e20757365207468697320736572766963652e20427579204372617a794660208201527f757279204e465420746f20676574206163636573732e00000000000000000000604082015250565b60006122ce60568361223b565b91506122d98261224c565b606082019050919050565b600060208201905081810360008301526122fd816122c1565b9050919050565b7f4f6e6c79204372617a792046757279204d617073206d656d6265722063616e2060008201527f706572666f726d207468697320616374696f6e212041646420796f757220706f60208201527f736974696f6e2066697273742100000000000000000000000000000000000000604082015250565b6000612386604d8361223b565b915061239182612304565b606082019050919050565b600060208201905081810360008301526123b581612379565b9050919050565b7f496e646578206f7574206f6620626f756e647300000000000000000000000000600082015250565b60006123f260138361223b565b91506123fd826123bc565b602082019050919050565b60006020820190508181036000830152612421816123e5565b9050919050565b7f4e487b7100000000000000000000000000000000000000000000000000000000600052603260045260246000fd5b7f416464726573732063616e6e6f7420626520656d707479000000000000000000600082015250565b600061248d60178361223b565b915061249882612457565b602082019050919050565b600060208201905081810360008301526124bc81612480565b9050919050565b7f496e697469616c697a61626c653a20636f6e747261637420697320616c72656160008201527f647920696e697469616c697a6564000000000000000000000000000000000000602082015250565b600061251f602e8361223b565b915061252a826124c3565b604082019050919050565b6000602082019050818103600083015261254e81612512565b9050919050565b6000819050919050565b600060ff82169050919050565b6000819050919050565b600061259161258c61258784612555565b61256c565b61255f565b9050919050565b6125a181612576565b82525050565b60006020820190506125bc6000830184612598565b92915050565b7f596f7520617265206e6f7420746865206f776e6572206f662074686973206c6f60008201527f636174696f6e0000000000000000000000000000000000000000000000000000602082015250565b600061261e60268361223b565b9150612629826125c2565b604082019050919050565b6000602082019050818103600083015261264d81612611565b9050919050565b7f4e487b7100000000000000000000000000000000000000000000000000000000600052601160045260246000fd5b600061268e82612086565b915061269983612086565b92508282039050818111156126b1576126b0612654565b5b92915050565b7f4e487b7100000000000000000000000000000000000000000000000000000000600052603160045260246000fd5b7f4f776e61626c653a206e6577206f776e657220697320746865207a65726f206160008201527f6464726573730000000000000000000000000000000000000000000000000000602082015250565b600061274260268361223b565b915061274d826126e6565b604082019050919050565b6000602082019050818103600083015261277181612735565b9050919050565b7f4865792062726f2c206174206c65617374206f6e6520636f666665652069732060008201527f617070726563696174656421203a292000000000000000000000000000000000602082015250565b60006127d460308361223b565b91506127df82612778565b604082019050919050565b60006020820190508181036000830152612803816127c7565b9050919050565b600081905092915050565b50565b600061282560008361280a565b915061283082612815565b600082019050919050565b600061284682612818565b9150819050919050565b7f546865206d656d626572206973206e6f206c6f6e6765722061206372617a792060008201527f66757279206f776e657200000000000000000000000000000000000000000000602082015250565b60006128ac602a8361223b565b91506128b782612850565b604082019050919050565b600060208201905081810360008301526128db8161289f565b9050919050565b7f4372617a792046757279204d617073206d656d62657220646f65736e2774206560008201527f7869737400000000000000000000000000000000000000000000000000000000602082015250565b600061293e60248361223b565b9150612949826128e2565b604082019050919050565b6000602082019050818103600083015261296d81612931565b9050919050565b7f4e487b7100000000000000000000000000000000000000000000000000000000600052602260045260246000fd5b600060028204905060018216806129bb57607f821691505b6020821081036129ce576129cd612974565b5b50919050565b7f4f776e61626c653a2063616c6c6572206973206e6f7420746865206f776e6572600082015250565b6000612a0a60208361223b565b9150612a15826129d4565b602082019050919050565b60006020820190508181036000830152612a39816129fd565b9050919050565b7f496e697469616c697a61626c653a20636f6e7472616374206973206e6f74206960008201527f6e697469616c697a696e67000000000000000000000000000000000000000000602082015250565b6000612a9c602b8361223b565b9150612aa782612a40565b604082019050919050565b60006020820190508181036000830152612acb81612a8f565b9050919050565b7f5061757361626c653a2070617573656400000000000000000000000000000000600082015250565b6000612b0860108361223b565b9150612b1382612ad2565b602082019050919050565b60006020820190508181036000830152612b3781612afb565b9050919050565b7f446973636f72644e616d652063616e206e6f7420626520656d70747900000000600082015250565b6000612b74601c8361223b565b9150612b7f82612b3e565b602082019050919050565b60006020820190508181036000830152612ba381612b67565b9050919050565b7f4c6f636174696f6e2063616e206e6f7420626520656d70747900000000000000600082015250565b6000612be060198361223b565b9150612beb82612baa565b602082019050919050565b60006020820190508181036000830152612c0f81612bd3565b9050919050565b7f4e487b7100000000000000000000000000000000000000000000000000000000600052604160045260246000fd5b60008190508160005260206000209050919050565b60006020601f8301049050919050565b600082821b905092915050565b600060088302612ca77fffffffffffffffffffffffffffffffffffffffffffffffffffffffffffffffff82612c6a565b612cb18683612c6a565b95508019841693508086168417925050509392505050565b6000612ce4612cdf612cda84612086565b61256c565b612086565b9050919050565b6000819050919050565b612cfe83612cc9565b612d12612d0a82612ceb565b848454612c77565b825550505050565b600090565b612d27612d1a565b612d32818484612cf5565b505050565b5b81811015612d5657612d4b600082612d1f565b600181019050612d38565b5050565b601f821115612d9b57612d6c81612c45565b612d7584612c5a565b81016020851015612d84578190505b612d98612d9085612c5a565b830182612d37565b50505b505050565b600082821c905092915050565b6000612dbe60001984600802612da0565b1980831691505092915050565b6000612dd78383612dad565b9150826002028217905092915050565b612df082611f38565b67ffffffffffffffff811115612e0957612e08612c16565b5b612e1382546129a3565b612e1e828285612d5a565b600060209050601f831160018114612e515760008415612e3f578287015190505b612e498582612dcb565b865550612eb1565b601f198416612e5f86612c45565b60005b82811015612e8757848901518255600182019150602085019450602081019050612e62565b86831015612ea45784890151612ea0601f891682612dad565b8355505b6001600288020188555050505b505050505050565b82818337600083830152505050565b6000612ed4838561223b565b9350612ee1838584612eb9565b612eea83611f7e565b840190509392505050565b60006060820190508181036000830152612f10818789612ec8565b90508181036020830152612f25818587612ec8565b9050612f346040830184611eab565b9695505050505050565b7f5061757361626c653a206e6f7420706175736564000000000000000000000000600082015250565b6000612f7460148361223b565b9150612f7f82612f3e565b602082019050919050565b60006020820190508181036000830152612fa381612f67565b905091905056fea26469706673582212205613d45fa0f5f04e8b5c99518c567cc156604b117b17bd7edc77823261bdcb7d64736f6c63430008110033",
  "linkReferences": {},
  "deployedLinkReferences": {}
}