{
    "contractName": "CrazyFuryMaps",
    "abi": [
        {
            "inputs": [
                {
                    "internalType": "address",
                    "name": "_cfContractAdr",
                    "type": "address"
                }
            ],
            "stateMutability": "nonpayable",
            "type": "constructor"
        },
        {
            "anonymous": false,
            "inputs": [
                {
                    "indexed": false,
                    "internalType": "string",
                    "name": "discordName",
                    "type": "string"
                },
                {
                    "indexed": false,
                    "internalType": "string",
                    "name": "geoHash",
                    "type": "string"
                },
                {
                    "indexed": false,
                    "internalType": "address",
                    "name": "cfMemberAdr",
                    "type": "address"
                }
            ],
            "name": "LocationAdded",
            "type": "event"
        },
        {
            "anonymous": false,
            "inputs": [
                {
                    "indexed": false,
                    "internalType": "string",
                    "name": "discordName",
                    "type": "string"
                },
                {
                    "indexed": false,
                    "internalType": "string",
                    "name": "geoHash",
                    "type": "string"
                },
                {
                    "indexed": false,
                    "internalType": "address",
                    "name": "cfMemberAdr",
                    "type": "address"
                }
            ],
            "name": "NinjaOffSet",
            "type": "event"
        },
        {
            "anonymous": false,
            "inputs": [
                {
                    "indexed": false,
                    "internalType": "string",
                    "name": "discordName",
                    "type": "string"
                },
                {
                    "indexed": false,
                    "internalType": "string",
                    "name": "geoHash",
                    "type": "string"
                },
                {
                    "indexed": false,
                    "internalType": "address",
                    "name": "cfMemberAdr",
                    "type": "address"
                }
            ],
            "name": "NinjaOnSet",
            "type": "event"
        },
        {
            "anonymous": false,
            "inputs": [
                {
                    "indexed": true,
                    "internalType": "address",
                    "name": "previousOwner",
                    "type": "address"
                },
                {
                    "indexed": true,
                    "internalType": "address",
                    "name": "newOwner",
                    "type": "address"
                }
            ],
            "name": "OwnershipTransferred",
            "type": "event"
        },
        {
            "inputs": [],
            "name": "disableNinjaMode",
            "outputs": [],
            "stateMutability": "nonpayable",
            "type": "function"
        },
        {
            "inputs": [],
            "name": "enableNinjaMode",
            "outputs": [],
            "stateMutability": "nonpayable",
            "type": "function"
        },
        {
            "inputs": [
                {
                    "internalType": "uint256",
                    "name": "index",
                    "type": "uint256"
                }
            ],
            "name": "get",
            "outputs": [
                {
                    "components": [
                        {
                            "internalType": "string",
                            "name": "discordName",
                            "type": "string"
                        },
                        {
                            "internalType": "string",
                            "name": "geohash",
                            "type": "string"
                        },
                        {
                            "internalType": "address",
                            "name": "cfMemberAdr",
                            "type": "address"
                        }
                    ],
                    "internalType": "struct CrazyFuryMaps.CFLocationResult",
                    "name": "",
                    "type": "tuple"
                }
            ],
            "stateMutability": "view",
            "type": "function"
        },
        {
            "inputs": [
                {
                    "internalType": "address",
                    "name": "cfAddress",
                    "type": "address"
                }
            ],
            "name": "getByAddress",
            "outputs": [
                {
                    "components": [
                        {
                            "internalType": "string",
                            "name": "discordName",
                            "type": "string"
                        },
                        {
                            "internalType": "string",
                            "name": "geohash",
                            "type": "string"
                        },
                        {
                            "internalType": "address",
                            "name": "cfMemberAdr",
                            "type": "address"
                        }
                    ],
                    "internalType": "struct CrazyFuryMaps.CFLocationResult",
                    "name": "",
                    "type": "tuple"
                }
            ],
            "stateMutability": "view",
            "type": "function"
        },
        {
            "inputs": [],
            "name": "getCrazyFuryContractAddress",
            "outputs": [
                {
                    "internalType": "address",
                    "name": "",
                    "type": "address"
                }
            ],
            "stateMutability": "view",
            "type": "function"
        },
        {
            "inputs": [],
            "name": "getSize",
            "outputs": [
                {
                    "internalType": "uint256",
                    "name": "",
                    "type": "uint256"
                }
            ],
            "stateMutability": "view",
            "type": "function"
        },
        {
            "inputs": [],
            "name": "owner",
            "outputs": [
                {
                    "internalType": "address",
                    "name": "",
                    "type": "address"
                }
            ],
            "stateMutability": "view",
            "type": "function"
        },
        {
            "inputs": [],
            "name": "renounceOwnership",
            "outputs": [],
            "stateMutability": "nonpayable",
            "type": "function"
        },
        {
            "inputs": [
                {
                    "internalType": "string",
                    "name": "discordName",
                    "type": "string"
                },
                {
                    "internalType": "string",
                    "name": "geoHash",
                    "type": "string"
                }
            ],
            "name": "setLocation",
            "outputs": [],
            "stateMutability": "nonpayable",
            "type": "function"
        },
        {
            "inputs": [
                {
                    "internalType": "string",
                    "name": "discordName",
                    "type": "string"
                },
                {
                    "internalType": "string",
                    "name": "geoHash",
                    "type": "string"
                }
            ],
            "name": "setLocationWithACoffee",
            "outputs": [],
            "stateMutability": "payable",
            "type": "function"
        },
        {
            "inputs": [
                {
                    "internalType": "address",
                    "name": "newOwner",
                    "type": "address"
                }
            ],
            "name": "transferOwnership",
            "outputs": [],
            "stateMutability": "nonpayable",
            "type": "function"
        }
    ],
    "bytecode": "60806040523480156200001157600080fd5b5060405162001ba938038062001ba9833981016040819052620000349162000157565b6200003f3362000095565b6200006f60405180608001604052806046815260200162001b636046913982620000e560201b620011fc1760201c565b600180546001600160a01b0319166001600160a01b0392909216919091179055620001ee565b600080546001600160a01b038381166001600160a01b0319831681178455604051919092169283917f8be0079c531659141344cd1fd0a4f28419497f9722a3daafe3b4186f6b6457e09190a35050565b620001328282604051602401620000fe92919062000187565b60408051601f198184030181529190526020810180516001600160e01b0390811663319af33360e01b179091526200013616565b5050565b80516a636f6e736f6c652e6c6f67602083016000808483855afa5050505050565b60006020828403121562000169578081fd5b81516001600160a01b038116811462000180578182fd5b9392505050565b6040815260008351806040840152815b81811015620001b6576020818701810151606086840101520162000197565b81811115620001c85782606083860101525b506001600160a01b0393909316602083015250601f91909101601f191601606001919050565b61196580620001fe6000396000f3fe60806040526004361061009c5760003560e01c80639507d39a116100645780639507d39a1461014f578063a2d334791461016f578063c92bd3a814610182578063de8fa43114610197578063f2fde38b146101ba578063fe586c9a146101da57600080fd5b806307553e21146100a15780631a16a926146100b857806330257bf7146100ef578063715018a61461011c5780638da5cb5b14610131575b600080fd5b3480156100ad57600080fd5b506100b66101fa565b005b3480156100c457600080fd5b506001546001600160a01b03165b6040516001600160a01b0390911681526020015b60405180910390f35b3480156100fb57600080fd5b5061010f61010a3660046115ba565b6104bc565b6040516100e69190611883565b34801561012857600080fd5b506100b66107ea565b34801561013d57600080fd5b506000546001600160a01b03166100d2565b34801561015b57600080fd5b5061010f61016a366004611649565b610850565b6100b661017d3660046115e8565b610bb4565b34801561018e57600080fd5b506100b6610d06565b3480156101a357600080fd5b506101ac610fb7565b6040519081526020016100e6565b3480156101c657600080fd5b506100b66101d53660046115ba565b61108a565b3480156101e657600080fd5b506100b66101f53660046115e8565b611155565b6001546040516370a0823160e01b81523360048201526000916001600160a01b0316906370a082319060240160206040518083038186803b15801561023e57600080fd5b505afa158015610252573d6000803e3d6000fd5b505050506040513d601f19601f820116820180604052508101906102769190611661565b1161029c5760405162461bcd60e51b815260040161029390611807565b60405180910390fd5b3360009081526003602052604090205460ff166102cb5760405162461bcd60e51b81526004016102939061172c565b336000908152600260205260408082208151606081019092528054829082906102f3906118de565b80601f016020809104026020016040519081016040528092919081815260200182805461031f906118de565b801561036c5780601f106103415761010080835404028352916020019161036c565b820191906000526020600020905b81548152906001019060200180831161034f57829003601f168201915b50505050508152602001600182018054610385906118de565b80601f01602080910402602001604051908101604052809291908181526020018280546103b1906118de565b80156103fe5780601f106103d3576101008083540402835291602001916103fe565b820191906000526020600020905b8154815290600101906020018083116103e157829003601f168201915b505050918352505060029182015460ff1615156020918201526000604080850182905233825292825291909120825180519394508493919261044592849290910190611470565b50602082810151805161045e9260018501920190611470565b50604091820151600291909101805460ff19169115159190911790558151602083015191517fcf26c6086fbd53363337668e32c84d80f1d8b3090fb5f56f457052d209baa06f926104b1929133906116ee565b60405180910390a150565b6104c46114f4565b6001546040516370a0823160e01b81523360048201526000916001600160a01b0316906370a082319060240160206040518083038186803b15801561050857600080fd5b505afa15801561051c573d6000803e3d6000fd5b505050506040513d601f19601f820116820180604052508101906105409190611661565b1161055d5760405162461bcd60e51b815260040161029390611807565b3360009081526003602052604090205460ff1661058c5760405162461bcd60e51b81526004016102939061172c565b336000908152600260208190526040909120015460ff16156105c05760405162461bcd60e51b81526004016102939061179f565b6001600160a01b0382166000908152600260205260408082208151606081019092528054829082906105f1906118de565b80601f016020809104026020016040519081016040528092919081815260200182805461061d906118de565b801561066a5780601f1061063f5761010080835404028352916020019161066a565b820191906000526020600020905b81548152906001019060200180831161064d57829003601f168201915b50505050508152602001600182018054610683906118de565b80601f01602080910402602001604051908101604052809291908181526020018280546106af906118de565b80156106fc5780601f106106d1576101008083540402835291602001916106fc565b820191906000526020600020905b8154815290600101906020018083116106df57829003601f168201915b50505091835250506002919091015460ff16151560209091015290506107206114f4565b8160400151806107aa57506001546040516370a0823160e01b81526001600160a01b038681166004830152909116906370a082319060240160206040518083038186803b15801561077057600080fd5b505afa158015610784573d6000803e3d6000fd5b505050506040513d601f19601f820116820180604052508101906107a89190611661565b155b156107b85791506107e59050565b506040805160608101825282518152602092830151928101929092526001600160a01b0384169082015290505b919050565b6000546001600160a01b031633146108445760405162461bcd60e51b815260206004820181905260248201527f4f776e61626c653a2063616c6c6572206973206e6f7420746865206f776e65726044820152606401610293565b61084e6000611241565b565b6108586114f4565b6001546040516370a0823160e01b81523360048201526000916001600160a01b0316906370a082319060240160206040518083038186803b15801561089c57600080fd5b505afa1580156108b0573d6000803e3d6000fd5b505050506040513d601f19601f820116820180604052508101906108d49190611661565b116108f15760405162461bcd60e51b815260040161029390611807565b3360009081526003602052604090205460ff166109205760405162461bcd60e51b81526004016102939061172c565b336000908152600260208190526040909120015460ff16156109545760405162461bcd60e51b81526004016102939061179f565b60006004838154811061097757634e487b7160e01b600052603260045260246000fd5b60009182526020808320909101546001600160a01b03168083526002909152604080832081516060810190925280549294509091829082906109b8906118de565b80601f01602080910402602001604051908101604052809291908181526020018280546109e4906118de565b8015610a315780601f10610a0657610100808354040283529160200191610a31565b820191906000526020600020905b815481529060010190602001808311610a1457829003601f168201915b50505050508152602001600182018054610a4a906118de565b80601f0160208091040260200160405190810160405280929190818152602001828054610a76906118de565b8015610ac35780601f10610a9857610100808354040283529160200191610ac3565b820191906000526020600020905b815481529060010190602001808311610aa657829003601f168201915b50505091835250506002919091015460ff1615156020909101529050610ae76114f4565b816040015180610b7157506001546040516370a0823160e01b81526001600160a01b038581166004830152909116906370a082319060240160206040518083038186803b158015610b3757600080fd5b505afa158015610b4b573d6000803e3d6000fd5b505050506040513d601f19601f82011682018060405250810190610b6f9190611661565b155b15610b805792506107e5915050565b506040805160608101825282518152602092830151928101929092526001600160a01b039092169181019190915292915050565b6001546040516370a0823160e01b81523360048201526000916001600160a01b0316906370a082319060240160206040518083038186803b158015610bf857600080fd5b505afa158015610c0c573d6000803e3d6000fd5b505050506040513d601f19601f82011682018060405250810190610c309190611661565b11610c4d5760405162461bcd60e51b815260040161029390611807565b610c578282611291565b600080546040516001600160a01b0390911690660206697785a000908381818185875af1925050503d8060008114610cab576040519150601f19603f3d011682016040523d82523d6000602084013e610cb0565b606091505b5050905080610d015760405162461bcd60e51b815260206004820152601f60248201527f4661696c656420746f2073656e6420457468657220746f2061646472657373006044820152606401610293565b505050565b6001546040516370a0823160e01b81523360048201526000916001600160a01b0316906370a082319060240160206040518083038186803b158015610d4a57600080fd5b505afa158015610d5e573d6000803e3d6000fd5b505050506040513d601f19601f82011682018060405250810190610d829190611661565b11610d9f5760405162461bcd60e51b815260040161029390611807565b3360009081526003602052604090205460ff16610dce5760405162461bcd60e51b81526004016102939061172c565b33600090815260026020526040808220815160608101909252805482908290610df6906118de565b80601f0160208091040260200160405190810160405280929190818152602001828054610e22906118de565b8015610e6f5780601f10610e4457610100808354040283529160200191610e6f565b820191906000526020600020905b815481529060010190602001808311610e5257829003601f168201915b50505050508152602001600182018054610e88906118de565b80601f0160208091040260200160405190810160405280929190818152602001828054610eb4906118de565b8015610f015780601f10610ed657610100808354040283529160200191610f01565b820191906000526020600020905b815481529060010190602001808311610ee457829003601f168201915b505050918352505060029182015460ff16151560209182015260016040808501919091523360009081529282529091208251805193945084939192610f4b92849290910190611470565b506020828101518051610f649260018501920190611470565b50604091820151600291909101805460ff19169115159190911790558151602083015191517f01672be5fa9ac5958bc8f8be374b48d5cfb553b5fd48e555878aa97acab0717b926104b1929133906116ee565b6001546040516370a0823160e01b815233600482015260009182916001600160a01b03909116906370a082319060240160206040518083038186803b158015610fff57600080fd5b505afa158015611013573d6000803e3d6000fd5b505050506040513d601f19601f820116820180604052508101906110379190611661565b116110545760405162461bcd60e51b815260040161029390611807565b3360009081526003602052604090205460ff166110835760405162461bcd60e51b81526004016102939061172c565b5060045490565b6000546001600160a01b031633146110e45760405162461bcd60e51b815260206004820181905260248201527f4f776e61626c653a2063616c6c6572206973206e6f7420746865206f776e65726044820152606401610293565b6001600160a01b0381166111495760405162461bcd60e51b815260206004820152602660248201527f4f776e61626c653a206e6577206f776e657220697320746865207a65726f206160448201526564647265737360d01b6064820152608401610293565b61115281611241565b50565b6001546040516370a0823160e01b81523360048201526000916001600160a01b0316906370a082319060240160206040518083038186803b15801561119957600080fd5b505afa1580156111ad573d6000803e3d6000fd5b505050506040513d601f19601f820116820180604052508101906111d19190611661565b116111ee5760405162461bcd60e51b815260040161029390611807565b6111f88282611291565b5050565b6111f882826040516024016112129291906116c4565b60408051601f198184030181529190526020810180516001600160e01b031663319af33360e01b17905261144f565b600080546001600160a01b038381166001600160a01b0319831681178455604051919092169283917f8be0079c531659141344cd1fd0a4f28419497f9722a3daafe3b4186f6b6457e09190a35050565b81516112df5760405162461bcd60e51b815260206004820152601c60248201527f446973636f72644e616d652063616e206e6f7420626520656d707479000000006044820152606401610293565b805161132d5760405162461bcd60e51b815260206004820152601960248201527f4c6f636174696f6e2063616e206e6f7420626520656d707479000000000000006044820152606401610293565b60408051606081018252838152602080820184905260008284018190523381526002825292909220815180519293919261136a9284920190611470565b5060208281015180516113839260018501920190611470565b50604091820151600291909101805460ff19169115159190911790553360009081526003602052205460ff1661141057336000818152600360205260408120805460ff191660019081179091556004805491820181559091527f8a35acfbc15ff81a39ae7d344fd709f28e8600b4aa8c65c6b64bfe7fe36bd19b0180546001600160a01b03191690911790555b7f8a931f452ff55f84be4a80c10aabdfd2be8f4a2db550a3b4eb473bfced28687b828233604051611443939291906116ee565b60405180910390a15050565b80516a636f6e736f6c652e6c6f67602083016000808483855afa5050505050565b82805461147c906118de565b90600052602060002090601f01602090048101928261149e57600085556114e4565b82601f106114b757805160ff19168380011785556114e4565b828001600101855582156114e4579182015b828111156114e45782518255916020019190600101906114c9565b506114f092915061151e565b5090565b6040518060600160405280606081526020016060815260200160006001600160a01b031681525090565b5b808211156114f0576000815560010161151f565b600082601f830112611543578081fd5b813567ffffffffffffffff8082111561155e5761155e611919565b604051601f8301601f19908116603f0116810190828211818310171561158657611586611919565b8160405283815286602085880101111561159e578485fd5b8360208701602083013792830160200193909352509392505050565b6000602082840312156115cb578081fd5b81356001600160a01b03811681146115e1578182fd5b9392505050565b600080604083850312156115fa578081fd5b823567ffffffffffffffff80821115611611578283fd5b61161d86838701611533565b93506020850135915080821115611632578283fd5b5061163f85828601611533565b9150509250929050565b60006020828403121561165a578081fd5b5035919050565b600060208284031215611672578081fd5b5051919050565b60008151808452815b8181101561169e57602081850181015186830182015201611682565b818111156116af5782602083870101525b50601f01601f19169290920160200192915050565b6040815260006116d76040830185611679565b905060018060a01b03831660208301529392505050565b6060815260006117016060830186611679565b82810360208401526117138186611679565b91505060018060a01b0383166040830152949350505050565b6020808252604d908201527f4f6e6c79204372617a792046757279204d617073206d656d6265722063616e2060408201527f706572666f726d207468697320616374696f6e212041646420796f757220706f60608201526c736974696f6e2066697273742160981b608082015260a00190565b60208082526042908201527f4f6e6c79204372617a792046757279204d617073206d656d626572206e696e6a60408201527f61206d6f6465206f66662063616e20706572666f726d2074686973206163746960608201526137b760f11b608082015260a00190565b60208082526056908201527f4865792042726f2c206f6e6c79204372617a7946757279206d656d626572732060408201527f63616e20757365207468697320736572766963652e20427579204372617a79466060820152753ab93c9027232a103a379033b2ba1030b1b1b2b9b99760511b608082015260a00190565b60208152600082516060602084015261189f6080840182611679565b90506020840151601f198483030160408501526118bc8282611679565b604095909501516001600160a01b031660609490940193909352509192915050565b600181811c908216806118f257607f821691505b6020821081141561191357634e487b7160e01b600052602260045260246000fd5b50919050565b634e487b7160e01b600052604160045260246000fdfea26469706673582212205fcce913bea7e647bb23efcf18ba2b3d7f8425de0dd2dc839476d9e0da4d880c64736f6c634300080400336c6f6164696e67204372617a79667572794d61707320736d61727420636f6e74726163742077697468204372617a794675727920636f6e74726163742061646472657373203a",
    "sourcePath": "c:/Devocracy/crazyfurymaps/contracts/CrazyFuryMaps.sol",
    "compiler": {
        "name": "solc",
        "version": "0.8.4+commit.c7e474f2"
    },
    "functionHashes": {
        "disableNinjaMode()": "07553e21",
        "enableNinjaMode()": "c92bd3a8",
        "get(uint256)": "9507d39a",
        "getByAddress(address)": "30257bf7",
        "getCrazyFuryContractAddress()": "1a16a926",
        "getSize()": "de8fa431",
        "owner()": "8da5cb5b",
        "renounceOwnership()": "715018a6",
        "setLocation(string,string)": "fe586c9a",
        "setLocationWithACoffee(string,string)": "a2d33479",
        "transferOwnership(address)": "f2fde38b"
    },
    "gasEstimates": {
        "creation": {
            "codeDepositCost": "1300200",
            "executionCost": "infinite",
            "totalCost": "infinite"
        },
        "external": {
            "disableNinjaMode()": "infinite",
            "enableNinjaMode()": "infinite",
            "get(uint256)": "infinite",
            "getByAddress(address)": "infinite",
            "getCrazyFuryContractAddress()": "1032",
            "getSize()": "infinite",
            "owner()": "1109",
            "renounceOwnership()": "23481",
            "setLocation(string,string)": "infinite",
            "setLocationWithACoffee(string,string)": "infinite",
            "transferOwnership(address)": "23662"
        },
        "internal": {
            "setLocationInternal(string memory,string memory)": "infinite"
        }
    }
}