{
    "contractName": "MyFakeCrazyFury",
    "abi": [
        {
            "inputs": [],
            "stateMutability": "nonpayable",
            "type": "constructor"
        },
        {
            "anonymous": false,
            "inputs": [
                {
                    "indexed": true,
                    "internalType": "address",
                    "name": "owner",
                    "type": "address"
                },
                {
                    "indexed": true,
                    "internalType": "address",
                    "name": "approved",
                    "type": "address"
                },
                {
                    "indexed": true,
                    "internalType": "uint256",
                    "name": "tokenId",
                    "type": "uint256"
                }
            ],
            "name": "Approval",
            "type": "event"
        },
        {
            "anonymous": false,
            "inputs": [
                {
                    "indexed": true,
                    "internalType": "address",
                    "name": "owner",
                    "type": "address"
                },
                {
                    "indexed": true,
                    "internalType": "address",
                    "name": "operator",
                    "type": "address"
                },
                {
                    "indexed": false,
                    "internalType": "bool",
                    "name": "approved",
                    "type": "bool"
                }
            ],
            "name": "ApprovalForAll",
            "type": "event"
        },
        {
            "anonymous": false,
            "inputs": [
                {
                    "indexed": true,
                    "internalType": "address",
                    "name": "from",
                    "type": "address"
                },
                {
                    "indexed": true,
                    "internalType": "address",
                    "name": "to",
                    "type": "address"
                },
                {
                    "indexed": true,
                    "internalType": "uint256",
                    "name": "tokenId",
                    "type": "uint256"
                }
            ],
            "name": "Transfer",
            "type": "event"
        },
        {
            "inputs": [
                {
                    "internalType": "address",
                    "name": "to",
                    "type": "address"
                },
                {
                    "internalType": "uint256",
                    "name": "tokenId",
                    "type": "uint256"
                }
            ],
            "name": "approve",
            "outputs": [],
            "stateMutability": "nonpayable",
            "type": "function"
        },
        {
            "inputs": [
                {
                    "internalType": "address",
                    "name": "_owner",
                    "type": "address"
                }
            ],
            "name": "balanceOf",
            "outputs": [
                {
                    "internalType": "uint256",
                    "name": "",
                    "type": "uint256"
                }
            ],
            "stateMutability": "view",
            "type": "function"
        },
        {
            "inputs": [
                {
                    "internalType": "uint256",
                    "name": "tokenId",
                    "type": "uint256"
                }
            ],
            "name": "getApproved",
            "outputs": [
                {
                    "internalType": "address",
                    "name": "",
                    "type": "address"
                }
            ],
            "stateMutability": "view",
            "type": "function"
        },
        {
            "inputs": [
                {
                    "internalType": "address",
                    "name": "owner",
                    "type": "address"
                },
                {
                    "internalType": "address",
                    "name": "operator",
                    "type": "address"
                }
            ],
            "name": "isApprovedForAll",
            "outputs": [
                {
                    "internalType": "bool",
                    "name": "",
                    "type": "bool"
                }
            ],
            "stateMutability": "view",
            "type": "function"
        },
        {
            "inputs": [],
            "name": "name",
            "outputs": [
                {
                    "internalType": "string",
                    "name": "",
                    "type": "string"
                }
            ],
            "stateMutability": "view",
            "type": "function"
        },
        {
            "inputs": [
                {
                    "internalType": "uint256",
                    "name": "tokenId",
                    "type": "uint256"
                }
            ],
            "name": "ownerOf",
            "outputs": [
                {
                    "internalType": "address",
                    "name": "",
                    "type": "address"
                }
            ],
            "stateMutability": "view",
            "type": "function"
        },
        {
            "inputs": [
                {
                    "internalType": "address",
                    "name": "_userAddr",
                    "type": "address"
                }
            ],
            "name": "removeUserAddr",
            "outputs": [],
            "stateMutability": "nonpayable",
            "type": "function"
        },
        {
            "inputs": [
                {
                    "internalType": "address",
                    "name": "from",
                    "type": "address"
                },
                {
                    "internalType": "address",
                    "name": "to",
                    "type": "address"
                },
                {
                    "internalType": "uint256",
                    "name": "tokenId",
                    "type": "uint256"
                }
            ],
            "name": "safeTransferFrom",
            "outputs": [],
            "stateMutability": "nonpayable",
            "type": "function"
        },
        {
            "inputs": [
                {
                    "internalType": "address",
                    "name": "from",
                    "type": "address"
                },
                {
                    "internalType": "address",
                    "name": "to",
                    "type": "address"
                },
                {
                    "internalType": "uint256",
                    "name": "tokenId",
                    "type": "uint256"
                },
                {
                    "internalType": "bytes",
                    "name": "_data",
                    "type": "bytes"
                }
            ],
            "name": "safeTransferFrom",
            "outputs": [],
            "stateMutability": "nonpayable",
            "type": "function"
        },
        {
            "inputs": [
                {
                    "internalType": "address",
                    "name": "operator",
                    "type": "address"
                },
                {
                    "internalType": "bool",
                    "name": "approved",
                    "type": "bool"
                }
            ],
            "name": "setApprovalForAll",
            "outputs": [],
            "stateMutability": "nonpayable",
            "type": "function"
        },
        {
            "inputs": [
                {
                    "internalType": "address",
                    "name": "_userAddr",
                    "type": "address"
                }
            ],
            "name": "setUserAddr",
            "outputs": [],
            "stateMutability": "nonpayable",
            "type": "function"
        },
        {
            "inputs": [
                {
                    "internalType": "bytes4",
                    "name": "interfaceId",
                    "type": "bytes4"
                }
            ],
            "name": "supportsInterface",
            "outputs": [
                {
                    "internalType": "bool",
                    "name": "",
                    "type": "bool"
                }
            ],
            "stateMutability": "view",
            "type": "function"
        },
        {
            "inputs": [],
            "name": "symbol",
            "outputs": [
                {
                    "internalType": "string",
                    "name": "",
                    "type": "string"
                }
            ],
            "stateMutability": "view",
            "type": "function"
        },
        {
            "inputs": [
                {
                    "internalType": "uint256",
                    "name": "tokenId",
                    "type": "uint256"
                }
            ],
            "name": "tokenURI",
            "outputs": [
                {
                    "internalType": "string",
                    "name": "",
                    "type": "string"
                }
            ],
            "stateMutability": "view",
            "type": "function"
        },
        {
            "inputs": [
                {
                    "internalType": "address",
                    "name": "from",
                    "type": "address"
                },
                {
                    "internalType": "address",
                    "name": "to",
                    "type": "address"
                },
                {
                    "internalType": "uint256",
                    "name": "tokenId",
                    "type": "uint256"
                }
            ],
            "name": "transferFrom",
            "outputs": [],
            "stateMutability": "nonpayable",
            "type": "function"
        }
    ],
    "bytecode": "60806040523480156200001157600080fd5b50604080518082018252600f81526e4d7946616b654372617a794675727960881b6020808301918252835180850190945260048452632325a1a360e11b908401528151919291620000659160009162000084565b5080516200007b90600190602084019062000084565b50505062000167565b82805462000092906200012a565b90600052602060002090601f016020900481019282620000b6576000855562000101565b82601f10620000d157805160ff191683800117855562000101565b8280016001018555821562000101579182015b8281111562000101578251825591602001919060010190620000e4565b506200010f92915062000113565b5090565b5b808211156200010f576000815560010162000114565b600181811c908216806200013f57607f821691505b602082108114156200016157634e487b7160e01b600052602260045260246000fd5b50919050565b6112e780620001776000396000f3fe608060405234801561001057600080fd5b50600436106100f55760003560e01c806370a0823111610097578063b92c892f11610066578063b92c892f146101ff578063c87b56dd14610231578063d967282714610244578063e985e9c51461025757600080fd5b806370a08231146101b057806395d89b41146101d1578063a22cb465146101d9578063b88d4fde146101ec57600080fd5b8063095ea7b3116100d3578063095ea7b31461016257806323b872dd1461017757806342842e0e1461018a5780636352211e1461019d57600080fd5b806301ffc9a7146100fa57806306fdde0314610122578063081812fc14610137575b600080fd5b61010d610108366004610fdf565b610293565b60405190151581526020015b60405180910390f35b61012a6102e5565b60405161011991906110c7565b61014a610145366004611017565b610377565b6040516001600160a01b039091168152602001610119565b610175610170366004610fb6565b610411565b005b610175610185366004610e6c565b610527565b610175610198366004610e6c565b610558565b61014a6101ab366004611017565b610573565b6101c36101be366004610e20565b6105ea565b604051908152602001610119565b61012a61061b565b6101756101e7366004610f7c565b61062a565b6101756101fa366004610ea7565b610639565b61017561020d366004610e20565b6001600160a01b03166000908152600660205260409020805460ff19166001179055565b61012a61023f366004611017565b610671565b610175610252366004610e20565b610759565b61010d610265366004610e3a565b6001600160a01b03918216600090815260056020908152604080832093909416825291909152205460ff1690565b60006001600160e01b031982166380ac58cd60e01b14806102c457506001600160e01b03198216635b5e139f60e01b145b806102df57506301ffc9a760e01b6001600160e01b03198316145b92915050565b6060600080546102f4906111ec565b80601f0160208091040260200160405190810160405280929190818152602001828054610320906111ec565b801561036d5780601f106103425761010080835404028352916020019161036d565b820191906000526020600020905b81548152906001019060200180831161035057829003601f168201915b5050505050905090565b6000818152600260205260408120546001600160a01b03166103f55760405162461bcd60e51b815260206004820152602c60248201527f4552433732313a20617070726f76656420717565727920666f72206e6f6e657860448201526b34b9ba32b73a103a37b5b2b760a11b60648201526084015b60405180910390fd5b506000908152600460205260409020546001600160a01b031690565b600061041c82610573565b9050806001600160a01b0316836001600160a01b0316141561048a5760405162461bcd60e51b815260206004820152602160248201527f4552433732313a20617070726f76616c20746f2063757272656e74206f776e656044820152603960f91b60648201526084016103ec565b336001600160a01b03821614806104a657506104a68133610265565b6105185760405162461bcd60e51b815260206004820152603860248201527f4552433732313a20617070726f76652063616c6c6572206973206e6f74206f7760448201527f6e6572206e6f7220617070726f76656420666f7220616c6c000000000000000060648201526084016103ec565b61052283836107da565b505050565b6105313382610848565b61054d5760405162461bcd60e51b81526004016103ec9061112c565b61052283838361093f565b61052283838360405180602001604052806000815250610639565b6000818152600260205260408120546001600160a01b0316806102df5760405162461bcd60e51b815260206004820152602960248201527f4552433732313a206f776e657220717565727920666f72206e6f6e657869737460448201526832b73a103a37b5b2b760b91b60648201526084016103ec565b6001600160a01b03811660009081526006602052604081205460ff161561061357506001919050565b506000919050565b6060600180546102f4906111ec565b610635338383610adb565b5050565b6106433383610848565b61065f5760405162461bcd60e51b81526004016103ec9061112c565b61066b84848484610baa565b50505050565b6000818152600260205260409020546060906001600160a01b03166106f05760405162461bcd60e51b815260206004820152602f60248201527f4552433732314d657461646174613a2055524920717565727920666f72206e6f60448201526e3732bc34b9ba32b73a103a37b5b2b760891b60648201526084016103ec565b600061070760408051602081019091526000815290565b905060008151116107275760405180602001604052806000815250610752565b8061073184610bdd565b60405160200161074292919061105b565b6040516020818303038152906040525b9392505050565b6001600160a01b03811660009081526006602052604090205460ff166107b95760405162461bcd60e51b8152602060048201526015602482015274139bc8155cd95c881859191c995cdcc8199bdd5b99605a1b60448201526064016103ec565b6001600160a01b03166000908152600660205260409020805460ff19169055565b600081815260046020526040902080546001600160a01b0319166001600160a01b038416908117909155819061080f82610573565b6001600160a01b03167f8c5be1e5ebec7d5bd14f71427d1e84f3dd0314c0f7b2291e5b200ac8c7c3b92560405160405180910390a45050565b6000818152600260205260408120546001600160a01b03166108c15760405162461bcd60e51b815260206004820152602c60248201527f4552433732313a206f70657261746f7220717565727920666f72206e6f6e657860448201526b34b9ba32b73a103a37b5b2b760a11b60648201526084016103ec565b60006108cc83610573565b9050806001600160a01b0316846001600160a01b0316148061091357506001600160a01b0380821660009081526005602090815260408083209388168352929052205460ff165b806109375750836001600160a01b031661092c84610377565b6001600160a01b0316145b949350505050565b826001600160a01b031661095282610573565b6001600160a01b0316146109b65760405162461bcd60e51b815260206004820152602560248201527f4552433732313a207472616e736665722066726f6d20696e636f72726563742060448201526437bbb732b960d91b60648201526084016103ec565b6001600160a01b038216610a185760405162461bcd60e51b8152602060048201526024808201527f4552433732313a207472616e7366657220746f20746865207a65726f206164646044820152637265737360e01b60648201526084016103ec565b610a236000826107da565b6001600160a01b0383166000908152600360205260408120805460019290610a4c9084906111a9565b90915550506001600160a01b0382166000908152600360205260408120805460019290610a7a90849061117d565b909155505060008181526002602052604080822080546001600160a01b0319166001600160a01b0386811691821790925591518493918716917fddf252ad1be2c89b69c2b068fc378daa952ba7f163c4a11628f55a4df523b3ef91a4505050565b816001600160a01b0316836001600160a01b03161415610b3d5760405162461bcd60e51b815260206004820152601960248201527f4552433732313a20617070726f766520746f2063616c6c65720000000000000060448201526064016103ec565b6001600160a01b03838116600081815260056020908152604080832094871680845294825291829020805460ff191686151590811790915591519182527f17307eab39ab6107e8899845ad3d59bd9653f200f220920489ca2b5937696c31910160405180910390a3505050565b610bb584848461093f565b610bc184848484610cf7565b61066b5760405162461bcd60e51b81526004016103ec906110da565b606081610c015750506040805180820190915260018152600360fc1b602082015290565b8160005b8115610c2b5780610c1581611227565b9150610c249050600a83611195565b9150610c05565b60008167ffffffffffffffff811115610c5457634e487b7160e01b600052604160045260246000fd5b6040519080825280601f01601f191660200182016040528015610c7e576020820181803683370190505b5090505b841561093757610c936001836111a9565b9150610ca0600a86611242565b610cab90603061117d565b60f81b818381518110610cce57634e487b7160e01b600052603260045260246000fd5b60200101906001600160f81b031916908160001a905350610cf0600a86611195565b9450610c82565b60006001600160a01b0384163b15610df957604051630a85bd0160e11b81526001600160a01b0385169063150b7a0290610d3b90339089908890889060040161108a565b602060405180830381600087803b158015610d5557600080fd5b505af1925050508015610d85575060408051601f3d908101601f19168201909252610d8291810190610ffb565b60015b610ddf573d808015610db3576040519150601f19603f3d011682016040523d82523d6000602084013e610db8565b606091505b508051610dd75760405162461bcd60e51b81526004016103ec906110da565b805181602001fd5b6001600160e01b031916630a85bd0160e11b149050610937565b506001949350505050565b80356001600160a01b0381168114610e1b57600080fd5b919050565b600060208284031215610e31578081fd5b61075282610e04565b60008060408385031215610e4c578081fd5b610e5583610e04565b9150610e6360208401610e04565b90509250929050565b600080600060608486031215610e80578081fd5b610e8984610e04565b9250610e9760208501610e04565b9150604084013590509250925092565b60008060008060808587031215610ebc578081fd5b610ec585610e04565b9350610ed360208601610e04565b925060408501359150606085013567ffffffffffffffff80821115610ef6578283fd5b818701915087601f830112610f09578283fd5b813581811115610f1b57610f1b611282565b604051601f8201601f19908116603f01168101908382118183101715610f4357610f43611282565b816040528281528a6020848701011115610f5b578586fd5b82602086016020830137918201602001949094529598949750929550505050565b60008060408385031215610f8e578182fd5b610f9783610e04565b915060208301358015158114610fab578182fd5b809150509250929050565b60008060408385031215610fc8578182fd5b610fd183610e04565b946020939093013593505050565b600060208284031215610ff0578081fd5b813561075281611298565b60006020828403121561100c578081fd5b815161075281611298565b600060208284031215611028578081fd5b5035919050565b600081518084526110478160208601602086016111c0565b601f01601f19169290920160200192915050565b6000835161106d8184602088016111c0565b8351908301906110818183602088016111c0565b01949350505050565b6001600160a01b03858116825284166020820152604081018390526080606082018190526000906110bd9083018461102f565b9695505050505050565b602081526000610752602083018461102f565b60208082526032908201527f4552433732313a207472616e7366657220746f206e6f6e20455243373231526560408201527131b2b4bb32b91034b6b83632b6b2b73a32b960711b606082015260800190565b60208082526031908201527f4552433732313a207472616e736665722063616c6c6572206973206e6f74206f6040820152701ddb995c881b9bdc88185c1c1c9bdd9959607a1b606082015260800190565b6000821982111561119057611190611256565b500190565b6000826111a4576111a461126c565b500490565b6000828210156111bb576111bb611256565b500390565b60005b838110156111db5781810151838201526020016111c3565b8381111561066b5750506000910152565b600181811c9082168061120057607f821691505b6020821081141561122157634e487b7160e01b600052602260045260246000fd5b50919050565b600060001982141561123b5761123b611256565b5060010190565b6000826112515761125161126c565b500690565b634e487b7160e01b600052601160045260246000fd5b634e487b7160e01b600052601260045260246000fd5b634e487b7160e01b600052604160045260246000fd5b6001600160e01b0319811681146112ae57600080fd5b5056fea2646970667358221220b5dfc47a5af894a7a72ae460afadc02cfc20d65483b612619b07a96f37e8e40964736f6c63430008040033",
    "sourcePath": "c:/Devocracy/crazyfurymaps/contracts/MyFakeCrazyFury.sol",
    "compiler": {
        "name": "solc",
        "version": "0.8.4+commit.c7e474f2"
    },
    "functionHashes": {
        "approve(address,uint256)": "095ea7b3",
        "balanceOf(address)": "70a08231",
        "getApproved(uint256)": "081812fc",
        "isApprovedForAll(address,address)": "e985e9c5",
        "name()": "06fdde03",
        "ownerOf(uint256)": "6352211e",
        "removeUserAddr(address)": "d9672827",
        "safeTransferFrom(address,address,uint256)": "42842e0e",
        "safeTransferFrom(address,address,uint256,bytes)": "b88d4fde",
        "setApprovalForAll(address,bool)": "a22cb465",
        "setUserAddr(address)": "b92c892f",
        "supportsInterface(bytes4)": "01ffc9a7",
        "symbol()": "95d89b41",
        "tokenURI(uint256)": "c87b56dd",
        "transferFrom(address,address,uint256)": "23b872dd"
    },
    "gasEstimates": {
        "creation": {
            "codeDepositCost": "967800",
            "executionCost": "infinite",
            "totalCost": "infinite"
        },
        "external": {
            "approve(address,uint256)": "infinite",
            "balanceOf(address)": "1308",
            "getApproved(uint256)": "2160",
            "isApprovedForAll(address,address)": "infinite",
            "name()": "infinite",
            "ownerOf(uint256)": "1345",
            "removeUserAddr(address)": "22180",
            "safeTransferFrom(address,address,uint256)": "infinite",
            "safeTransferFrom(address,address,uint256,bytes)": "infinite",
            "setApprovalForAll(address,bool)": "23353",
            "setUserAddr(address)": "21220",
            "supportsInterface(bytes4)": "534",
            "symbol()": "infinite",
            "tokenURI(uint256)": "infinite",
            "transferFrom(address,address,uint256)": "infinite"
        }
    }
}