{
  "_format": "hh-sol-artifact-1",
  "contractName": "MyFakeCrazyFuryNFT",
  "sourceName": "contracts/MyFakeCrazyFuryNFT.sol",
  "abi": [
    {
      "inputs": [],
      "stateMutability": "nonpayable",
      "type": "constructor"
    },
    {
      "anonymous": false,
      "inputs": [
        {
          "indexed": true,
          "internalType": "address",
          "name": "owner",
          "type": "address"
        },
        {
          "indexed": true,
          "internalType": "address",
          "name": "approved",
          "type": "address"
        },
        {
          "indexed": true,
          "internalType": "uint256",
          "name": "tokenId",
          "type": "uint256"
        }
      ],
      "name": "Approval",
      "type": "event"
    },
    {
      "anonymous": false,
      "inputs": [
        {
          "indexed": true,
          "internalType": "address",
          "name": "owner",
          "type": "address"
        },
        {
          "indexed": true,
          "internalType": "address",
          "name": "operator",
          "type": "address"
        },
        {
          "indexed": false,
          "internalType": "bool",
          "name": "approved",
          "type": "bool"
        }
      ],
      "name": "ApprovalForAll",
      "type": "event"
    },
    {
      "anonymous": false,
      "inputs": [
        {
          "indexed": true,
          "internalType": "address",
          "name": "from",
          "type": "address"
        },
        {
          "indexed": true,
          "internalType": "address",
          "name": "to",
          "type": "address"
        },
        {
          "indexed": true,
          "internalType": "uint256",
          "name": "tokenId",
          "type": "uint256"
        }
      ],
      "name": "Transfer",
      "type": "event"
    },
    {
      "inputs": [
        {
          "internalType": "address",
          "name": "to",
          "type": "address"
        },
        {
          "internalType": "uint256",
          "name": "tokenId",
          "type": "uint256"
        }
      ],
      "name": "approve",
      "outputs": [],
      "stateMutability": "nonpayable",
      "type": "function"
    },
    {
      "inputs": [
        {
          "internalType": "address",
          "name": "owner",
          "type": "address"
        }
      ],
      "name": "balanceOf",
      "outputs": [
        {
          "internalType": "uint256",
          "name": "",
          "type": "uint256"
        }
      ],
      "stateMutability": "view",
      "type": "function"
    },
    {
      "inputs": [
        {
          "internalType": "uint256",
          "name": "tokenId",
          "type": "uint256"
        }
      ],
      "name": "getApproved",
      "outputs": [
        {
          "internalType": "address",
          "name": "",
          "type": "address"
        }
      ],
      "stateMutability": "view",
      "type": "function"
    },
    {
      "inputs": [
        {
          "internalType": "address",
          "name": "owner",
          "type": "address"
        },
        {
          "internalType": "address",
          "name": "operator",
          "type": "address"
        }
      ],
      "name": "isApprovedForAll",
      "outputs": [
        {
          "internalType": "bool",
          "name": "",
          "type": "bool"
        }
      ],
      "stateMutability": "view",
      "type": "function"
    },
    {
      "inputs": [
        {
          "internalType": "address",
          "name": "to",
          "type": "address"
        },
        {
          "internalType": "uint256",
          "name": "tokenId",
          "type": "uint256"
        }
      ],
      "name": "mint",
      "outputs": [],
      "stateMutability": "nonpayable",
      "type": "function"
    },
    {
      "inputs": [
        {
          "internalType": "address",
          "name": "from",
          "type": "address"
        },
        {
          "internalType": "address",
          "name": "to",
          "type": "address"
        },
        {
          "internalType": "uint256",
          "name": "tokenId",
          "type": "uint256"
        }
      ],
      "name": "mySafeTransferFrom",
      "outputs": [],
      "stateMutability": "nonpayable",
      "type": "function"
    },
    {
      "inputs": [],
      "name": "name",
      "outputs": [
        {
          "internalType": "string",
          "name": "",
          "type": "string"
        }
      ],
      "stateMutability": "view",
      "type": "function"
    },
    {
      "inputs": [
        {
          "internalType": "uint256",
          "name": "tokenId",
          "type": "uint256"
        }
      ],
      "name": "ownerOf",
      "outputs": [
        {
          "internalType": "address",
          "name": "",
          "type": "address"
        }
      ],
      "stateMutability": "view",
      "type": "function"
    },
    {
      "inputs": [
        {
          "internalType": "address",
          "name": "from",
          "type": "address"
        },
        {
          "internalType": "address",
          "name": "to",
          "type": "address"
        },
        {
          "internalType": "uint256",
          "name": "tokenId",
          "type": "uint256"
        }
      ],
      "name": "safeTransferFrom",
      "outputs": [],
      "stateMutability": "nonpayable",
      "type": "function"
    },
    {
      "inputs": [
        {
          "internalType": "address",
          "name": "from",
          "type": "address"
        },
        {
          "internalType": "address",
          "name": "to",
          "type": "address"
        },
        {
          "internalType": "uint256",
          "name": "tokenId",
          "type": "uint256"
        },
        {
          "internalType": "bytes",
          "name": "_data",
          "type": "bytes"
        }
      ],
      "name": "safeTransferFrom",
      "outputs": [],
      "stateMutability": "nonpayable",
      "type": "function"
    },
    {
      "inputs": [
        {
          "internalType": "address",
          "name": "operator",
          "type": "address"
        },
        {
          "internalType": "bool",
          "name": "approved",
          "type": "bool"
        }
      ],
      "name": "setApprovalForAll",
      "outputs": [],
      "stateMutability": "nonpayable",
      "type": "function"
    },
    {
      "inputs": [
        {
          "internalType": "bytes4",
          "name": "interfaceId",
          "type": "bytes4"
        }
      ],
      "name": "supportsInterface",
      "outputs": [
        {
          "internalType": "bool",
          "name": "",
          "type": "bool"
        }
      ],
      "stateMutability": "view",
      "type": "function"
    },
    {
      "inputs": [],
      "name": "symbol",
      "outputs": [
        {
          "internalType": "string",
          "name": "",
          "type": "string"
        }
      ],
      "stateMutability": "view",
      "type": "function"
    },
    {
      "inputs": [
        {
          "internalType": "uint256",
          "name": "index",
          "type": "uint256"
        }
      ],
      "name": "tokenByIndex",
      "outputs": [
        {
          "internalType": "uint256",
          "name": "",
          "type": "uint256"
        }
      ],
      "stateMutability": "view",
      "type": "function"
    },
    {
      "inputs": [
        {
          "internalType": "address",
          "name": "owner",
          "type": "address"
        },
        {
          "internalType": "uint256",
          "name": "index",
          "type": "uint256"
        }
      ],
      "name": "tokenOfOwnerByIndex",
      "outputs": [
        {
          "internalType": "uint256",
          "name": "",
          "type": "uint256"
        }
      ],
      "stateMutability": "view",
      "type": "function"
    },
    {
      "inputs": [
        {
          "internalType": "uint256",
          "name": "tokenId",
          "type": "uint256"
        }
      ],
      "name": "tokenURI",
      "outputs": [
        {
          "internalType": "string",
          "name": "",
          "type": "string"
        }
      ],
      "stateMutability": "view",
      "type": "function"
    },
    {
      "inputs": [],
      "name": "totalSupply",
      "outputs": [
        {
          "internalType": "uint256",
          "name": "",
          "type": "uint256"
        }
      ],
      "stateMutability": "view",
      "type": "function"
    },
    {
      "inputs": [
        {
          "internalType": "address",
          "name": "from",
          "type": "address"
        },
        {
          "internalType": "address",
          "name": "to",
          "type": "address"
        },
        {
          "internalType": "uint256",
          "name": "tokenId",
          "type": "uint256"
        }
      ],
      "name": "transferFrom",
      "outputs": [],
      "stateMutability": "nonpayable",
      "type": "function"
    }
  ],
  "bytecode": "0x60806040523480156200001157600080fd5b506040518060400160405280601281526020017f4d7946616b654372617a79467572794e465400000000000000000000000000008152506040518060400160405280600381526020017f464346000000000000000000000000000000000000000000000000000000000081525081600090816200008f919062000324565b508060019081620000a1919062000324565b5050506200040b565b600081519050919050565b7f4e487b7100000000000000000000000000000000000000000000000000000000600052604160045260246000fd5b7f4e487b7100000000000000000000000000000000000000000000000000000000600052602260045260246000fd5b600060028204905060018216806200012c57607f821691505b602082108103620001425762000141620000e4565b5b50919050565b60008190508160005260206000209050919050565b60006020601f8301049050919050565b600082821b905092915050565b600060088302620001ac7fffffffffffffffffffffffffffffffffffffffffffffffffffffffffffffffff826200016d565b620001b886836200016d565b95508019841693508086168417925050509392505050565b6000819050919050565b6000819050919050565b600062000205620001ff620001f984620001d0565b620001da565b620001d0565b9050919050565b6000819050919050565b6200022183620001e4565b6200023962000230826200020c565b8484546200017a565b825550505050565b600090565b6200025062000241565b6200025d81848462000216565b505050565b5b8181101562000285576200027960008262000246565b60018101905062000263565b5050565b601f821115620002d4576200029e8162000148565b620002a9846200015d565b81016020851015620002b9578190505b620002d1620002c8856200015d565b83018262000262565b50505b505050565b600082821c905092915050565b6000620002f960001984600802620002d9565b1980831691505092915050565b6000620003148383620002e6565b9150826002028217905092915050565b6200032f82620000aa565b67ffffffffffffffff8111156200034b576200034a620000b5565b5b62000357825462000113565b6200036482828562000289565b600060209050601f8311600181146200039c576000841562000387578287015190505b62000393858262000306565b86555062000403565b601f198416620003ac8662000148565b60005b82811015620003d657848901518255600182019150602085019450602081019050620003af565b86831015620003f65784890151620003f2601f891682620002e6565b8355505b6001600288020188555050505b505050505050565b612f08806200041b6000396000f3fe608060405234801561001057600080fd5b50600436106101165760003560e01c80634f6ccce7116100a2578063a22cb46511610071578063a22cb46514610305578063b88d4fde14610321578063c87b56dd1461033d578063de6252de1461036d578063e985e9c51461038957610116565b80634f6ccce7146102575780636352211e1461028757806370a08231146102b757806395d89b41146102e757610116565b806318160ddd116100e957806318160ddd146101b557806323b872dd146101d35780632f745c59146101ef57806340c10f191461021f57806342842e0e1461023b57610116565b806301ffc9a71461011b57806306fdde031461014b578063081812fc14610169578063095ea7b314610199575b600080fd5b61013560048036038101906101309190611d65565b6103b9565b6040516101429190611dad565b60405180910390f35b610153610433565b6040516101609190611e58565b60405180910390f35b610183600480360381019061017e9190611eb0565b6104c5565b6040516101909190611f1e565b60405180910390f35b6101b360048036038101906101ae9190611f65565b61054a565b005b6101bd610661565b6040516101ca9190611fb4565b60405180910390f35b6101ed60048036038101906101e89190611fcf565b61066e565b005b61020960048036038101906102049190611f65565b6106ce565b6040516102169190611fb4565b60405180910390f35b61023960048036038101906102349190611f65565b610773565b005b61025560048036038101906102509190611fcf565b610781565b005b610271600480360381019061026c9190611eb0565b6107a1565b60405161027e9190611fb4565b60405180910390f35b6102a1600480360381019061029c9190611eb0565b610812565b6040516102ae9190611f1e565b60405180910390f35b6102d160048036038101906102cc9190612022565b6108c3565b6040516102de9190611fb4565b60405180910390f35b6102ef61097a565b6040516102fc9190611e58565b60405180910390f35b61031f600480360381019061031a919061207b565b610a0c565b005b61033b600480360381019061033691906121f0565b610a22565b005b61035760048036038101906103529190611eb0565b610a84565b6040516103649190611e58565b60405180910390f35b61038760048036038101906103829190611fcf565b610b2b565b005b6103a3600480360381019061039e9190612273565b610b4b565b6040516103b09190611dad565b60405180910390f35b60007f780e9d63000000000000000000000000000000000000000000000000000000007bffffffffffffffffffffffffffffffffffffffffffffffffffffffff1916827bffffffffffffffffffffffffffffffffffffffffffffffffffffffff1916148061042c575061042b82610bdf565b5b9050919050565b606060008054610442906122e2565b80601f016020809104026020016040519081016040528092919081815260200182805461046e906122e2565b80156104bb5780601f10610490576101008083540402835291602001916104bb565b820191906000526020600020905b81548152906001019060200180831161049e57829003601f168201915b5050505050905090565b60006104d082610cc1565b61050f576040517f08c379a000000000000000000000000000000000000000000000000000000000815260040161050690612385565b60405180910390fd5b6004600083815260200190815260200160002060009054906101000a900473ffffffffffffffffffffffffffffffffffffffff169050919050565b600061055582610812565b90508073ffffffffffffffffffffffffffffffffffffffff168373ffffffffffffffffffffffffffffffffffffffff16036105c5576040517f08c379a00000000000000000000000000000000000000000000000000000000081526004016105bc90612417565b60405180910390fd5b8073ffffffffffffffffffffffffffffffffffffffff166105e4610d2d565b73ffffffffffffffffffffffffffffffffffffffff16148061061357506106128161060d610d2d565b610b4b565b5b610652576040517f08c379a0000000000000000000000000000000000000000000000000000000008152600401610649906124a9565b60405180910390fd5b61065c8383610d35565b505050565b6000600880549050905090565b61067f610679610d2d565b82610dee565b6106be576040517f08c379a00000000000000000000000000000000000000000000000000000000081526004016106b59061253b565b60405180910390fd5b6106c9838383610ecc565b505050565b60006106d9836108c3565b821061071a576040517f08c379a0000000000000000000000000000000000000000000000000000000008152600401610711906125cd565b60405180910390fd5b600660008473ffffffffffffffffffffffffffffffffffffffff1673ffffffffffffffffffffffffffffffffffffffff168152602001908152602001600020600083815260200190815260200160002054905092915050565b61077d8282611132565b5050565b61079c83838360405180602001604052806000815250610a22565b505050565b60006107ab610661565b82106107ec576040517f08c379a00000000000000000000000000000000000000000000000000000000081526004016107e39061265f565b60405180910390fd5b60088281548110610800576107ff61267f565b5b90600052602060002001549050919050565b6000806002600084815260200190815260200160002060009054906101000a900473ffffffffffffffffffffffffffffffffffffffff169050600073ffffffffffffffffffffffffffffffffffffffff168173ffffffffffffffffffffffffffffffffffffffff16036108ba576040517f08c379a00000000000000000000000000000000000000000000000000000000081526004016108b190612720565b60405180910390fd5b80915050919050565b60008073ffffffffffffffffffffffffffffffffffffffff168273ffffffffffffffffffffffffffffffffffffffff1603610933576040517f08c379a000000000000000000000000000000000000000000000000000000000815260040161092a906127b2565b60405180910390fd5b600360008373ffffffffffffffffffffffffffffffffffffffff1673ffffffffffffffffffffffffffffffffffffffff168152602001908152602001600020549050919050565b606060018054610989906122e2565b80601f01602080910402602001604051908101604052809291908181526020018280546109b5906122e2565b8015610a025780601f106109d757610100808354040283529160200191610a02565b820191906000526020600020905b8154815290600101906020018083116109e557829003601f168201915b5050505050905090565b610a1e610a17610d2d565b8383611150565b5050565b610a33610a2d610d2d565b83610dee565b610a72576040517f08c379a0000000000000000000000000000000000000000000000000000000008152600401610a699061253b565b60405180910390fd5b610a7e848484846112bc565b50505050565b6060610a8f82610cc1565b610ace576040517f08c379a0000000000000000000000000000000000000000000000000000000008152600401610ac590612844565b60405180910390fd5b6000610ad8611318565b90506000815111610af85760405180602001604052806000815250610b23565b80610b028461132f565b604051602001610b139291906128a0565b6040516020818303038152906040525b915050919050565b610b4683838360405180602001604052806000815250610a22565b505050565b6000600560008473ffffffffffffffffffffffffffffffffffffffff1673ffffffffffffffffffffffffffffffffffffffff16815260200190815260200160002060008373ffffffffffffffffffffffffffffffffffffffff1673ffffffffffffffffffffffffffffffffffffffff16815260200190815260200160002060009054906101000a900460ff16905092915050565b60007f80ac58cd000000000000000000000000000000000000000000000000000000007bffffffffffffffffffffffffffffffffffffffffffffffffffffffff1916827bffffffffffffffffffffffffffffffffffffffffffffffffffffffff19161480610caa57507f5b5e139f000000000000000000000000000000000000000000000000000000007bffffffffffffffffffffffffffffffffffffffffffffffffffffffff1916827bffffffffffffffffffffffffffffffffffffffffffffffffffffffff1916145b80610cba5750610cb98261148f565b5b9050919050565b60008073ffffffffffffffffffffffffffffffffffffffff166002600084815260200190815260200160002060009054906101000a900473ffffffffffffffffffffffffffffffffffffffff1673ffffffffffffffffffffffffffffffffffffffff1614159050919050565b600033905090565b816004600083815260200190815260200160002060006101000a81548173ffffffffffffffffffffffffffffffffffffffff021916908373ffffffffffffffffffffffffffffffffffffffff160217905550808273ffffffffffffffffffffffffffffffffffffffff16610da883610812565b73ffffffffffffffffffffffffffffffffffffffff167f8c5be1e5ebec7d5bd14f71427d1e84f3dd0314c0f7b2291e5b200ac8c7c3b92560405160405180910390a45050565b6000610df982610cc1565b610e38576040517f08c379a0000000000000000000000000000000000000000000000000000000008152600401610e2f90612936565b60405180910390fd5b6000610e4383610812565b90508073ffffffffffffffffffffffffffffffffffffffff168473ffffffffffffffffffffffffffffffffffffffff161480610e855750610e848185610b4b565b5b80610ec357508373ffffffffffffffffffffffffffffffffffffffff16610eab846104c5565b73ffffffffffffffffffffffffffffffffffffffff16145b91505092915050565b8273ffffffffffffffffffffffffffffffffffffffff16610eec82610812565b73ffffffffffffffffffffffffffffffffffffffff1614610f42576040517f08c379a0000000000000000000000000000000000000000000000000000000008152600401610f39906129c8565b60405180910390fd5b600073ffffffffffffffffffffffffffffffffffffffff168273ffffffffffffffffffffffffffffffffffffffff1603610fb1576040517f08c379a0000000000000000000000000000000000000000000000000000000008152600401610fa890612a5a565b60405180910390fd5b610fbc8383836114f9565b610fc7600082610d35565b6001600360008573ffffffffffffffffffffffffffffffffffffffff1673ffffffffffffffffffffffffffffffffffffffff16815260200190815260200160002060008282546110179190612aa9565b925050819055506001600360008473ffffffffffffffffffffffffffffffffffffffff1673ffffffffffffffffffffffffffffffffffffffff168152602001908152602001600020600082825461106e9190612add565b92505081905550816002600083815260200190815260200160002060006101000a81548173ffffffffffffffffffffffffffffffffffffffff021916908373ffffffffffffffffffffffffffffffffffffffff160217905550808273ffffffffffffffffffffffffffffffffffffffff168473ffffffffffffffffffffffffffffffffffffffff167fddf252ad1be2c89b69c2b068fc378daa952ba7f163c4a11628f55a4df523b3ef60405160405180910390a461112d83838361160b565b505050565b61114c828260405180602001604052806000815250611610565b5050565b8173ffffffffffffffffffffffffffffffffffffffff168373ffffffffffffffffffffffffffffffffffffffff16036111be576040517f08c379a00000000000000000000000000000000000000000000000000000000081526004016111b590612b5d565b60405180910390fd5b80600560008573ffffffffffffffffffffffffffffffffffffffff1673ffffffffffffffffffffffffffffffffffffffff16815260200190815260200160002060008473ffffffffffffffffffffffffffffffffffffffff1673ffffffffffffffffffffffffffffffffffffffff16815260200190815260200160002060006101000a81548160ff0219169083151502179055508173ffffffffffffffffffffffffffffffffffffffff168373ffffffffffffffffffffffffffffffffffffffff167f17307eab39ab6107e8899845ad3d59bd9653f200f220920489ca2b5937696c31836040516112af9190611dad565b60405180910390a3505050565b6112c7848484610ecc565b6112d38484848461166b565b611312576040517f08c379a000000000000000000000000000000000000000000000000000000000815260040161130990612bef565b60405180910390fd5b50505050565b606060405180602001604052806000815250905090565b606060008203611376576040518060400160405280600181526020017f3000000000000000000000000000000000000000000000000000000000000000815250905061148a565b600082905060005b600082146113a857808061139190612c0f565b915050600a826113a19190612c86565b915061137e565b60008167ffffffffffffffff8111156113c4576113c36120c5565b5b6040519080825280601f01601f1916602001820160405280156113f65781602001600182028036833780820191505090505b5090505b600085146114835760018261140f9190612aa9565b9150600a8561141e9190612cb7565b603061142a9190612add565b60f81b8183815181106114405761143f61267f565b5b60200101907effffffffffffffffffffffffffffffffffffffffffffffffffffffffffffff1916908160001a905350600a8561147c9190612c86565b94506113fa565b8093505050505b919050565b60007f01ffc9a7000000000000000000000000000000000000000000000000000000007bffffffffffffffffffffffffffffffffffffffffffffffffffffffff1916827bffffffffffffffffffffffffffffffffffffffffffffffffffffffff1916149050919050565b6115048383836117f2565b600073ffffffffffffffffffffffffffffffffffffffff168373ffffffffffffffffffffffffffffffffffffffff160361154657611541816117f7565b611585565b8173ffffffffffffffffffffffffffffffffffffffff168373ffffffffffffffffffffffffffffffffffffffff1614611584576115838382611840565b5b5b600073ffffffffffffffffffffffffffffffffffffffff168273ffffffffffffffffffffffffffffffffffffffff16036115c7576115c2816119ad565b611606565b8273ffffffffffffffffffffffffffffffffffffffff168273ffffffffffffffffffffffffffffffffffffffff1614611605576116048282611a7e565b5b5b505050565b505050565b61161a8383611afd565b611627600084848461166b565b611666576040517f08c379a000000000000000000000000000000000000000000000000000000000815260040161165d90612bef565b60405180910390fd5b505050565b600061168c8473ffffffffffffffffffffffffffffffffffffffff16611cd6565b156117e5578373ffffffffffffffffffffffffffffffffffffffff1663150b7a026116b5610d2d565b8786866040518563ffffffff1660e01b81526004016116d79493929190612d3d565b6020604051808303816000875af192505050801561171357506040513d601f19601f820116820180604052508101906117109190612d9e565b60015b611795573d8060008114611743576040519150601f19603f3d011682016040523d82523d6000602084013e611748565b606091505b50600081510361178d576040517f08c379a000000000000000000000000000000000000000000000000000000000815260040161178490612bef565b60405180910390fd5b805181602001fd5b63150b7a0260e01b7bffffffffffffffffffffffffffffffffffffffffffffffffffffffff1916817bffffffffffffffffffffffffffffffffffffffffffffffffffffffff1916149150506117ea565b600190505b949350505050565b505050565b6008805490506009600083815260200190815260200160002081905550600881908060018154018082558091505060019003906000526020600020016000909190919091505550565b6000600161184d846108c3565b6118579190612aa9565b905060006007600084815260200190815260200160002054905081811461193c576000600660008673ffffffffffffffffffffffffffffffffffffffff1673ffffffffffffffffffffffffffffffffffffffff168152602001908152602001600020600084815260200190815260200160002054905080600660008773ffffffffffffffffffffffffffffffffffffffff1673ffffffffffffffffffffffffffffffffffffffff168152602001908152602001600020600084815260200190815260200160002081905550816007600083815260200190815260200160002081905550505b6007600084815260200190815260200160002060009055600660008573ffffffffffffffffffffffffffffffffffffffff1673ffffffffffffffffffffffffffffffffffffffff16815260200190815260200160002060008381526020019081526020016000206000905550505050565b600060016008805490506119c19190612aa9565b90506000600960008481526020019081526020016000205490506000600883815481106119f1576119f061267f565b5b906000526020600020015490508060088381548110611a1357611a1261267f565b5b906000526020600020018190555081600960008381526020019081526020016000208190555060096000858152602001908152602001600020600090556008805480611a6257611a61612dcb565b5b6001900381819060005260206000200160009055905550505050565b6000611a89836108c3565b905081600660008573ffffffffffffffffffffffffffffffffffffffff1673ffffffffffffffffffffffffffffffffffffffff168152602001908152602001600020600083815260200190815260200160002081905550806007600084815260200190815260200160002081905550505050565b600073ffffffffffffffffffffffffffffffffffffffff168273ffffffffffffffffffffffffffffffffffffffff1603611b6c576040517f08c379a0000000000000000000000000000000000000000000000000000000008152600401611b6390612e46565b60405180910390fd5b611b7581610cc1565b15611bb5576040517f08c379a0000000000000000000000000000000000000000000000000000000008152600401611bac90612eb2565b60405180910390fd5b611bc1600083836114f9565b6001600360008473ffffffffffffffffffffffffffffffffffffffff1673ffffffffffffffffffffffffffffffffffffffff1681526020019081526020016000206000828254611c119190612add565b92505081905550816002600083815260200190815260200160002060006101000a81548173ffffffffffffffffffffffffffffffffffffffff021916908373ffffffffffffffffffffffffffffffffffffffff160217905550808273ffffffffffffffffffffffffffffffffffffffff16600073ffffffffffffffffffffffffffffffffffffffff167fddf252ad1be2c89b69c2b068fc378daa952ba7f163c4a11628f55a4df523b3ef60405160405180910390a4611cd26000838361160b565b5050565b6000808273ffffffffffffffffffffffffffffffffffffffff163b119050919050565b6000604051905090565b600080fd5b600080fd5b60007fffffffff0000000000000000000000000000000000000000000000000000000082169050919050565b611d4281611d0d565b8114611d4d57600080fd5b50565b600081359050611d5f81611d39565b92915050565b600060208284031215611d7b57611d7a611d03565b5b6000611d8984828501611d50565b91505092915050565b60008115159050919050565b611da781611d92565b82525050565b6000602082019050611dc26000830184611d9e565b92915050565b600081519050919050565b600082825260208201905092915050565b60005b83811015611e02578082015181840152602081019050611de7565b60008484015250505050565b6000601f19601f8301169050919050565b6000611e2a82611dc8565b611e348185611dd3565b9350611e44818560208601611de4565b611e4d81611e0e565b840191505092915050565b60006020820190508181036000830152611e728184611e1f565b905092915050565b6000819050919050565b611e8d81611e7a565b8114611e9857600080fd5b50565b600081359050611eaa81611e84565b92915050565b600060208284031215611ec657611ec5611d03565b5b6000611ed484828501611e9b565b91505092915050565b600073ffffffffffffffffffffffffffffffffffffffff82169050919050565b6000611f0882611edd565b9050919050565b611f1881611efd565b82525050565b6000602082019050611f336000830184611f0f565b92915050565b611f4281611efd565b8114611f4d57600080fd5b50565b600081359050611f5f81611f39565b92915050565b60008060408385031215611f7c57611f7b611d03565b5b6000611f8a85828601611f50565b9250506020611f9b85828601611e9b565b9150509250929050565b611fae81611e7a565b82525050565b6000602082019050611fc96000830184611fa5565b92915050565b600080600060608486031215611fe857611fe7611d03565b5b6000611ff686828701611f50565b935050602061200786828701611f50565b925050604061201886828701611e9b565b9150509250925092565b60006020828403121561203857612037611d03565b5b600061204684828501611f50565b91505092915050565b61205881611d92565b811461206357600080fd5b50565b6000813590506120758161204f565b92915050565b6000806040838503121561209257612091611d03565b5b60006120a085828601611f50565b92505060206120b185828601612066565b9150509250929050565b600080fd5b600080fd5b7f4e487b7100000000000000000000000000000000000000000000000000000000600052604160045260246000fd5b6120fd82611e0e565b810181811067ffffffffffffffff8211171561211c5761211b6120c5565b5b80604052505050565b600061212f611cf9565b905061213b82826120f4565b919050565b600067ffffffffffffffff82111561215b5761215a6120c5565b5b61216482611e0e565b9050602081019050919050565b82818337600083830152505050565b600061219361218e84612140565b612125565b9050828152602081018484840111156121af576121ae6120c0565b5b6121ba848285612171565b509392505050565b600082601f8301126121d7576121d66120bb565b5b81356121e7848260208601612180565b91505092915050565b6000806000806080858703121561220a57612209611d03565b5b600061221887828801611f50565b945050602061222987828801611f50565b935050604061223a87828801611e9b565b925050606085013567ffffffffffffffff81111561225b5761225a611d08565b5b612267878288016121c2565b91505092959194509250565b6000806040838503121561228a57612289611d03565b5b600061229885828601611f50565b92505060206122a985828601611f50565b9150509250929050565b7f4e487b7100000000000000000000000000000000000000000000000000000000600052602260045260246000fd5b600060028204905060018216806122fa57607f821691505b60208210810361230d5761230c6122b3565b5b50919050565b7f4552433732313a20617070726f76656420717565727920666f72206e6f6e657860008201527f697374656e7420746f6b656e0000000000000000000000000000000000000000602082015250565b600061236f602c83611dd3565b915061237a82612313565b604082019050919050565b6000602082019050818103600083015261239e81612362565b9050919050565b7f4552433732313a20617070726f76616c20746f2063757272656e74206f776e6560008201527f7200000000000000000000000000000000000000000000000000000000000000602082015250565b6000612401602183611dd3565b915061240c826123a5565b604082019050919050565b60006020820190508181036000830152612430816123f4565b9050919050565b7f4552433732313a20617070726f76652063616c6c6572206973206e6f74206f7760008201527f6e6572206e6f7220617070726f76656420666f7220616c6c0000000000000000602082015250565b6000612493603883611dd3565b915061249e82612437565b604082019050919050565b600060208201905081810360008301526124c281612486565b9050919050565b7f4552433732313a207472616e736665722063616c6c6572206973206e6f74206f60008201527f776e6572206e6f7220617070726f766564000000000000000000000000000000602082015250565b6000612525603183611dd3565b9150612530826124c9565b604082019050919050565b6000602082019050818103600083015261255481612518565b9050919050565b7f455243373231456e756d657261626c653a206f776e657220696e646578206f7560008201527f74206f6620626f756e6473000000000000000000000000000000000000000000602082015250565b60006125b7602b83611dd3565b91506125c28261255b565b604082019050919050565b600060208201905081810360008301526125e6816125aa565b9050919050565b7f455243373231456e756d657261626c653a20676c6f62616c20696e646578206f60008201527f7574206f6620626f756e64730000000000000000000000000000000000000000602082015250565b6000612649602c83611dd3565b9150612654826125ed565b604082019050919050565b600060208201905081810360008301526126788161263c565b9050919050565b7f4e487b7100000000000000000000000000000000000000000000000000000000600052603260045260246000fd5b7f4552433732313a206f776e657220717565727920666f72206e6f6e657869737460008201527f656e7420746f6b656e0000000000000000000000000000000000000000000000602082015250565b600061270a602983611dd3565b9150612715826126ae565b604082019050919050565b60006020820190508181036000830152612739816126fd565b9050919050565b7f4552433732313a2062616c616e636520717565727920666f7220746865207a6560008201527f726f206164647265737300000000000000000000000000000000000000000000602082015250565b600061279c602a83611dd3565b91506127a782612740565b604082019050919050565b600060208201905081810360008301526127cb8161278f565b9050919050565b7f4552433732314d657461646174613a2055524920717565727920666f72206e6f60008201527f6e6578697374656e7420746f6b656e0000000000000000000000000000000000602082015250565b600061282e602f83611dd3565b9150612839826127d2565b604082019050919050565b6000602082019050818103600083015261285d81612821565b9050919050565b600081905092915050565b600061287a82611dc8565b6128848185612864565b9350612894818560208601611de4565b80840191505092915050565b60006128ac828561286f565b91506128b8828461286f565b91508190509392505050565b7f4552433732313a206f70657261746f7220717565727920666f72206e6f6e657860008201527f697374656e7420746f6b656e0000000000000000000000000000000000000000602082015250565b6000612920602c83611dd3565b915061292b826128c4565b604082019050919050565b6000602082019050818103600083015261294f81612913565b9050919050565b7f4552433732313a207472616e736665722066726f6d20696e636f72726563742060008201527f6f776e6572000000000000000000000000000000000000000000000000000000602082015250565b60006129b2602583611dd3565b91506129bd82612956565b604082019050919050565b600060208201905081810360008301526129e1816129a5565b9050919050565b7f4552433732313a207472616e7366657220746f20746865207a65726f2061646460008201527f7265737300000000000000000000000000000000000000000000000000000000602082015250565b6000612a44602483611dd3565b9150612a4f826129e8565b604082019050919050565b60006020820190508181036000830152612a7381612a37565b9050919050565b7f4e487b7100000000000000000000000000000000000000000000000000000000600052601160045260246000fd5b6000612ab482611e7a565b9150612abf83611e7a565b9250828203905081811115612ad757612ad6612a7a565b5b92915050565b6000612ae882611e7a565b9150612af383611e7a565b9250828201905080821115612b0b57612b0a612a7a565b5b92915050565b7f4552433732313a20617070726f766520746f2063616c6c657200000000000000600082015250565b6000612b47601983611dd3565b9150612b5282612b11565b602082019050919050565b60006020820190508181036000830152612b7681612b3a565b9050919050565b7f4552433732313a207472616e7366657220746f206e6f6e20455243373231526560008201527f63656976657220696d706c656d656e7465720000000000000000000000000000602082015250565b6000612bd9603283611dd3565b9150612be482612b7d565b604082019050919050565b60006020820190508181036000830152612c0881612bcc565b9050919050565b6000612c1a82611e7a565b91507fffffffffffffffffffffffffffffffffffffffffffffffffffffffffffffffff8203612c4c57612c4b612a7a565b5b600182019050919050565b7f4e487b7100000000000000000000000000000000000000000000000000000000600052601260045260246000fd5b6000612c9182611e7a565b9150612c9c83611e7a565b925082612cac57612cab612c57565b5b828204905092915050565b6000612cc282611e7a565b9150612ccd83611e7a565b925082612cdd57612cdc612c57565b5b828206905092915050565b600081519050919050565b600082825260208201905092915050565b6000612d0f82612ce8565b612d198185612cf3565b9350612d29818560208601611de4565b612d3281611e0e565b840191505092915050565b6000608082019050612d526000830187611f0f565b612d5f6020830186611f0f565b612d6c6040830185611fa5565b8181036060830152612d7e8184612d04565b905095945050505050565b600081519050612d9881611d39565b92915050565b600060208284031215612db457612db3611d03565b5b6000612dc284828501612d89565b91505092915050565b7f4e487b7100000000000000000000000000000000000000000000000000000000600052603160045260246000fd5b7f4552433732313a206d696e7420746f20746865207a65726f2061646472657373600082015250565b6000612e30602083611dd3565b9150612e3b82612dfa565b602082019050919050565b60006020820190508181036000830152612e5f81612e23565b9050919050565b7f4552433732313a20746f6b656e20616c7265616479206d696e74656400000000600082015250565b6000612e9c601c83611dd3565b9150612ea782612e66565b602082019050919050565b60006020820190508181036000830152612ecb81612e8f565b905091905056fea26469706673582212206826d4a7c5019391d76b18a232e63b0cfc38f4f3695fafc4c17a1c945231e16e64736f6c63430008110033",
  "linkReferences": {},
  "deployedLinkReferences": {}
}